{
	"compilerInput": "{\"language\":\"Solidity\",\"sources\":{\"IotDataStorage.sol\":{\"content\":\"// SPDX-License-Identifier: MIT\\r\\npragma solidity ^0.8.0;\\r\\n\\r\\ncontract IoTDataStorage {\\r\\n    struct DataEntry {\\r\\n        string dataType;\\r\\n        string value;\\r\\n        uint256 timestamp;\\r\\n    }\\r\\n\\r\\n    address public owner;\\r\\n    mapping(string => DataEntry[]) private deviceData;\\r\\n    mapping(address => bool) public authorizedDevices;\\r\\n\\r\\n    constructor() {\\r\\n        owner = msg.sender;\\r\\n    }\\r\\n\\r\\n    modifier onlyOwner() {\\r\\n        require(msg.sender == owner, \\\"Not contract owner\\\");\\r\\n        _;\\r\\n    }\\r\\n\\r\\n    modifier onlyAuthorized() {\\r\\n        require(authorizedDevices[msg.sender], \\\"Unauthorized\\\");\\r\\n        _;\\r\\n    }\\r\\n\\r\\n    function authorizeDevice(address device) public onlyOwner {\\r\\n        authorizedDevices[device] = true;\\r\\n    }\\r\\n\\r\\n    function revokeDevice(address device) public onlyOwner {\\r\\n        authorizedDevices[device] = false;\\r\\n    }\\r\\n\\r\\n    function storeData(string memory deviceID, string memory dataType, string memory value) public onlyAuthorized {\\r\\n        require(bytes(deviceID).length > 0, \\\"Invalid deviceID\\\");\\r\\n        require(bytes(dataType).length > 0, \\\"Invalid dataType\\\");\\r\\n        require(bytes(value).length > 0, \\\"Invalid value\\\");\\r\\n\\r\\n        DataEntry memory entry = DataEntry(dataType, value, block.timestamp);\\r\\n        deviceData[deviceID].push(entry);\\r\\n    }\\r\\n\\r\\n    function getDataCount(string memory deviceID) public view returns (uint256) {\\r\\n        return deviceData[deviceID].length;\\r\\n    }\\r\\n\\r\\n    function getDataByIndex(string memory deviceID, uint256 index) public view returns (string memory, string memory, uint256) {\\r\\n        require(index < deviceData[deviceID].length, \\\"Index out of bounds\\\");\\r\\n        DataEntry memory entry = deviceData[deviceID][index];\\r\\n        return (entry.dataType, entry.value, entry.timestamp);\\r\\n    }\\r\\n}\\r\\n\"}},\"settings\":{\"optimizer\":{\"enabled\":false,\"runs\":200},\"outputSelection\":{\"*\":{\"\":[\"ast\"],\"*\":[\"abi\",\"metadata\",\"devdoc\",\"userdoc\",\"storageLayout\",\"evm.legacyAssembly\",\"evm.bytecode\",\"evm.deployedBytecode\",\"evm.methodIdentifiers\",\"evm.gasEstimates\",\"evm.assembly\"]}},\"remappings\":[]}}",
	"name": "IoTDataStorage",
	"bytecode": {
		"linkReferences": {},
		"object": "608060405234801561001057600080fd5b50336000806101000a81548173ffffffffffffffffffffffffffffffffffffffff021916908373ffffffffffffffffffffffffffffffffffffffff16021790555061101d806100606000396000f3fe608060405234801561001057600080fd5b506004361061007d5760003560e01c80636fe3c2b21161005b5780636fe3c2b2146101145780638da5cb5b14610130578063933eb9ca1461014e578063d4001ef21461016a5761007d565b80631b11092d1461008257806323dfc578146100b257806330a76b38146100e4575b600080fd5b61009c6004803603810190610097919061092d565b610186565b6040516100a99190610ccb565b60405180910390f35b6100cc60048036038101906100c79190610a2e565b6101a6565b6040516100db93929190610ce6565b60405180910390f35b6100fe60048036038101906100f99190610956565b6103cc565b60405161010b9190610deb565b60405180910390f35b61012e6004803603810190610129919061092d565b6103f7565b005b6101386104e0565b6040516101459190610cb0565b60405180910390f35b6101686004803603810190610163919061092d565b610504565b005b610184600480360381019061017f9190610997565b6105ed565b005b60026020528060005260406000206000915054906101000a900460ff1681565b60608060006001856040516101bb9190610c99565b908152602001604051809103902080549050841061020e576040517f08c379a000000000000000000000000000000000000000000000000000000000815260040161020590610dcb565b60405180910390fd5b60006001866040516102209190610c99565b90815260200160405180910390208581548110610266577f4e487b7100000000000000000000000000000000000000000000000000000000600052603260045260246000fd5b906000526020600020906003020160405180606001604052908160008201805461028f90610f18565b80601f01602080910402602001604051908101604052809291908181526020018280546102bb90610f18565b80156103085780601f106102dd57610100808354040283529160200191610308565b820191906000526020600020905b8154815290600101906020018083116102eb57829003601f168201915b5050505050815260200160018201805461032190610f18565b80601f016020809104026020016040519081016040528092919081815260200182805461034d90610f18565b801561039a5780601f1061036f5761010080835404028352916020019161039a565b820191906000526020600020905b81548152906001019060200180831161037d57829003601f168201915b505050505081526020016002820154815250509050806000015181602001518260400151935093509350509250925092565b60006001826040516103de9190610c99565b9081526020016040518091039020805490509050919050565b60008054906101000a900473ffffffffffffffffffffffffffffffffffffffff1673ffffffffffffffffffffffffffffffffffffffff163373ffffffffffffffffffffffffffffffffffffffff1614610485576040517f08c379a000000000000000000000000000000000000000000000000000000000815260040161047c90610dab565b60405180910390fd5b6000600260008373ffffffffffffffffffffffffffffffffffffffff1673ffffffffffffffffffffffffffffffffffffffff16815260200190815260200160002060006101000a81548160ff02191690831515021790555050565b60008054906101000a900473ffffffffffffffffffffffffffffffffffffffff1681565b60008054906101000a900473ffffffffffffffffffffffffffffffffffffffff1673ffffffffffffffffffffffffffffffffffffffff163373ffffffffffffffffffffffffffffffffffffffff1614610592576040517f08c379a000000000000000000000000000000000000000000000000000000000815260040161058990610dab565b60405180910390fd5b6001600260008373ffffffffffffffffffffffffffffffffffffffff1673ffffffffffffffffffffffffffffffffffffffff16815260200190815260200160002060006101000a81548160ff02191690831515021790555050565b600260003373ffffffffffffffffffffffffffffffffffffffff1673ffffffffffffffffffffffffffffffffffffffff16815260200190815260200160002060009054906101000a900460ff16610679576040517f08c379a000000000000000000000000000000000000000000000000000000000815260040161067090610d2b565b60405180910390fd5b60008351116106bd576040517f08c379a00000000000000000000000000000000000000000000000000000000081526004016106b490610d8b565b60405180910390fd5b6000825111610701576040517f08c379a00000000000000000000000000000000000000000000000000000000081526004016106f890610d4b565b60405180910390fd5b6000815111610745576040517f08c379a000000000000000000000000000000000000000000000000000000000815260040161073c90610d6b565b60405180910390fd5b600060405180606001604052808481526020018381526020014281525090506001846040516107749190610c99565b908152602001604051809103902081908060018154018082558091505060019003906000526020600020906003020160009091909190915060008201518160000190805190602001906107c89291906107f8565b5060208201518160010190805190602001906107e59291906107f8565b5060408201518160020155505050505050565b82805461080490610f18565b90600052602060002090601f016020900481019282610826576000855561086d565b82601f1061083f57805160ff191683800117855561086d565b8280016001018555821561086d579182015b8281111561086c578251825591602001919060010190610851565b5b50905061087a919061087e565b5090565b5b8082111561089757600081600090555060010161087f565b5090565b60006108ae6108a984610e37565b610e06565b9050828152602081018484840111156108c657600080fd5b6108d1848285610ed6565b509392505050565b6000813590506108e881610fb9565b92915050565b600082601f8301126108ff57600080fd5b813561090f84826020860161089b565b91505092915050565b60008135905061092781610fd0565b92915050565b60006020828403121561093f57600080fd5b600061094d848285016108d9565b91505092915050565b60006020828403121561096857600080fd5b600082013567ffffffffffffffff81111561098257600080fd5b61098e848285016108ee565b91505092915050565b6000806000606084860312156109ac57600080fd5b600084013567ffffffffffffffff8111156109c657600080fd5b6109d2868287016108ee565b935050602084013567ffffffffffffffff8111156109ef57600080fd5b6109fb868287016108ee565b925050604084013567ffffffffffffffff811115610a1857600080fd5b610a24868287016108ee565b9150509250925092565b60008060408385031215610a4157600080fd5b600083013567ffffffffffffffff811115610a5b57600080fd5b610a67858286016108ee565b9250506020610a7885828601610918565b9150509250929050565b610a8b81610e8e565b82525050565b610a9a81610ea0565b82525050565b6000610aab82610e67565b610ab58185610e72565b9350610ac5818560208601610ee5565b610ace81610fa8565b840191505092915050565b6000610ae482610e67565b610aee8185610e83565b9350610afe818560208601610ee5565b80840191505092915050565b6000610b17600c83610e72565b91507f556e617574686f72697a656400000000000000000000000000000000000000006000830152602082019050919050565b6000610b57601083610e72565b91507f496e76616c6964206461746154797065000000000000000000000000000000006000830152602082019050919050565b6000610b97600d83610e72565b91507f496e76616c69642076616c7565000000000000000000000000000000000000006000830152602082019050919050565b6000610bd7601083610e72565b91507f496e76616c6964206465766963654944000000000000000000000000000000006000830152602082019050919050565b6000610c17601283610e72565b91507f4e6f7420636f6e7472616374206f776e657200000000000000000000000000006000830152602082019050919050565b6000610c57601383610e72565b91507f496e646578206f7574206f6620626f756e6473000000000000000000000000006000830152602082019050919050565b610c9381610ecc565b82525050565b6000610ca58284610ad9565b915081905092915050565b6000602082019050610cc56000830184610a82565b92915050565b6000602082019050610ce06000830184610a91565b92915050565b60006060820190508181036000830152610d008186610aa0565b90508181036020830152610d148185610aa0565b9050610d236040830184610c8a565b949350505050565b60006020820190508181036000830152610d4481610b0a565b9050919050565b60006020820190508181036000830152610d6481610b4a565b9050919050565b60006020820190508181036000830152610d8481610b8a565b9050919050565b60006020820190508181036000830152610da481610bca565b9050919050565b60006020820190508181036000830152610dc481610c0a565b9050919050565b60006020820190508181036000830152610de481610c4a565b9050919050565b6000602082019050610e006000830184610c8a565b92915050565b6000604051905081810181811067ffffffffffffffff82111715610e2d57610e2c610f79565b5b8060405250919050565b600067ffffffffffffffff821115610e5257610e51610f79565b5b601f19601f8301169050602081019050919050565b600081519050919050565b600082825260208201905092915050565b600081905092915050565b6000610e9982610eac565b9050919050565b60008115159050919050565b600073ffffffffffffffffffffffffffffffffffffffff82169050919050565b6000819050919050565b82818337600083830152505050565b60005b83811015610f03578082015181840152602081019050610ee8565b83811115610f12576000848401525b50505050565b60006002820490506001821680610f3057607f821691505b60208210811415610f4457610f43610f4a565b5b50919050565b7f4e487b7100000000000000000000000000000000000000000000000000000000600052602260045260246000fd5b7f4e487b7100000000000000000000000000000000000000000000000000000000600052604160045260246000fd5b6000601f19601f8301169050919050565b610fc281610e8e565b8114610fcd57600080fd5b50565b610fd981610ecc565b8114610fe457600080fd5b5056fea26469706673582212206b157383f942affe3e24a9264f29423c7ca830e2abf8779f7f9237884e200bda64736f6c63430008000033",
		"opcodes": "PUSH1 0x80 PUSH1 0x40 MSTORE CALLVALUE DUP1 ISZERO PUSH2 0x10 JUMPI PUSH1 0x0 DUP1 REVERT JUMPDEST POP CALLER PUSH1 0x0 DUP1 PUSH2 0x100 EXP DUP2 SLOAD DUP2 PUSH20 0xFFFFFFFFFFFFFFFFFFFFFFFFFFFFFFFFFFFFFFFF MUL NOT AND SWAP1 DUP4 PUSH20 0xFFFFFFFFFFFFFFFFFFFFFFFFFFFFFFFFFFFFFFFF AND MUL OR SWAP1 SSTORE POP PUSH2 0x101D DUP1 PUSH2 0x60 PUSH1 0x0 CODECOPY PUSH1 0x0 RETURN INVALID PUSH1 0x80 PUSH1 0x40 MSTORE CALLVALUE DUP1 ISZERO PUSH2 0x10 JUMPI PUSH1 0x0 DUP1 REVERT JUMPDEST POP PUSH1 0x4 CALLDATASIZE LT PUSH2 0x7D JUMPI PUSH1 0x0 CALLDATALOAD PUSH1 0xE0 SHR DUP1 PUSH4 0x6FE3C2B2 GT PUSH2 0x5B JUMPI DUP1 PUSH4 0x6FE3C2B2 EQ PUSH2 0x114 JUMPI DUP1 PUSH4 0x8DA5CB5B EQ PUSH2 0x130 JUMPI DUP1 PUSH4 0x933EB9CA EQ PUSH2 0x14E JUMPI DUP1 PUSH4 0xD4001EF2 EQ PUSH2 0x16A JUMPI PUSH2 0x7D JUMP JUMPDEST DUP1 PUSH4 0x1B11092D EQ PUSH2 0x82 JUMPI DUP1 PUSH4 0x23DFC578 EQ PUSH2 0xB2 JUMPI DUP1 PUSH4 0x30A76B38 EQ PUSH2 0xE4 JUMPI JUMPDEST PUSH1 0x0 DUP1 REVERT JUMPDEST PUSH2 0x9C PUSH1 0x4 DUP1 CALLDATASIZE SUB DUP2 ADD SWAP1 PUSH2 0x97 SWAP2 SWAP1 PUSH2 0x92D JUMP JUMPDEST PUSH2 0x186 JUMP JUMPDEST PUSH1 0x40 MLOAD PUSH2 0xA9 SWAP2 SWAP1 PUSH2 0xCCB JUMP JUMPDEST PUSH1 0x40 MLOAD DUP1 SWAP2 SUB SWAP1 RETURN JUMPDEST PUSH2 0xCC PUSH1 0x4 DUP1 CALLDATASIZE SUB DUP2 ADD SWAP1 PUSH2 0xC7 SWAP2 SWAP1 PUSH2 0xA2E JUMP JUMPDEST PUSH2 0x1A6 JUMP JUMPDEST PUSH1 0x40 MLOAD PUSH2 0xDB SWAP4 SWAP3 SWAP2 SWAP1 PUSH2 0xCE6 JUMP JUMPDEST PUSH1 0x40 MLOAD DUP1 SWAP2 SUB SWAP1 RETURN JUMPDEST PUSH2 0xFE PUSH1 0x4 DUP1 CALLDATASIZE SUB DUP2 ADD SWAP1 PUSH2 0xF9 SWAP2 SWAP1 PUSH2 0x956 JUMP JUMPDEST PUSH2 0x3CC JUMP JUMPDEST PUSH1 0x40 MLOAD PUSH2 0x10B SWAP2 SWAP1 PUSH2 0xDEB JUMP JUMPDEST PUSH1 0x40 MLOAD DUP1 SWAP2 SUB SWAP1 RETURN JUMPDEST PUSH2 0x12E PUSH1 0x4 DUP1 CALLDATASIZE SUB DUP2 ADD SWAP1 PUSH2 0x129 SWAP2 SWAP1 PUSH2 0x92D JUMP JUMPDEST PUSH2 0x3F7 JUMP JUMPDEST STOP JUMPDEST PUSH2 0x138 PUSH2 0x4E0 JUMP JUMPDEST PUSH1 0x40 MLOAD PUSH2 0x145 SWAP2 SWAP1 PUSH2 0xCB0 JUMP JUMPDEST PUSH1 0x40 MLOAD DUP1 SWAP2 SUB SWAP1 RETURN JUMPDEST PUSH2 0x168 PUSH1 0x4 DUP1 CALLDATASIZE SUB DUP2 ADD SWAP1 PUSH2 0x163 SWAP2 SWAP1 PUSH2 0x92D JUMP JUMPDEST PUSH2 0x504 JUMP JUMPDEST STOP JUMPDEST PUSH2 0x184 PUSH1 0x4 DUP1 CALLDATASIZE SUB DUP2 ADD SWAP1 PUSH2 0x17F SWAP2 SWAP1 PUSH2 0x997 JUMP JUMPDEST PUSH2 0x5ED JUMP JUMPDEST STOP JUMPDEST PUSH1 0x2 PUSH1 0x20 MSTORE DUP1 PUSH1 0x0 MSTORE PUSH1 0x40 PUSH1 0x0 KECCAK256 PUSH1 0x0 SWAP2 POP SLOAD SWAP1 PUSH2 0x100 EXP SWAP1 DIV PUSH1 0xFF AND DUP2 JUMP JUMPDEST PUSH1 0x60 DUP1 PUSH1 0x0 PUSH1 0x1 DUP6 PUSH1 0x40 MLOAD PUSH2 0x1BB SWAP2 SWAP1 PUSH2 0xC99 JUMP JUMPDEST SWAP1 DUP2 MSTORE PUSH1 0x20 ADD PUSH1 0x40 MLOAD DUP1 SWAP2 SUB SWAP1 KECCAK256 DUP1 SLOAD SWAP1 POP DUP5 LT PUSH2 0x20E JUMPI PUSH1 0x40 MLOAD PUSH32 0x8C379A000000000000000000000000000000000000000000000000000000000 DUP2 MSTORE PUSH1 0x4 ADD PUSH2 0x205 SWAP1 PUSH2 0xDCB JUMP JUMPDEST PUSH1 0x40 MLOAD DUP1 SWAP2 SUB SWAP1 REVERT JUMPDEST PUSH1 0x0 PUSH1 0x1 DUP7 PUSH1 0x40 MLOAD PUSH2 0x220 SWAP2 SWAP1 PUSH2 0xC99 JUMP JUMPDEST SWAP1 DUP2 MSTORE PUSH1 0x20 ADD PUSH1 0x40 MLOAD DUP1 SWAP2 SUB SWAP1 KECCAK256 DUP6 DUP2 SLOAD DUP2 LT PUSH2 0x266 JUMPI PUSH32 0x4E487B7100000000000000000000000000000000000000000000000000000000 PUSH1 0x0 MSTORE PUSH1 0x32 PUSH1 0x4 MSTORE PUSH1 0x24 PUSH1 0x0 REVERT JUMPDEST SWAP1 PUSH1 0x0 MSTORE PUSH1 0x20 PUSH1 0x0 KECCAK256 SWAP1 PUSH1 0x3 MUL ADD PUSH1 0x40 MLOAD DUP1 PUSH1 0x60 ADD PUSH1 0x40 MSTORE SWAP1 DUP2 PUSH1 0x0 DUP3 ADD DUP1 SLOAD PUSH2 0x28F SWAP1 PUSH2 0xF18 JUMP JUMPDEST DUP1 PUSH1 0x1F ADD PUSH1 0x20 DUP1 SWAP2 DIV MUL PUSH1 0x20 ADD PUSH1 0x40 MLOAD SWAP1 DUP2 ADD PUSH1 0x40 MSTORE DUP1 SWAP3 SWAP2 SWAP1 DUP2 DUP2 MSTORE PUSH1 0x20 ADD DUP3 DUP1 SLOAD PUSH2 0x2BB SWAP1 PUSH2 0xF18 JUMP JUMPDEST DUP1 ISZERO PUSH2 0x308 JUMPI DUP1 PUSH1 0x1F LT PUSH2 0x2DD JUMPI PUSH2 0x100 DUP1 DUP4 SLOAD DIV MUL DUP4 MSTORE SWAP2 PUSH1 0x20 ADD SWAP2 PUSH2 0x308 JUMP JUMPDEST DUP3 ADD SWAP2 SWAP1 PUSH1 0x0 MSTORE PUSH1 0x20 PUSH1 0x0 KECCAK256 SWAP1 JUMPDEST DUP2 SLOAD DUP2 MSTORE SWAP1 PUSH1 0x1 ADD SWAP1 PUSH1 0x20 ADD DUP1 DUP4 GT PUSH2 0x2EB JUMPI DUP3 SWAP1 SUB PUSH1 0x1F AND DUP3 ADD SWAP2 JUMPDEST POP POP POP POP POP DUP2 MSTORE PUSH1 0x20 ADD PUSH1 0x1 DUP3 ADD DUP1 SLOAD PUSH2 0x321 SWAP1 PUSH2 0xF18 JUMP JUMPDEST DUP1 PUSH1 0x1F ADD PUSH1 0x20 DUP1 SWAP2 DIV MUL PUSH1 0x20 ADD PUSH1 0x40 MLOAD SWAP1 DUP2 ADD PUSH1 0x40 MSTORE DUP1 SWAP3 SWAP2 SWAP1 DUP2 DUP2 MSTORE PUSH1 0x20 ADD DUP3 DUP1 SLOAD PUSH2 0x34D SWAP1 PUSH2 0xF18 JUMP JUMPDEST DUP1 ISZERO PUSH2 0x39A JUMPI DUP1 PUSH1 0x1F LT PUSH2 0x36F JUMPI PUSH2 0x100 DUP1 DUP4 SLOAD DIV MUL DUP4 MSTORE SWAP2 PUSH1 0x20 ADD SWAP2 PUSH2 0x39A JUMP JUMPDEST DUP3 ADD SWAP2 SWAP1 PUSH1 0x0 MSTORE PUSH1 0x20 PUSH1 0x0 KECCAK256 SWAP1 JUMPDEST DUP2 SLOAD DUP2 MSTORE SWAP1 PUSH1 0x1 ADD SWAP1 PUSH1 0x20 ADD DUP1 DUP4 GT PUSH2 0x37D JUMPI DUP3 SWAP1 SUB PUSH1 0x1F AND DUP3 ADD SWAP2 JUMPDEST POP POP POP POP POP DUP2 MSTORE PUSH1 0x20 ADD PUSH1 0x2 DUP3 ADD SLOAD DUP2 MSTORE POP POP SWAP1 POP DUP1 PUSH1 0x0 ADD MLOAD DUP2 PUSH1 0x20 ADD MLOAD DUP3 PUSH1 0x40 ADD MLOAD SWAP4 POP SWAP4 POP SWAP4 POP POP SWAP3 POP SWAP3 POP SWAP3 JUMP JUMPDEST PUSH1 0x0 PUSH1 0x1 DUP3 PUSH1 0x40 MLOAD PUSH2 0x3DE SWAP2 SWAP1 PUSH2 0xC99 JUMP JUMPDEST SWAP1 DUP2 MSTORE PUSH1 0x20 ADD PUSH1 0x40 MLOAD DUP1 SWAP2 SUB SWAP1 KECCAK256 DUP1 SLOAD SWAP1 POP SWAP1 POP SWAP2 SWAP1 POP JUMP JUMPDEST PUSH1 0x0 DUP1 SLOAD SWAP1 PUSH2 0x100 EXP SWAP1 DIV PUSH20 0xFFFFFFFFFFFFFFFFFFFFFFFFFFFFFFFFFFFFFFFF AND PUSH20 0xFFFFFFFFFFFFFFFFFFFFFFFFFFFFFFFFFFFFFFFF AND CALLER PUSH20 0xFFFFFFFFFFFFFFFFFFFFFFFFFFFFFFFFFFFFFFFF AND EQ PUSH2 0x485 JUMPI PUSH1 0x40 MLOAD PUSH32 0x8C379A000000000000000000000000000000000000000000000000000000000 DUP2 MSTORE PUSH1 0x4 ADD PUSH2 0x47C SWAP1 PUSH2 0xDAB JUMP JUMPDEST PUSH1 0x40 MLOAD DUP1 SWAP2 SUB SWAP1 REVERT JUMPDEST PUSH1 0x0 PUSH1 0x2 PUSH1 0x0 DUP4 PUSH20 0xFFFFFFFFFFFFFFFFFFFFFFFFFFFFFFFFFFFFFFFF AND PUSH20 0xFFFFFFFFFFFFFFFFFFFFFFFFFFFFFFFFFFFFFFFF AND DUP2 MSTORE PUSH1 0x20 ADD SWAP1 DUP2 MSTORE PUSH1 0x20 ADD PUSH1 0x0 KECCAK256 PUSH1 0x0 PUSH2 0x100 EXP DUP2 SLOAD DUP2 PUSH1 0xFF MUL NOT AND SWAP1 DUP4 ISZERO ISZERO MUL OR SWAP1 SSTORE POP POP JUMP JUMPDEST PUSH1 0x0 DUP1 SLOAD SWAP1 PUSH2 0x100 EXP SWAP1 DIV PUSH20 0xFFFFFFFFFFFFFFFFFFFFFFFFFFFFFFFFFFFFFFFF AND DUP2 JUMP JUMPDEST PUSH1 0x0 DUP1 SLOAD SWAP1 PUSH2 0x100 EXP SWAP1 DIV PUSH20 0xFFFFFFFFFFFFFFFFFFFFFFFFFFFFFFFFFFFFFFFF AND PUSH20 0xFFFFFFFFFFFFFFFFFFFFFFFFFFFFFFFFFFFFFFFF AND CALLER PUSH20 0xFFFFFFFFFFFFFFFFFFFFFFFFFFFFFFFFFFFFFFFF AND EQ PUSH2 0x592 JUMPI PUSH1 0x40 MLOAD PUSH32 0x8C379A000000000000000000000000000000000000000000000000000000000 DUP2 MSTORE PUSH1 0x4 ADD PUSH2 0x589 SWAP1 PUSH2 0xDAB JUMP JUMPDEST PUSH1 0x40 MLOAD DUP1 SWAP2 SUB SWAP1 REVERT JUMPDEST PUSH1 0x1 PUSH1 0x2 PUSH1 0x0 DUP4 PUSH20 0xFFFFFFFFFFFFFFFFFFFFFFFFFFFFFFFFFFFFFFFF AND PUSH20 0xFFFFFFFFFFFFFFFFFFFFFFFFFFFFFFFFFFFFFFFF AND DUP2 MSTORE PUSH1 0x20 ADD SWAP1 DUP2 MSTORE PUSH1 0x20 ADD PUSH1 0x0 KECCAK256 PUSH1 0x0 PUSH2 0x100 EXP DUP2 SLOAD DUP2 PUSH1 0xFF MUL NOT AND SWAP1 DUP4 ISZERO ISZERO MUL OR SWAP1 SSTORE POP POP JUMP JUMPDEST PUSH1 0x2 PUSH1 0x0 CALLER PUSH20 0xFFFFFFFFFFFFFFFFFFFFFFFFFFFFFFFFFFFFFFFF AND PUSH20 0xFFFFFFFFFFFFFFFFFFFFFFFFFFFFFFFFFFFFFFFF AND DUP2 MSTORE PUSH1 0x20 ADD SWAP1 DUP2 MSTORE PUSH1 0x20 ADD PUSH1 0x0 KECCAK256 PUSH1 0x0 SWAP1 SLOAD SWAP1 PUSH2 0x100 EXP SWAP1 DIV PUSH1 0xFF AND PUSH2 0x679 JUMPI PUSH1 0x40 MLOAD PUSH32 0x8C379A000000000000000000000000000000000000000000000000000000000 DUP2 MSTORE PUSH1 0x4 ADD PUSH2 0x670 SWAP1 PUSH2 0xD2B JUMP JUMPDEST PUSH1 0x40 MLOAD DUP1 SWAP2 SUB SWAP1 REVERT JUMPDEST PUSH1 0x0 DUP4 MLOAD GT PUSH2 0x6BD JUMPI PUSH1 0x40 MLOAD PUSH32 0x8C379A000000000000000000000000000000000000000000000000000000000 DUP2 MSTORE PUSH1 0x4 ADD PUSH2 0x6B4 SWAP1 PUSH2 0xD8B JUMP JUMPDEST PUSH1 0x40 MLOAD DUP1 SWAP2 SUB SWAP1 REVERT JUMPDEST PUSH1 0x0 DUP3 MLOAD GT PUSH2 0x701 JUMPI PUSH1 0x40 MLOAD PUSH32 0x8C379A000000000000000000000000000000000000000000000000000000000 DUP2 MSTORE PUSH1 0x4 ADD PUSH2 0x6F8 SWAP1 PUSH2 0xD4B JUMP JUMPDEST PUSH1 0x40 MLOAD DUP1 SWAP2 SUB SWAP1 REVERT JUMPDEST PUSH1 0x0 DUP2 MLOAD GT PUSH2 0x745 JUMPI PUSH1 0x40 MLOAD PUSH32 0x8C379A000000000000000000000000000000000000000000000000000000000 DUP2 MSTORE PUSH1 0x4 ADD PUSH2 0x73C SWAP1 PUSH2 0xD6B JUMP JUMPDEST PUSH1 0x40 MLOAD DUP1 SWAP2 SUB SWAP1 REVERT JUMPDEST PUSH1 0x0 PUSH1 0x40 MLOAD DUP1 PUSH1 0x60 ADD PUSH1 0x40 MSTORE DUP1 DUP5 DUP2 MSTORE PUSH1 0x20 ADD DUP4 DUP2 MSTORE PUSH1 0x20 ADD TIMESTAMP DUP2 MSTORE POP SWAP1 POP PUSH1 0x1 DUP5 PUSH1 0x40 MLOAD PUSH2 0x774 SWAP2 SWAP1 PUSH2 0xC99 JUMP JUMPDEST SWAP1 DUP2 MSTORE PUSH1 0x20 ADD PUSH1 0x40 MLOAD DUP1 SWAP2 SUB SWAP1 KECCAK256 DUP2 SWAP1 DUP1 PUSH1 0x1 DUP2 SLOAD ADD DUP1 DUP3 SSTORE DUP1 SWAP2 POP POP PUSH1 0x1 SWAP1 SUB SWAP1 PUSH1 0x0 MSTORE PUSH1 0x20 PUSH1 0x0 KECCAK256 SWAP1 PUSH1 0x3 MUL ADD PUSH1 0x0 SWAP1 SWAP2 SWAP1 SWAP2 SWAP1 SWAP2 POP PUSH1 0x0 DUP3 ADD MLOAD DUP2 PUSH1 0x0 ADD SWAP1 DUP1 MLOAD SWAP1 PUSH1 0x20 ADD SWAP1 PUSH2 0x7C8 SWAP3 SWAP2 SWAP1 PUSH2 0x7F8 JUMP JUMPDEST POP PUSH1 0x20 DUP3 ADD MLOAD DUP2 PUSH1 0x1 ADD SWAP1 DUP1 MLOAD SWAP1 PUSH1 0x20 ADD SWAP1 PUSH2 0x7E5 SWAP3 SWAP2 SWAP1 PUSH2 0x7F8 JUMP JUMPDEST POP PUSH1 0x40 DUP3 ADD MLOAD DUP2 PUSH1 0x2 ADD SSTORE POP POP POP POP POP POP JUMP JUMPDEST DUP3 DUP1 SLOAD PUSH2 0x804 SWAP1 PUSH2 0xF18 JUMP JUMPDEST SWAP1 PUSH1 0x0 MSTORE PUSH1 0x20 PUSH1 0x0 KECCAK256 SWAP1 PUSH1 0x1F ADD PUSH1 0x20 SWAP1 DIV DUP2 ADD SWAP3 DUP3 PUSH2 0x826 JUMPI PUSH1 0x0 DUP6 SSTORE PUSH2 0x86D JUMP JUMPDEST DUP3 PUSH1 0x1F LT PUSH2 0x83F JUMPI DUP1 MLOAD PUSH1 0xFF NOT AND DUP4 DUP1 ADD OR DUP6 SSTORE PUSH2 0x86D JUMP JUMPDEST DUP3 DUP1 ADD PUSH1 0x1 ADD DUP6 SSTORE DUP3 ISZERO PUSH2 0x86D JUMPI SWAP2 DUP3 ADD JUMPDEST DUP3 DUP2 GT ISZERO PUSH2 0x86C JUMPI DUP3 MLOAD DUP3 SSTORE SWAP2 PUSH1 0x20 ADD SWAP2 SWAP1 PUSH1 0x1 ADD SWAP1 PUSH2 0x851 JUMP JUMPDEST JUMPDEST POP SWAP1 POP PUSH2 0x87A SWAP2 SWAP1 PUSH2 0x87E JUMP JUMPDEST POP SWAP1 JUMP JUMPDEST JUMPDEST DUP1 DUP3 GT ISZERO PUSH2 0x897 JUMPI PUSH1 0x0 DUP2 PUSH1 0x0 SWAP1 SSTORE POP PUSH1 0x1 ADD PUSH2 0x87F JUMP JUMPDEST POP SWAP1 JUMP JUMPDEST PUSH1 0x0 PUSH2 0x8AE PUSH2 0x8A9 DUP5 PUSH2 0xE37 JUMP JUMPDEST PUSH2 0xE06 JUMP JUMPDEST SWAP1 POP DUP3 DUP2 MSTORE PUSH1 0x20 DUP2 ADD DUP5 DUP5 DUP5 ADD GT ISZERO PUSH2 0x8C6 JUMPI PUSH1 0x0 DUP1 REVERT JUMPDEST PUSH2 0x8D1 DUP5 DUP3 DUP6 PUSH2 0xED6 JUMP JUMPDEST POP SWAP4 SWAP3 POP POP POP JUMP JUMPDEST PUSH1 0x0 DUP2 CALLDATALOAD SWAP1 POP PUSH2 0x8E8 DUP2 PUSH2 0xFB9 JUMP JUMPDEST SWAP3 SWAP2 POP POP JUMP JUMPDEST PUSH1 0x0 DUP3 PUSH1 0x1F DUP4 ADD SLT PUSH2 0x8FF JUMPI PUSH1 0x0 DUP1 REVERT JUMPDEST DUP2 CALLDATALOAD PUSH2 0x90F DUP5 DUP3 PUSH1 0x20 DUP7 ADD PUSH2 0x89B JUMP JUMPDEST SWAP2 POP POP SWAP3 SWAP2 POP POP JUMP JUMPDEST PUSH1 0x0 DUP2 CALLDATALOAD SWAP1 POP PUSH2 0x927 DUP2 PUSH2 0xFD0 JUMP JUMPDEST SWAP3 SWAP2 POP POP JUMP JUMPDEST PUSH1 0x0 PUSH1 0x20 DUP3 DUP5 SUB SLT ISZERO PUSH2 0x93F JUMPI PUSH1 0x0 DUP1 REVERT JUMPDEST PUSH1 0x0 PUSH2 0x94D DUP5 DUP3 DUP6 ADD PUSH2 0x8D9 JUMP JUMPDEST SWAP2 POP POP SWAP3 SWAP2 POP POP JUMP JUMPDEST PUSH1 0x0 PUSH1 0x20 DUP3 DUP5 SUB SLT ISZERO PUSH2 0x968 JUMPI PUSH1 0x0 DUP1 REVERT JUMPDEST PUSH1 0x0 DUP3 ADD CALLDATALOAD PUSH8 0xFFFFFFFFFFFFFFFF DUP2 GT ISZERO PUSH2 0x982 JUMPI PUSH1 0x0 DUP1 REVERT JUMPDEST PUSH2 0x98E DUP5 DUP3 DUP6 ADD PUSH2 0x8EE JUMP JUMPDEST SWAP2 POP POP SWAP3 SWAP2 POP POP JUMP JUMPDEST PUSH1 0x0 DUP1 PUSH1 0x0 PUSH1 0x60 DUP5 DUP7 SUB SLT ISZERO PUSH2 0x9AC JUMPI PUSH1 0x0 DUP1 REVERT JUMPDEST PUSH1 0x0 DUP5 ADD CALLDATALOAD PUSH8 0xFFFFFFFFFFFFFFFF DUP2 GT ISZERO PUSH2 0x9C6 JUMPI PUSH1 0x0 DUP1 REVERT JUMPDEST PUSH2 0x9D2 DUP7 DUP3 DUP8 ADD PUSH2 0x8EE JUMP JUMPDEST SWAP4 POP POP PUSH1 0x20 DUP5 ADD CALLDATALOAD PUSH8 0xFFFFFFFFFFFFFFFF DUP2 GT ISZERO PUSH2 0x9EF JUMPI PUSH1 0x0 DUP1 REVERT JUMPDEST PUSH2 0x9FB DUP7 DUP3 DUP8 ADD PUSH2 0x8EE JUMP JUMPDEST SWAP3 POP POP PUSH1 0x40 DUP5 ADD CALLDATALOAD PUSH8 0xFFFFFFFFFFFFFFFF DUP2 GT ISZERO PUSH2 0xA18 JUMPI PUSH1 0x0 DUP1 REVERT JUMPDEST PUSH2 0xA24 DUP7 DUP3 DUP8 ADD PUSH2 0x8EE JUMP JUMPDEST SWAP2 POP POP SWAP3 POP SWAP3 POP SWAP3 JUMP JUMPDEST PUSH1 0x0 DUP1 PUSH1 0x40 DUP4 DUP6 SUB SLT ISZERO PUSH2 0xA41 JUMPI PUSH1 0x0 DUP1 REVERT JUMPDEST PUSH1 0x0 DUP4 ADD CALLDATALOAD PUSH8 0xFFFFFFFFFFFFFFFF DUP2 GT ISZERO PUSH2 0xA5B JUMPI PUSH1 0x0 DUP1 REVERT JUMPDEST PUSH2 0xA67 DUP6 DUP3 DUP7 ADD PUSH2 0x8EE JUMP JUMPDEST SWAP3 POP POP PUSH1 0x20 PUSH2 0xA78 DUP6 DUP3 DUP7 ADD PUSH2 0x918 JUMP JUMPDEST SWAP2 POP POP SWAP3 POP SWAP3 SWAP1 POP JUMP JUMPDEST PUSH2 0xA8B DUP2 PUSH2 0xE8E JUMP JUMPDEST DUP3 MSTORE POP POP JUMP JUMPDEST PUSH2 0xA9A DUP2 PUSH2 0xEA0 JUMP JUMPDEST DUP3 MSTORE POP POP JUMP JUMPDEST PUSH1 0x0 PUSH2 0xAAB DUP3 PUSH2 0xE67 JUMP JUMPDEST PUSH2 0xAB5 DUP2 DUP6 PUSH2 0xE72 JUMP JUMPDEST SWAP4 POP PUSH2 0xAC5 DUP2 DUP6 PUSH1 0x20 DUP7 ADD PUSH2 0xEE5 JUMP JUMPDEST PUSH2 0xACE DUP2 PUSH2 0xFA8 JUMP JUMPDEST DUP5 ADD SWAP2 POP POP SWAP3 SWAP2 POP POP JUMP JUMPDEST PUSH1 0x0 PUSH2 0xAE4 DUP3 PUSH2 0xE67 JUMP JUMPDEST PUSH2 0xAEE DUP2 DUP6 PUSH2 0xE83 JUMP JUMPDEST SWAP4 POP PUSH2 0xAFE DUP2 DUP6 PUSH1 0x20 DUP7 ADD PUSH2 0xEE5 JUMP JUMPDEST DUP1 DUP5 ADD SWAP2 POP POP SWAP3 SWAP2 POP POP JUMP JUMPDEST PUSH1 0x0 PUSH2 0xB17 PUSH1 0xC DUP4 PUSH2 0xE72 JUMP JUMPDEST SWAP2 POP PUSH32 0x556E617574686F72697A65640000000000000000000000000000000000000000 PUSH1 0x0 DUP4 ADD MSTORE PUSH1 0x20 DUP3 ADD SWAP1 POP SWAP2 SWAP1 POP JUMP JUMPDEST PUSH1 0x0 PUSH2 0xB57 PUSH1 0x10 DUP4 PUSH2 0xE72 JUMP JUMPDEST SWAP2 POP PUSH32 0x496E76616C696420646174615479706500000000000000000000000000000000 PUSH1 0x0 DUP4 ADD MSTORE PUSH1 0x20 DUP3 ADD SWAP1 POP SWAP2 SWAP1 POP JUMP JUMPDEST PUSH1 0x0 PUSH2 0xB97 PUSH1 0xD DUP4 PUSH2 0xE72 JUMP JUMPDEST SWAP2 POP PUSH32 0x496E76616C69642076616C756500000000000000000000000000000000000000 PUSH1 0x0 DUP4 ADD MSTORE PUSH1 0x20 DUP3 ADD SWAP1 POP SWAP2 SWAP1 POP JUMP JUMPDEST PUSH1 0x0 PUSH2 0xBD7 PUSH1 0x10 DUP4 PUSH2 0xE72 JUMP JUMPDEST SWAP2 POP PUSH32 0x496E76616C696420646576696365494400000000000000000000000000000000 PUSH1 0x0 DUP4 ADD MSTORE PUSH1 0x20 DUP3 ADD SWAP1 POP SWAP2 SWAP1 POP JUMP JUMPDEST PUSH1 0x0 PUSH2 0xC17 PUSH1 0x12 DUP4 PUSH2 0xE72 JUMP JUMPDEST SWAP2 POP PUSH32 0x4E6F7420636F6E7472616374206F776E65720000000000000000000000000000 PUSH1 0x0 DUP4 ADD MSTORE PUSH1 0x20 DUP3 ADD SWAP1 POP SWAP2 SWAP1 POP JUMP JUMPDEST PUSH1 0x0 PUSH2 0xC57 PUSH1 0x13 DUP4 PUSH2 0xE72 JUMP JUMPDEST SWAP2 POP PUSH32 0x496E646578206F7574206F6620626F756E647300000000000000000000000000 PUSH1 0x0 DUP4 ADD MSTORE PUSH1 0x20 DUP3 ADD SWAP1 POP SWAP2 SWAP1 POP JUMP JUMPDEST PUSH2 0xC93 DUP2 PUSH2 0xECC JUMP JUMPDEST DUP3 MSTORE POP POP JUMP JUMPDEST PUSH1 0x0 PUSH2 0xCA5 DUP3 DUP5 PUSH2 0xAD9 JUMP JUMPDEST SWAP2 POP DUP2 SWAP1 POP SWAP3 SWAP2 POP POP JUMP JUMPDEST PUSH1 0x0 PUSH1 0x20 DUP3 ADD SWAP1 POP PUSH2 0xCC5 PUSH1 0x0 DUP4 ADD DUP5 PUSH2 0xA82 JUMP JUMPDEST SWAP3 SWAP2 POP POP JUMP JUMPDEST PUSH1 0x0 PUSH1 0x20 DUP3 ADD SWAP1 POP PUSH2 0xCE0 PUSH1 0x0 DUP4 ADD DUP5 PUSH2 0xA91 JUMP JUMPDEST SWAP3 SWAP2 POP POP JUMP JUMPDEST PUSH1 0x0 PUSH1 0x60 DUP3 ADD SWAP1 POP DUP2 DUP2 SUB PUSH1 0x0 DUP4 ADD MSTORE PUSH2 0xD00 DUP2 DUP7 PUSH2 0xAA0 JUMP JUMPDEST SWAP1 POP DUP2 DUP2 SUB PUSH1 0x20 DUP4 ADD MSTORE PUSH2 0xD14 DUP2 DUP6 PUSH2 0xAA0 JUMP JUMPDEST SWAP1 POP PUSH2 0xD23 PUSH1 0x40 DUP4 ADD DUP5 PUSH2 0xC8A JUMP JUMPDEST SWAP5 SWAP4 POP POP POP POP JUMP JUMPDEST PUSH1 0x0 PUSH1 0x20 DUP3 ADD SWAP1 POP DUP2 DUP2 SUB PUSH1 0x0 DUP4 ADD MSTORE PUSH2 0xD44 DUP2 PUSH2 0xB0A JUMP JUMPDEST SWAP1 POP SWAP2 SWAP1 POP JUMP JUMPDEST PUSH1 0x0 PUSH1 0x20 DUP3 ADD SWAP1 POP DUP2 DUP2 SUB PUSH1 0x0 DUP4 ADD MSTORE PUSH2 0xD64 DUP2 PUSH2 0xB4A JUMP JUMPDEST SWAP1 POP SWAP2 SWAP1 POP JUMP JUMPDEST PUSH1 0x0 PUSH1 0x20 DUP3 ADD SWAP1 POP DUP2 DUP2 SUB PUSH1 0x0 DUP4 ADD MSTORE PUSH2 0xD84 DUP2 PUSH2 0xB8A JUMP JUMPDEST SWAP1 POP SWAP2 SWAP1 POP JUMP JUMPDEST PUSH1 0x0 PUSH1 0x20 DUP3 ADD SWAP1 POP DUP2 DUP2 SUB PUSH1 0x0 DUP4 ADD MSTORE PUSH2 0xDA4 DUP2 PUSH2 0xBCA JUMP JUMPDEST SWAP1 POP SWAP2 SWAP1 POP JUMP JUMPDEST PUSH1 0x0 PUSH1 0x20 DUP3 ADD SWAP1 POP DUP2 DUP2 SUB PUSH1 0x0 DUP4 ADD MSTORE PUSH2 0xDC4 DUP2 PUSH2 0xC0A JUMP JUMPDEST SWAP1 POP SWAP2 SWAP1 POP JUMP JUMPDEST PUSH1 0x0 PUSH1 0x20 DUP3 ADD SWAP1 POP DUP2 DUP2 SUB PUSH1 0x0 DUP4 ADD MSTORE PUSH2 0xDE4 DUP2 PUSH2 0xC4A JUMP JUMPDEST SWAP1 POP SWAP2 SWAP1 POP JUMP JUMPDEST PUSH1 0x0 PUSH1 0x20 DUP3 ADD SWAP1 POP PUSH2 0xE00 PUSH1 0x0 DUP4 ADD DUP5 PUSH2 0xC8A JUMP JUMPDEST SWAP3 SWAP2 POP POP JUMP JUMPDEST PUSH1 0x0 PUSH1 0x40 MLOAD SWAP1 POP DUP2 DUP2 ADD DUP2 DUP2 LT PUSH8 0xFFFFFFFFFFFFFFFF DUP3 GT OR ISZERO PUSH2 0xE2D JUMPI PUSH2 0xE2C PUSH2 0xF79 JUMP JUMPDEST JUMPDEST DUP1 PUSH1 0x40 MSTORE POP SWAP2 SWAP1 POP JUMP JUMPDEST PUSH1 0x0 PUSH8 0xFFFFFFFFFFFFFFFF DUP3 GT ISZERO PUSH2 0xE52 JUMPI PUSH2 0xE51 PUSH2 0xF79 JUMP JUMPDEST JUMPDEST PUSH1 0x1F NOT PUSH1 0x1F DUP4 ADD AND SWAP1 POP PUSH1 0x20 DUP2 ADD SWAP1 POP SWAP2 SWAP1 POP JUMP JUMPDEST PUSH1 0x0 DUP2 MLOAD SWAP1 POP SWAP2 SWAP1 POP JUMP JUMPDEST PUSH1 0x0 DUP3 DUP3 MSTORE PUSH1 0x20 DUP3 ADD SWAP1 POP SWAP3 SWAP2 POP POP JUMP JUMPDEST PUSH1 0x0 DUP2 SWAP1 POP SWAP3 SWAP2 POP POP JUMP JUMPDEST PUSH1 0x0 PUSH2 0xE99 DUP3 PUSH2 0xEAC JUMP JUMPDEST SWAP1 POP SWAP2 SWAP1 POP JUMP JUMPDEST PUSH1 0x0 DUP2 ISZERO ISZERO SWAP1 POP SWAP2 SWAP1 POP JUMP JUMPDEST PUSH1 0x0 PUSH20 0xFFFFFFFFFFFFFFFFFFFFFFFFFFFFFFFFFFFFFFFF DUP3 AND SWAP1 POP SWAP2 SWAP1 POP JUMP JUMPDEST PUSH1 0x0 DUP2 SWAP1 POP SWAP2 SWAP1 POP JUMP JUMPDEST DUP3 DUP2 DUP4 CALLDATACOPY PUSH1 0x0 DUP4 DUP4 ADD MSTORE POP POP POP JUMP JUMPDEST PUSH1 0x0 JUMPDEST DUP4 DUP2 LT ISZERO PUSH2 0xF03 JUMPI DUP1 DUP3 ADD MLOAD DUP2 DUP5 ADD MSTORE PUSH1 0x20 DUP2 ADD SWAP1 POP PUSH2 0xEE8 JUMP JUMPDEST DUP4 DUP2 GT ISZERO PUSH2 0xF12 JUMPI PUSH1 0x0 DUP5 DUP5 ADD MSTORE JUMPDEST POP POP POP POP JUMP JUMPDEST PUSH1 0x0 PUSH1 0x2 DUP3 DIV SWAP1 POP PUSH1 0x1 DUP3 AND DUP1 PUSH2 0xF30 JUMPI PUSH1 0x7F DUP3 AND SWAP2 POP JUMPDEST PUSH1 0x20 DUP3 LT DUP2 EQ ISZERO PUSH2 0xF44 JUMPI PUSH2 0xF43 PUSH2 0xF4A JUMP JUMPDEST JUMPDEST POP SWAP2 SWAP1 POP JUMP JUMPDEST PUSH32 0x4E487B7100000000000000000000000000000000000000000000000000000000 PUSH1 0x0 MSTORE PUSH1 0x22 PUSH1 0x4 MSTORE PUSH1 0x24 PUSH1 0x0 REVERT JUMPDEST PUSH32 0x4E487B7100000000000000000000000000000000000000000000000000000000 PUSH1 0x0 MSTORE PUSH1 0x41 PUSH1 0x4 MSTORE PUSH1 0x24 PUSH1 0x0 REVERT JUMPDEST PUSH1 0x0 PUSH1 0x1F NOT PUSH1 0x1F DUP4 ADD AND SWAP1 POP SWAP2 SWAP1 POP JUMP JUMPDEST PUSH2 0xFC2 DUP2 PUSH2 0xE8E JUMP JUMPDEST DUP2 EQ PUSH2 0xFCD JUMPI PUSH1 0x0 DUP1 REVERT JUMPDEST POP JUMP JUMPDEST PUSH2 0xFD9 DUP2 PUSH2 0xECC JUMP JUMPDEST DUP2 EQ PUSH2 0xFE4 JUMPI PUSH1 0x0 DUP1 REVERT JUMPDEST POP JUMP INVALID LOG2 PUSH5 0x6970667358 0x22 SLT KECCAK256 PUSH12 0x157383F942AFFE3E24A9264F 0x29 TIMESTAMP EXTCODECOPY PUSH29 0xA830E2ABF8779F7F9237884E200BDA64736F6C63430008000033000000 "
	},
	"abi": [
		{
			"inputs": [
				{
					"internalType": "address",
					"name": "device",
					"type": "address"
				}
			],
			"name": "authorizeDevice",
			"outputs": [],
			"stateMutability": "nonpayable",
			"type": "function"
		},
		{
			"inputs": [
				{
					"internalType": "address",
					"name": "device",
					"type": "address"
				}
			],
			"name": "revokeDevice",
			"outputs": [],
			"stateMutability": "nonpayable",
			"type": "function"
		},
		{
			"inputs": [
				{
					"internalType": "string",
					"name": "deviceID",
					"type": "string"
				},
				{
					"internalType": "string",
					"name": "dataType",
					"type": "string"
				},
				{
					"internalType": "string",
					"name": "value",
					"type": "string"
				}
			],
			"name": "storeData",
			"outputs": [],
			"stateMutability": "nonpayable",
			"type": "function"
		},
		{
			"inputs": [],
			"stateMutability": "nonpayable",
			"type": "constructor"
		},
		{
			"inputs": [
				{
					"internalType": "address",
					"name": "",
					"type": "address"
				}
			],
			"name": "authorizedDevices",
			"outputs": [
				{
					"internalType": "bool",
					"name": "",
					"type": "bool"
				}
			],
			"stateMutability": "view",
			"type": "function"
		},
		{
			"inputs": [
				{
					"internalType": "string",
					"name": "deviceID",
					"type": "string"
				},
				{
					"internalType": "uint256",
					"name": "index",
					"type": "uint256"
				}
			],
			"name": "getDataByIndex",
			"outputs": [
				{
					"internalType": "string",
					"name": "",
					"type": "string"
				},
				{
					"internalType": "string",
					"name": "",
					"type": "string"
				},
				{
					"internalType": "uint256",
					"name": "",
					"type": "uint256"
				}
			],
			"stateMutability": "view",
			"type": "function"
		},
		{
			"inputs": [
				{
					"internalType": "string",
					"name": "deviceID",
					"type": "string"
				}
			],
			"name": "getDataCount",
			"outputs": [
				{
					"internalType": "uint256",
					"name": "",
					"type": "uint256"
				}
			],
			"stateMutability": "view",
			"type": "function"
		},
		{
			"inputs": [],
			"name": "owner",
			"outputs": [
				{
					"internalType": "address",
					"name": "",
					"type": "address"
				}
			],
			"stateMutability": "view",
			"type": "function"
		}
	],
	"storageLayout": {
		"storage": [
			{
				"astId": 10,
				"contract": "IotDataStorage.sol:IoTDataStorage",
				"label": "owner",
				"offset": 0,
				"slot": "0",
				"type": "t_address"
			},
			{
				"astId": 16,
				"contract": "IotDataStorage.sol:IoTDataStorage",
				"label": "deviceData",
				"offset": 0,
				"slot": "1",
				"type": "t_mapping(t_string_memory_ptr,t_array(t_struct(DataEntry)8_storage)dyn_storage)"
			},
			{
				"astId": 20,
				"contract": "IotDataStorage.sol:IoTDataStorage",
				"label": "authorizedDevices",
				"offset": 0,
				"slot": "2",
				"type": "t_mapping(t_address,t_bool)"
			}
		],
		"types": {
			"t_address": {
				"encoding": "inplace",
				"label": "address",
				"numberOfBytes": "20"
			},
			"t_array(t_struct(DataEntry)8_storage)dyn_storage": {
				"base": "t_struct(DataEntry)8_storage",
				"encoding": "dynamic_array",
				"label": "struct IoTDataStorage.DataEntry[]",
				"numberOfBytes": "32"
			},
			"t_bool": {
				"encoding": "inplace",
				"label": "bool",
				"numberOfBytes": "1"
			},
			"t_mapping(t_address,t_bool)": {
				"encoding": "mapping",
				"key": "t_address",
				"label": "mapping(address => bool)",
				"numberOfBytes": "32",
				"value": "t_bool"
			},
			"t_mapping(t_string_memory_ptr,t_array(t_struct(DataEntry)8_storage)dyn_storage)": {
				"encoding": "mapping",
				"key": "t_string_memory_ptr",
				"label": "mapping(string => struct IoTDataStorage.DataEntry[])",
				"numberOfBytes": "32",
				"value": "t_array(t_struct(DataEntry)8_storage)dyn_storage"
			},
			"t_string_memory_ptr": {
				"encoding": "bytes",
				"label": "string",
				"numberOfBytes": "32"
			},
			"t_string_storage": {
				"encoding": "bytes",
				"label": "string",
				"numberOfBytes": "32"
			},
			"t_struct(DataEntry)8_storage": {
				"encoding": "inplace",
				"label": "struct IoTDataStorage.DataEntry",
				"members": [
					{
						"astId": 3,
						"contract": "IotDataStorage.sol:IoTDataStorage",
						"label": "dataType",
						"offset": 0,
						"slot": "0",
						"type": "t_string_storage"
					},
					{
						"astId": 5,
						"contract": "IotDataStorage.sol:IoTDataStorage",
						"label": "value",
						"offset": 0,
						"slot": "1",
						"type": "t_string_storage"
					},
					{
						"astId": 7,
						"contract": "IotDataStorage.sol:IoTDataStorage",
						"label": "timestamp",
						"offset": 0,
						"slot": "2",
						"type": "t_uint256"
					}
				],
				"numberOfBytes": "96"
			},
			"t_uint256": {
				"encoding": "inplace",
				"label": "uint256",
				"numberOfBytes": "32"
			}
		}
	},
	"web3Deploy": "var iotdatastorageContract = new web3.eth.Contract([{\"inputs\":[],\"stateMutability\":\"nonpayable\",\"type\":\"constructor\"},{\"inputs\":[{\"internalType\":\"address\",\"name\":\"device\",\"type\":\"address\"}],\"name\":\"authorizeDevice\",\"outputs\":[],\"stateMutability\":\"nonpayable\",\"type\":\"function\"},{\"inputs\":[{\"internalType\":\"address\",\"name\":\"\",\"type\":\"address\"}],\"name\":\"authorizedDevices\",\"outputs\":[{\"internalType\":\"bool\",\"name\":\"\",\"type\":\"bool\"}],\"stateMutability\":\"view\",\"type\":\"function\"},{\"inputs\":[{\"internalType\":\"string\",\"name\":\"deviceID\",\"type\":\"string\"},{\"internalType\":\"uint256\",\"name\":\"index\",\"type\":\"uint256\"}],\"name\":\"getDataByIndex\",\"outputs\":[{\"internalType\":\"string\",\"name\":\"\",\"type\":\"string\"},{\"internalType\":\"string\",\"name\":\"\",\"type\":\"string\"},{\"internalType\":\"uint256\",\"name\":\"\",\"type\":\"uint256\"}],\"stateMutability\":\"view\",\"type\":\"function\"},{\"inputs\":[{\"internalType\":\"string\",\"name\":\"deviceID\",\"type\":\"string\"}],\"name\":\"getDataCount\",\"outputs\":[{\"internalType\":\"uint256\",\"name\":\"\",\"type\":\"uint256\"}],\"stateMutability\":\"view\",\"type\":\"function\"},{\"inputs\":[],\"name\":\"owner\",\"outputs\":[{\"internalType\":\"address\",\"name\":\"\",\"type\":\"address\"}],\"stateMutability\":\"view\",\"type\":\"function\"},{\"inputs\":[{\"internalType\":\"address\",\"name\":\"device\",\"type\":\"address\"}],\"name\":\"revokeDevice\",\"outputs\":[],\"stateMutability\":\"nonpayable\",\"type\":\"function\"},{\"inputs\":[{\"internalType\":\"string\",\"name\":\"deviceID\",\"type\":\"string\"},{\"internalType\":\"string\",\"name\":\"dataType\",\"type\":\"string\"},{\"internalType\":\"string\",\"name\":\"value\",\"type\":\"string\"}],\"name\":\"storeData\",\"outputs\":[],\"stateMutability\":\"nonpayable\",\"type\":\"function\"}]);\nvar iotdatastorage = iotdatastorageContract.deploy({\n     data: '0x608060405234801561001057600080fd5b50336000806101000a81548173ffffffffffffffffffffffffffffffffffffffff021916908373ffffffffffffffffffffffffffffffffffffffff16021790555061101d806100606000396000f3fe608060405234801561001057600080fd5b506004361061007d5760003560e01c80636fe3c2b21161005b5780636fe3c2b2146101145780638da5cb5b14610130578063933eb9ca1461014e578063d4001ef21461016a5761007d565b80631b11092d1461008257806323dfc578146100b257806330a76b38146100e4575b600080fd5b61009c6004803603810190610097919061092d565b610186565b6040516100a99190610ccb565b60405180910390f35b6100cc60048036038101906100c79190610a2e565b6101a6565b6040516100db93929190610ce6565b60405180910390f35b6100fe60048036038101906100f99190610956565b6103cc565b60405161010b9190610deb565b60405180910390f35b61012e6004803603810190610129919061092d565b6103f7565b005b6101386104e0565b6040516101459190610cb0565b60405180910390f35b6101686004803603810190610163919061092d565b610504565b005b610184600480360381019061017f9190610997565b6105ed565b005b60026020528060005260406000206000915054906101000a900460ff1681565b60608060006001856040516101bb9190610c99565b908152602001604051809103902080549050841061020e576040517f08c379a000000000000000000000000000000000000000000000000000000000815260040161020590610dcb565b60405180910390fd5b60006001866040516102209190610c99565b90815260200160405180910390208581548110610266577f4e487b7100000000000000000000000000000000000000000000000000000000600052603260045260246000fd5b906000526020600020906003020160405180606001604052908160008201805461028f90610f18565b80601f01602080910402602001604051908101604052809291908181526020018280546102bb90610f18565b80156103085780601f106102dd57610100808354040283529160200191610308565b820191906000526020600020905b8154815290600101906020018083116102eb57829003601f168201915b5050505050815260200160018201805461032190610f18565b80601f016020809104026020016040519081016040528092919081815260200182805461034d90610f18565b801561039a5780601f1061036f5761010080835404028352916020019161039a565b820191906000526020600020905b81548152906001019060200180831161037d57829003601f168201915b505050505081526020016002820154815250509050806000015181602001518260400151935093509350509250925092565b60006001826040516103de9190610c99565b9081526020016040518091039020805490509050919050565b60008054906101000a900473ffffffffffffffffffffffffffffffffffffffff1673ffffffffffffffffffffffffffffffffffffffff163373ffffffffffffffffffffffffffffffffffffffff1614610485576040517f08c379a000000000000000000000000000000000000000000000000000000000815260040161047c90610dab565b60405180910390fd5b6000600260008373ffffffffffffffffffffffffffffffffffffffff1673ffffffffffffffffffffffffffffffffffffffff16815260200190815260200160002060006101000a81548160ff02191690831515021790555050565b60008054906101000a900473ffffffffffffffffffffffffffffffffffffffff1681565b60008054906101000a900473ffffffffffffffffffffffffffffffffffffffff1673ffffffffffffffffffffffffffffffffffffffff163373ffffffffffffffffffffffffffffffffffffffff1614610592576040517f08c379a000000000000000000000000000000000000000000000000000000000815260040161058990610dab565b60405180910390fd5b6001600260008373ffffffffffffffffffffffffffffffffffffffff1673ffffffffffffffffffffffffffffffffffffffff16815260200190815260200160002060006101000a81548160ff02191690831515021790555050565b600260003373ffffffffffffffffffffffffffffffffffffffff1673ffffffffffffffffffffffffffffffffffffffff16815260200190815260200160002060009054906101000a900460ff16610679576040517f08c379a000000000000000000000000000000000000000000000000000000000815260040161067090610d2b565b60405180910390fd5b60008351116106bd576040517f08c379a00000000000000000000000000000000000000000000000000000000081526004016106b490610d8b565b60405180910390fd5b6000825111610701576040517f08c379a00000000000000000000000000000000000000000000000000000000081526004016106f890610d4b565b60405180910390fd5b6000815111610745576040517f08c379a000000000000000000000000000000000000000000000000000000000815260040161073c90610d6b565b60405180910390fd5b600060405180606001604052808481526020018381526020014281525090506001846040516107749190610c99565b908152602001604051809103902081908060018154018082558091505060019003906000526020600020906003020160009091909190915060008201518160000190805190602001906107c89291906107f8565b5060208201518160010190805190602001906107e59291906107f8565b5060408201518160020155505050505050565b82805461080490610f18565b90600052602060002090601f016020900481019282610826576000855561086d565b82601f1061083f57805160ff191683800117855561086d565b8280016001018555821561086d579182015b8281111561086c578251825591602001919060010190610851565b5b50905061087a919061087e565b5090565b5b8082111561089757600081600090555060010161087f565b5090565b60006108ae6108a984610e37565b610e06565b9050828152602081018484840111156108c657600080fd5b6108d1848285610ed6565b509392505050565b6000813590506108e881610fb9565b92915050565b600082601f8301126108ff57600080fd5b813561090f84826020860161089b565b91505092915050565b60008135905061092781610fd0565b92915050565b60006020828403121561093f57600080fd5b600061094d848285016108d9565b91505092915050565b60006020828403121561096857600080fd5b600082013567ffffffffffffffff81111561098257600080fd5b61098e848285016108ee565b91505092915050565b6000806000606084860312156109ac57600080fd5b600084013567ffffffffffffffff8111156109c657600080fd5b6109d2868287016108ee565b935050602084013567ffffffffffffffff8111156109ef57600080fd5b6109fb868287016108ee565b925050604084013567ffffffffffffffff811115610a1857600080fd5b610a24868287016108ee565b9150509250925092565b60008060408385031215610a4157600080fd5b600083013567ffffffffffffffff811115610a5b57600080fd5b610a67858286016108ee565b9250506020610a7885828601610918565b9150509250929050565b610a8b81610e8e565b82525050565b610a9a81610ea0565b82525050565b6000610aab82610e67565b610ab58185610e72565b9350610ac5818560208601610ee5565b610ace81610fa8565b840191505092915050565b6000610ae482610e67565b610aee8185610e83565b9350610afe818560208601610ee5565b80840191505092915050565b6000610b17600c83610e72565b91507f556e617574686f72697a656400000000000000000000000000000000000000006000830152602082019050919050565b6000610b57601083610e72565b91507f496e76616c6964206461746154797065000000000000000000000000000000006000830152602082019050919050565b6000610b97600d83610e72565b91507f496e76616c69642076616c7565000000000000000000000000000000000000006000830152602082019050919050565b6000610bd7601083610e72565b91507f496e76616c6964206465766963654944000000000000000000000000000000006000830152602082019050919050565b6000610c17601283610e72565b91507f4e6f7420636f6e7472616374206f776e657200000000000000000000000000006000830152602082019050919050565b6000610c57601383610e72565b91507f496e646578206f7574206f6620626f756e6473000000000000000000000000006000830152602082019050919050565b610c9381610ecc565b82525050565b6000610ca58284610ad9565b915081905092915050565b6000602082019050610cc56000830184610a82565b92915050565b6000602082019050610ce06000830184610a91565b92915050565b60006060820190508181036000830152610d008186610aa0565b90508181036020830152610d148185610aa0565b9050610d236040830184610c8a565b949350505050565b60006020820190508181036000830152610d4481610b0a565b9050919050565b60006020820190508181036000830152610d6481610b4a565b9050919050565b60006020820190508181036000830152610d8481610b8a565b9050919050565b60006020820190508181036000830152610da481610bca565b9050919050565b60006020820190508181036000830152610dc481610c0a565b9050919050565b60006020820190508181036000830152610de481610c4a565b9050919050565b6000602082019050610e006000830184610c8a565b92915050565b6000604051905081810181811067ffffffffffffffff82111715610e2d57610e2c610f79565b5b8060405250919050565b600067ffffffffffffffff821115610e5257610e51610f79565b5b601f19601f8301169050602081019050919050565b600081519050919050565b600082825260208201905092915050565b600081905092915050565b6000610e9982610eac565b9050919050565b60008115159050919050565b600073ffffffffffffffffffffffffffffffffffffffff82169050919050565b6000819050919050565b82818337600083830152505050565b60005b83811015610f03578082015181840152602081019050610ee8565b83811115610f12576000848401525b50505050565b60006002820490506001821680610f3057607f821691505b60208210811415610f4457610f43610f4a565b5b50919050565b7f4e487b7100000000000000000000000000000000000000000000000000000000600052602260045260246000fd5b7f4e487b7100000000000000000000000000000000000000000000000000000000600052604160045260246000fd5b6000601f19601f8301169050919050565b610fc281610e8e565b8114610fcd57600080fd5b50565b610fd981610ecc565b8114610fe457600080fd5b5056fea26469706673582212206b157383f942affe3e24a9264f29423c7ca830e2abf8779f7f9237884e200bda64736f6c63430008000033', \n     arguments: [\n     ]\n}).send({\n     from: web3.eth.accounts[0], \n     gas: '4700000'\n   }, function (e, contract){\n    console.log(e, contract);\n    if (typeof contract.address !== 'undefined') {\n         console.log('Contract mined! address: ' + contract.address + ' transactionHash: ' + contract.transactionHash);\n    }\n })",
	"functionHashes": {
		"933eb9ca": "authorizeDevice(address)",
		"1b11092d": "authorizedDevices(address)",
		"23dfc578": "getDataByIndex(string,uint256)",
		"30a76b38": "getDataCount(string)",
		"8da5cb5b": "owner()",
		"6fe3c2b2": "revokeDevice(address)",
		"d4001ef2": "storeData(string,string,string)"
	},
	"gasEstimates": {
		"Creation": {
			"codeDepositCost": "825000",
			"executionCost": "21723",
			"totalCost": "846723"
		},
		"External": {
			"authorizeDevice(address)": "22323",
			"authorizedDevices(address)": "1546",
			"getDataByIndex(string,uint256)": "infinite",
			"getDataCount(string)": "infinite",
			"owner()": "1233",
			"revokeDevice(address)": "22279",
			"storeData(string,string,string)": "infinite"
		}
	},
	"devdoc": {
		"kind": "dev",
		"methods": {},
		"version": 1
	},
	"userdoc": {
		"kind": "user",
		"methods": {},
		"version": 1
	},
	"Runtime Bytecode": {
		"immutableReferences": {},
		"linkReferences": {},
		"object": "608060405234801561001057600080fd5b506004361061007d5760003560e01c80636fe3c2b21161005b5780636fe3c2b2146101145780638da5cb5b14610130578063933eb9ca1461014e578063d4001ef21461016a5761007d565b80631b11092d1461008257806323dfc578146100b257806330a76b38146100e4575b600080fd5b61009c6004803603810190610097919061092d565b610186565b6040516100a99190610ccb565b60405180910390f35b6100cc60048036038101906100c79190610a2e565b6101a6565b6040516100db93929190610ce6565b60405180910390f35b6100fe60048036038101906100f99190610956565b6103cc565b60405161010b9190610deb565b60405180910390f35b61012e6004803603810190610129919061092d565b6103f7565b005b6101386104e0565b6040516101459190610cb0565b60405180910390f35b6101686004803603810190610163919061092d565b610504565b005b610184600480360381019061017f9190610997565b6105ed565b005b60026020528060005260406000206000915054906101000a900460ff1681565b60608060006001856040516101bb9190610c99565b908152602001604051809103902080549050841061020e576040517f08c379a000000000000000000000000000000000000000000000000000000000815260040161020590610dcb565b60405180910390fd5b60006001866040516102209190610c99565b90815260200160405180910390208581548110610266577f4e487b7100000000000000000000000000000000000000000000000000000000600052603260045260246000fd5b906000526020600020906003020160405180606001604052908160008201805461028f90610f18565b80601f01602080910402602001604051908101604052809291908181526020018280546102bb90610f18565b80156103085780601f106102dd57610100808354040283529160200191610308565b820191906000526020600020905b8154815290600101906020018083116102eb57829003601f168201915b5050505050815260200160018201805461032190610f18565b80601f016020809104026020016040519081016040528092919081815260200182805461034d90610f18565b801561039a5780601f1061036f5761010080835404028352916020019161039a565b820191906000526020600020905b81548152906001019060200180831161037d57829003601f168201915b505050505081526020016002820154815250509050806000015181602001518260400151935093509350509250925092565b60006001826040516103de9190610c99565b9081526020016040518091039020805490509050919050565b60008054906101000a900473ffffffffffffffffffffffffffffffffffffffff1673ffffffffffffffffffffffffffffffffffffffff163373ffffffffffffffffffffffffffffffffffffffff1614610485576040517f08c379a000000000000000000000000000000000000000000000000000000000815260040161047c90610dab565b60405180910390fd5b6000600260008373ffffffffffffffffffffffffffffffffffffffff1673ffffffffffffffffffffffffffffffffffffffff16815260200190815260200160002060006101000a81548160ff02191690831515021790555050565b60008054906101000a900473ffffffffffffffffffffffffffffffffffffffff1681565b60008054906101000a900473ffffffffffffffffffffffffffffffffffffffff1673ffffffffffffffffffffffffffffffffffffffff163373ffffffffffffffffffffffffffffffffffffffff1614610592576040517f08c379a000000000000000000000000000000000000000000000000000000000815260040161058990610dab565b60405180910390fd5b6001600260008373ffffffffffffffffffffffffffffffffffffffff1673ffffffffffffffffffffffffffffffffffffffff16815260200190815260200160002060006101000a81548160ff02191690831515021790555050565b600260003373ffffffffffffffffffffffffffffffffffffffff1673ffffffffffffffffffffffffffffffffffffffff16815260200190815260200160002060009054906101000a900460ff16610679576040517f08c379a000000000000000000000000000000000000000000000000000000000815260040161067090610d2b565b60405180910390fd5b60008351116106bd576040517f08c379a00000000000000000000000000000000000000000000000000000000081526004016106b490610d8b565b60405180910390fd5b6000825111610701576040517f08c379a00000000000000000000000000000000000000000000000000000000081526004016106f890610d4b565b60405180910390fd5b6000815111610745576040517f08c379a000000000000000000000000000000000000000000000000000000000815260040161073c90610d6b565b60405180910390fd5b600060405180606001604052808481526020018381526020014281525090506001846040516107749190610c99565b908152602001604051809103902081908060018154018082558091505060019003906000526020600020906003020160009091909190915060008201518160000190805190602001906107c89291906107f8565b5060208201518160010190805190602001906107e59291906107f8565b5060408201518160020155505050505050565b82805461080490610f18565b90600052602060002090601f016020900481019282610826576000855561086d565b82601f1061083f57805160ff191683800117855561086d565b8280016001018555821561086d579182015b8281111561086c578251825591602001919060010190610851565b5b50905061087a919061087e565b5090565b5b8082111561089757600081600090555060010161087f565b5090565b60006108ae6108a984610e37565b610e06565b9050828152602081018484840111156108c657600080fd5b6108d1848285610ed6565b509392505050565b6000813590506108e881610fb9565b92915050565b600082601f8301126108ff57600080fd5b813561090f84826020860161089b565b91505092915050565b60008135905061092781610fd0565b92915050565b60006020828403121561093f57600080fd5b600061094d848285016108d9565b91505092915050565b60006020828403121561096857600080fd5b600082013567ffffffffffffffff81111561098257600080fd5b61098e848285016108ee565b91505092915050565b6000806000606084860312156109ac57600080fd5b600084013567ffffffffffffffff8111156109c657600080fd5b6109d2868287016108ee565b935050602084013567ffffffffffffffff8111156109ef57600080fd5b6109fb868287016108ee565b925050604084013567ffffffffffffffff811115610a1857600080fd5b610a24868287016108ee565b9150509250925092565b60008060408385031215610a4157600080fd5b600083013567ffffffffffffffff811115610a5b57600080fd5b610a67858286016108ee565b9250506020610a7885828601610918565b9150509250929050565b610a8b81610e8e565b82525050565b610a9a81610ea0565b82525050565b6000610aab82610e67565b610ab58185610e72565b9350610ac5818560208601610ee5565b610ace81610fa8565b840191505092915050565b6000610ae482610e67565b610aee8185610e83565b9350610afe818560208601610ee5565b80840191505092915050565b6000610b17600c83610e72565b91507f556e617574686f72697a656400000000000000000000000000000000000000006000830152602082019050919050565b6000610b57601083610e72565b91507f496e76616c6964206461746154797065000000000000000000000000000000006000830152602082019050919050565b6000610b97600d83610e72565b91507f496e76616c69642076616c7565000000000000000000000000000000000000006000830152602082019050919050565b6000610bd7601083610e72565b91507f496e76616c6964206465766963654944000000000000000000000000000000006000830152602082019050919050565b6000610c17601283610e72565b91507f4e6f7420636f6e7472616374206f776e657200000000000000000000000000006000830152602082019050919050565b6000610c57601383610e72565b91507f496e646578206f7574206f6620626f756e6473000000000000000000000000006000830152602082019050919050565b610c9381610ecc565b82525050565b6000610ca58284610ad9565b915081905092915050565b6000602082019050610cc56000830184610a82565b92915050565b6000602082019050610ce06000830184610a91565b92915050565b60006060820190508181036000830152610d008186610aa0565b90508181036020830152610d148185610aa0565b9050610d236040830184610c8a565b949350505050565b60006020820190508181036000830152610d4481610b0a565b9050919050565b60006020820190508181036000830152610d6481610b4a565b9050919050565b60006020820190508181036000830152610d8481610b8a565b9050919050565b60006020820190508181036000830152610da481610bca565b9050919050565b60006020820190508181036000830152610dc481610c0a565b9050919050565b60006020820190508181036000830152610de481610c4a565b9050919050565b6000602082019050610e006000830184610c8a565b92915050565b6000604051905081810181811067ffffffffffffffff82111715610e2d57610e2c610f79565b5b8060405250919050565b600067ffffffffffffffff821115610e5257610e51610f79565b5b601f19601f8301169050602081019050919050565b600081519050919050565b600082825260208201905092915050565b600081905092915050565b6000610e9982610eac565b9050919050565b60008115159050919050565b600073ffffffffffffffffffffffffffffffffffffffff82169050919050565b6000819050919050565b82818337600083830152505050565b60005b83811015610f03578082015181840152602081019050610ee8565b83811115610f12576000848401525b50505050565b60006002820490506001821680610f3057607f821691505b60208210811415610f4457610f43610f4a565b5b50919050565b7f4e487b7100000000000000000000000000000000000000000000000000000000600052602260045260246000fd5b7f4e487b7100000000000000000000000000000000000000000000000000000000600052604160045260246000fd5b6000601f19601f8301169050919050565b610fc281610e8e565b8114610fcd57600080fd5b50565b610fd981610ecc565b8114610fe457600080fd5b5056fea26469706673582212206b157383f942affe3e24a9264f29423c7ca830e2abf8779f7f9237884e200bda64736f6c63430008000033",
		"opcodes": "PUSH1 0x80 PUSH1 0x40 MSTORE CALLVALUE DUP1 ISZERO PUSH2 0x10 JUMPI PUSH1 0x0 DUP1 REVERT JUMPDEST POP PUSH1 0x4 CALLDATASIZE LT PUSH2 0x7D JUMPI PUSH1 0x0 CALLDATALOAD PUSH1 0xE0 SHR DUP1 PUSH4 0x6FE3C2B2 GT PUSH2 0x5B JUMPI DUP1 PUSH4 0x6FE3C2B2 EQ PUSH2 0x114 JUMPI DUP1 PUSH4 0x8DA5CB5B EQ PUSH2 0x130 JUMPI DUP1 PUSH4 0x933EB9CA EQ PUSH2 0x14E JUMPI DUP1 PUSH4 0xD4001EF2 EQ PUSH2 0x16A JUMPI PUSH2 0x7D JUMP JUMPDEST DUP1 PUSH4 0x1B11092D EQ PUSH2 0x82 JUMPI DUP1 PUSH4 0x23DFC578 EQ PUSH2 0xB2 JUMPI DUP1 PUSH4 0x30A76B38 EQ PUSH2 0xE4 JUMPI JUMPDEST PUSH1 0x0 DUP1 REVERT JUMPDEST PUSH2 0x9C PUSH1 0x4 DUP1 CALLDATASIZE SUB DUP2 ADD SWAP1 PUSH2 0x97 SWAP2 SWAP1 PUSH2 0x92D JUMP JUMPDEST PUSH2 0x186 JUMP JUMPDEST PUSH1 0x40 MLOAD PUSH2 0xA9 SWAP2 SWAP1 PUSH2 0xCCB JUMP JUMPDEST PUSH1 0x40 MLOAD DUP1 SWAP2 SUB SWAP1 RETURN JUMPDEST PUSH2 0xCC PUSH1 0x4 DUP1 CALLDATASIZE SUB DUP2 ADD SWAP1 PUSH2 0xC7 SWAP2 SWAP1 PUSH2 0xA2E JUMP JUMPDEST PUSH2 0x1A6 JUMP JUMPDEST PUSH1 0x40 MLOAD PUSH2 0xDB SWAP4 SWAP3 SWAP2 SWAP1 PUSH2 0xCE6 JUMP JUMPDEST PUSH1 0x40 MLOAD DUP1 SWAP2 SUB SWAP1 RETURN JUMPDEST PUSH2 0xFE PUSH1 0x4 DUP1 CALLDATASIZE SUB DUP2 ADD SWAP1 PUSH2 0xF9 SWAP2 SWAP1 PUSH2 0x956 JUMP JUMPDEST PUSH2 0x3CC JUMP JUMPDEST PUSH1 0x40 MLOAD PUSH2 0x10B SWAP2 SWAP1 PUSH2 0xDEB JUMP JUMPDEST PUSH1 0x40 MLOAD DUP1 SWAP2 SUB SWAP1 RETURN JUMPDEST PUSH2 0x12E PUSH1 0x4 DUP1 CALLDATASIZE SUB DUP2 ADD SWAP1 PUSH2 0x129 SWAP2 SWAP1 PUSH2 0x92D JUMP JUMPDEST PUSH2 0x3F7 JUMP JUMPDEST STOP JUMPDEST PUSH2 0x138 PUSH2 0x4E0 JUMP JUMPDEST PUSH1 0x40 MLOAD PUSH2 0x145 SWAP2 SWAP1 PUSH2 0xCB0 JUMP JUMPDEST PUSH1 0x40 MLOAD DUP1 SWAP2 SUB SWAP1 RETURN JUMPDEST PUSH2 0x168 PUSH1 0x4 DUP1 CALLDATASIZE SUB DUP2 ADD SWAP1 PUSH2 0x163 SWAP2 SWAP1 PUSH2 0x92D JUMP JUMPDEST PUSH2 0x504 JUMP JUMPDEST STOP JUMPDEST PUSH2 0x184 PUSH1 0x4 DUP1 CALLDATASIZE SUB DUP2 ADD SWAP1 PUSH2 0x17F SWAP2 SWAP1 PUSH2 0x997 JUMP JUMPDEST PUSH2 0x5ED JUMP JUMPDEST STOP JUMPDEST PUSH1 0x2 PUSH1 0x20 MSTORE DUP1 PUSH1 0x0 MSTORE PUSH1 0x40 PUSH1 0x0 KECCAK256 PUSH1 0x0 SWAP2 POP SLOAD SWAP1 PUSH2 0x100 EXP SWAP1 DIV PUSH1 0xFF AND DUP2 JUMP JUMPDEST PUSH1 0x60 DUP1 PUSH1 0x0 PUSH1 0x1 DUP6 PUSH1 0x40 MLOAD PUSH2 0x1BB SWAP2 SWAP1 PUSH2 0xC99 JUMP JUMPDEST SWAP1 DUP2 MSTORE PUSH1 0x20 ADD PUSH1 0x40 MLOAD DUP1 SWAP2 SUB SWAP1 KECCAK256 DUP1 SLOAD SWAP1 POP DUP5 LT PUSH2 0x20E JUMPI PUSH1 0x40 MLOAD PUSH32 0x8C379A000000000000000000000000000000000000000000000000000000000 DUP2 MSTORE PUSH1 0x4 ADD PUSH2 0x205 SWAP1 PUSH2 0xDCB JUMP JUMPDEST PUSH1 0x40 MLOAD DUP1 SWAP2 SUB SWAP1 REVERT JUMPDEST PUSH1 0x0 PUSH1 0x1 DUP7 PUSH1 0x40 MLOAD PUSH2 0x220 SWAP2 SWAP1 PUSH2 0xC99 JUMP JUMPDEST SWAP1 DUP2 MSTORE PUSH1 0x20 ADD PUSH1 0x40 MLOAD DUP1 SWAP2 SUB SWAP1 KECCAK256 DUP6 DUP2 SLOAD DUP2 LT PUSH2 0x266 JUMPI PUSH32 0x4E487B7100000000000000000000000000000000000000000000000000000000 PUSH1 0x0 MSTORE PUSH1 0x32 PUSH1 0x4 MSTORE PUSH1 0x24 PUSH1 0x0 REVERT JUMPDEST SWAP1 PUSH1 0x0 MSTORE PUSH1 0x20 PUSH1 0x0 KECCAK256 SWAP1 PUSH1 0x3 MUL ADD PUSH1 0x40 MLOAD DUP1 PUSH1 0x60 ADD PUSH1 0x40 MSTORE SWAP1 DUP2 PUSH1 0x0 DUP3 ADD DUP1 SLOAD PUSH2 0x28F SWAP1 PUSH2 0xF18 JUMP JUMPDEST DUP1 PUSH1 0x1F ADD PUSH1 0x20 DUP1 SWAP2 DIV MUL PUSH1 0x20 ADD PUSH1 0x40 MLOAD SWAP1 DUP2 ADD PUSH1 0x40 MSTORE DUP1 SWAP3 SWAP2 SWAP1 DUP2 DUP2 MSTORE PUSH1 0x20 ADD DUP3 DUP1 SLOAD PUSH2 0x2BB SWAP1 PUSH2 0xF18 JUMP JUMPDEST DUP1 ISZERO PUSH2 0x308 JUMPI DUP1 PUSH1 0x1F LT PUSH2 0x2DD JUMPI PUSH2 0x100 DUP1 DUP4 SLOAD DIV MUL DUP4 MSTORE SWAP2 PUSH1 0x20 ADD SWAP2 PUSH2 0x308 JUMP JUMPDEST DUP3 ADD SWAP2 SWAP1 PUSH1 0x0 MSTORE PUSH1 0x20 PUSH1 0x0 KECCAK256 SWAP1 JUMPDEST DUP2 SLOAD DUP2 MSTORE SWAP1 PUSH1 0x1 ADD SWAP1 PUSH1 0x20 ADD DUP1 DUP4 GT PUSH2 0x2EB JUMPI DUP3 SWAP1 SUB PUSH1 0x1F AND DUP3 ADD SWAP2 JUMPDEST POP POP POP POP POP DUP2 MSTORE PUSH1 0x20 ADD PUSH1 0x1 DUP3 ADD DUP1 SLOAD PUSH2 0x321 SWAP1 PUSH2 0xF18 JUMP JUMPDEST DUP1 PUSH1 0x1F ADD PUSH1 0x20 DUP1 SWAP2 DIV MUL PUSH1 0x20 ADD PUSH1 0x40 MLOAD SWAP1 DUP2 ADD PUSH1 0x40 MSTORE DUP1 SWAP3 SWAP2 SWAP1 DUP2 DUP2 MSTORE PUSH1 0x20 ADD DUP3 DUP1 SLOAD PUSH2 0x34D SWAP1 PUSH2 0xF18 JUMP JUMPDEST DUP1 ISZERO PUSH2 0x39A JUMPI DUP1 PUSH1 0x1F LT PUSH2 0x36F JUMPI PUSH2 0x100 DUP1 DUP4 SLOAD DIV MUL DUP4 MSTORE SWAP2 PUSH1 0x20 ADD SWAP2 PUSH2 0x39A JUMP JUMPDEST DUP3 ADD SWAP2 SWAP1 PUSH1 0x0 MSTORE PUSH1 0x20 PUSH1 0x0 KECCAK256 SWAP1 JUMPDEST DUP2 SLOAD DUP2 MSTORE SWAP1 PUSH1 0x1 ADD SWAP1 PUSH1 0x20 ADD DUP1 DUP4 GT PUSH2 0x37D JUMPI DUP3 SWAP1 SUB PUSH1 0x1F AND DUP3 ADD SWAP2 JUMPDEST POP POP POP POP POP DUP2 MSTORE PUSH1 0x20 ADD PUSH1 0x2 DUP3 ADD SLOAD DUP2 MSTORE POP POP SWAP1 POP DUP1 PUSH1 0x0 ADD MLOAD DUP2 PUSH1 0x20 ADD MLOAD DUP3 PUSH1 0x40 ADD MLOAD SWAP4 POP SWAP4 POP SWAP4 POP POP SWAP3 POP SWAP3 POP SWAP3 JUMP JUMPDEST PUSH1 0x0 PUSH1 0x1 DUP3 PUSH1 0x40 MLOAD PUSH2 0x3DE SWAP2 SWAP1 PUSH2 0xC99 JUMP JUMPDEST SWAP1 DUP2 MSTORE PUSH1 0x20 ADD PUSH1 0x40 MLOAD DUP1 SWAP2 SUB SWAP1 KECCAK256 DUP1 SLOAD SWAP1 POP SWAP1 POP SWAP2 SWAP1 POP JUMP JUMPDEST PUSH1 0x0 DUP1 SLOAD SWAP1 PUSH2 0x100 EXP SWAP1 DIV PUSH20 0xFFFFFFFFFFFFFFFFFFFFFFFFFFFFFFFFFFFFFFFF AND PUSH20 0xFFFFFFFFFFFFFFFFFFFFFFFFFFFFFFFFFFFFFFFF AND CALLER PUSH20 0xFFFFFFFFFFFFFFFFFFFFFFFFFFFFFFFFFFFFFFFF AND EQ PUSH2 0x485 JUMPI PUSH1 0x40 MLOAD PUSH32 0x8C379A000000000000000000000000000000000000000000000000000000000 DUP2 MSTORE PUSH1 0x4 ADD PUSH2 0x47C SWAP1 PUSH2 0xDAB JUMP JUMPDEST PUSH1 0x40 MLOAD DUP1 SWAP2 SUB SWAP1 REVERT JUMPDEST PUSH1 0x0 PUSH1 0x2 PUSH1 0x0 DUP4 PUSH20 0xFFFFFFFFFFFFFFFFFFFFFFFFFFFFFFFFFFFFFFFF AND PUSH20 0xFFFFFFFFFFFFFFFFFFFFFFFFFFFFFFFFFFFFFFFF AND DUP2 MSTORE PUSH1 0x20 ADD SWAP1 DUP2 MSTORE PUSH1 0x20 ADD PUSH1 0x0 KECCAK256 PUSH1 0x0 PUSH2 0x100 EXP DUP2 SLOAD DUP2 PUSH1 0xFF MUL NOT AND SWAP1 DUP4 ISZERO ISZERO MUL OR SWAP1 SSTORE POP POP JUMP JUMPDEST PUSH1 0x0 DUP1 SLOAD SWAP1 PUSH2 0x100 EXP SWAP1 DIV PUSH20 0xFFFFFFFFFFFFFFFFFFFFFFFFFFFFFFFFFFFFFFFF AND DUP2 JUMP JUMPDEST PUSH1 0x0 DUP1 SLOAD SWAP1 PUSH2 0x100 EXP SWAP1 DIV PUSH20 0xFFFFFFFFFFFFFFFFFFFFFFFFFFFFFFFFFFFFFFFF AND PUSH20 0xFFFFFFFFFFFFFFFFFFFFFFFFFFFFFFFFFFFFFFFF AND CALLER PUSH20 0xFFFFFFFFFFFFFFFFFFFFFFFFFFFFFFFFFFFFFFFF AND EQ PUSH2 0x592 JUMPI PUSH1 0x40 MLOAD PUSH32 0x8C379A000000000000000000000000000000000000000000000000000000000 DUP2 MSTORE PUSH1 0x4 ADD PUSH2 0x589 SWAP1 PUSH2 0xDAB JUMP JUMPDEST PUSH1 0x40 MLOAD DUP1 SWAP2 SUB SWAP1 REVERT JUMPDEST PUSH1 0x1 PUSH1 0x2 PUSH1 0x0 DUP4 PUSH20 0xFFFFFFFFFFFFFFFFFFFFFFFFFFFFFFFFFFFFFFFF AND PUSH20 0xFFFFFFFFFFFFFFFFFFFFFFFFFFFFFFFFFFFFFFFF AND DUP2 MSTORE PUSH1 0x20 ADD SWAP1 DUP2 MSTORE PUSH1 0x20 ADD PUSH1 0x0 KECCAK256 PUSH1 0x0 PUSH2 0x100 EXP DUP2 SLOAD DUP2 PUSH1 0xFF MUL NOT AND SWAP1 DUP4 ISZERO ISZERO MUL OR SWAP1 SSTORE POP POP JUMP JUMPDEST PUSH1 0x2 PUSH1 0x0 CALLER PUSH20 0xFFFFFFFFFFFFFFFFFFFFFFFFFFFFFFFFFFFFFFFF AND PUSH20 0xFFFFFFFFFFFFFFFFFFFFFFFFFFFFFFFFFFFFFFFF AND DUP2 MSTORE PUSH1 0x20 ADD SWAP1 DUP2 MSTORE PUSH1 0x20 ADD PUSH1 0x0 KECCAK256 PUSH1 0x0 SWAP1 SLOAD SWAP1 PUSH2 0x100 EXP SWAP1 DIV PUSH1 0xFF AND PUSH2 0x679 JUMPI PUSH1 0x40 MLOAD PUSH32 0x8C379A000000000000000000000000000000000000000000000000000000000 DUP2 MSTORE PUSH1 0x4 ADD PUSH2 0x670 SWAP1 PUSH2 0xD2B JUMP JUMPDEST PUSH1 0x40 MLOAD DUP1 SWAP2 SUB SWAP1 REVERT JUMPDEST PUSH1 0x0 DUP4 MLOAD GT PUSH2 0x6BD JUMPI PUSH1 0x40 MLOAD PUSH32 0x8C379A000000000000000000000000000000000000000000000000000000000 DUP2 MSTORE PUSH1 0x4 ADD PUSH2 0x6B4 SWAP1 PUSH2 0xD8B JUMP JUMPDEST PUSH1 0x40 MLOAD DUP1 SWAP2 SUB SWAP1 REVERT JUMPDEST PUSH1 0x0 DUP3 MLOAD GT PUSH2 0x701 JUMPI PUSH1 0x40 MLOAD PUSH32 0x8C379A000000000000000000000000000000000000000000000000000000000 DUP2 MSTORE PUSH1 0x4 ADD PUSH2 0x6F8 SWAP1 PUSH2 0xD4B JUMP JUMPDEST PUSH1 0x40 MLOAD DUP1 SWAP2 SUB SWAP1 REVERT JUMPDEST PUSH1 0x0 DUP2 MLOAD GT PUSH2 0x745 JUMPI PUSH1 0x40 MLOAD PUSH32 0x8C379A000000000000000000000000000000000000000000000000000000000 DUP2 MSTORE PUSH1 0x4 ADD PUSH2 0x73C SWAP1 PUSH2 0xD6B JUMP JUMPDEST PUSH1 0x40 MLOAD DUP1 SWAP2 SUB SWAP1 REVERT JUMPDEST PUSH1 0x0 PUSH1 0x40 MLOAD DUP1 PUSH1 0x60 ADD PUSH1 0x40 MSTORE DUP1 DUP5 DUP2 MSTORE PUSH1 0x20 ADD DUP4 DUP2 MSTORE PUSH1 0x20 ADD TIMESTAMP DUP2 MSTORE POP SWAP1 POP PUSH1 0x1 DUP5 PUSH1 0x40 MLOAD PUSH2 0x774 SWAP2 SWAP1 PUSH2 0xC99 JUMP JUMPDEST SWAP1 DUP2 MSTORE PUSH1 0x20 ADD PUSH1 0x40 MLOAD DUP1 SWAP2 SUB SWAP1 KECCAK256 DUP2 SWAP1 DUP1 PUSH1 0x1 DUP2 SLOAD ADD DUP1 DUP3 SSTORE DUP1 SWAP2 POP POP PUSH1 0x1 SWAP1 SUB SWAP1 PUSH1 0x0 MSTORE PUSH1 0x20 PUSH1 0x0 KECCAK256 SWAP1 PUSH1 0x3 MUL ADD PUSH1 0x0 SWAP1 SWAP2 SWAP1 SWAP2 SWAP1 SWAP2 POP PUSH1 0x0 DUP3 ADD MLOAD DUP2 PUSH1 0x0 ADD SWAP1 DUP1 MLOAD SWAP1 PUSH1 0x20 ADD SWAP1 PUSH2 0x7C8 SWAP3 SWAP2 SWAP1 PUSH2 0x7F8 JUMP JUMPDEST POP PUSH1 0x20 DUP3 ADD MLOAD DUP2 PUSH1 0x1 ADD SWAP1 DUP1 MLOAD SWAP1 PUSH1 0x20 ADD SWAP1 PUSH2 0x7E5 SWAP3 SWAP2 SWAP1 PUSH2 0x7F8 JUMP JUMPDEST POP PUSH1 0x40 DUP3 ADD MLOAD DUP2 PUSH1 0x2 ADD SSTORE POP POP POP POP POP POP JUMP JUMPDEST DUP3 DUP1 SLOAD PUSH2 0x804 SWAP1 PUSH2 0xF18 JUMP JUMPDEST SWAP1 PUSH1 0x0 MSTORE PUSH1 0x20 PUSH1 0x0 KECCAK256 SWAP1 PUSH1 0x1F ADD PUSH1 0x20 SWAP1 DIV DUP2 ADD SWAP3 DUP3 PUSH2 0x826 JUMPI PUSH1 0x0 DUP6 SSTORE PUSH2 0x86D JUMP JUMPDEST DUP3 PUSH1 0x1F LT PUSH2 0x83F JUMPI DUP1 MLOAD PUSH1 0xFF NOT AND DUP4 DUP1 ADD OR DUP6 SSTORE PUSH2 0x86D JUMP JUMPDEST DUP3 DUP1 ADD PUSH1 0x1 ADD DUP6 SSTORE DUP3 ISZERO PUSH2 0x86D JUMPI SWAP2 DUP3 ADD JUMPDEST DUP3 DUP2 GT ISZERO PUSH2 0x86C JUMPI DUP3 MLOAD DUP3 SSTORE SWAP2 PUSH1 0x20 ADD SWAP2 SWAP1 PUSH1 0x1 ADD SWAP1 PUSH2 0x851 JUMP JUMPDEST JUMPDEST POP SWAP1 POP PUSH2 0x87A SWAP2 SWAP1 PUSH2 0x87E JUMP JUMPDEST POP SWAP1 JUMP JUMPDEST JUMPDEST DUP1 DUP3 GT ISZERO PUSH2 0x897 JUMPI PUSH1 0x0 DUP2 PUSH1 0x0 SWAP1 SSTORE POP PUSH1 0x1 ADD PUSH2 0x87F JUMP JUMPDEST POP SWAP1 JUMP JUMPDEST PUSH1 0x0 PUSH2 0x8AE PUSH2 0x8A9 DUP5 PUSH2 0xE37 JUMP JUMPDEST PUSH2 0xE06 JUMP JUMPDEST SWAP1 POP DUP3 DUP2 MSTORE PUSH1 0x20 DUP2 ADD DUP5 DUP5 DUP5 ADD GT ISZERO PUSH2 0x8C6 JUMPI PUSH1 0x0 DUP1 REVERT JUMPDEST PUSH2 0x8D1 DUP5 DUP3 DUP6 PUSH2 0xED6 JUMP JUMPDEST POP SWAP4 SWAP3 POP POP POP JUMP JUMPDEST PUSH1 0x0 DUP2 CALLDATALOAD SWAP1 POP PUSH2 0x8E8 DUP2 PUSH2 0xFB9 JUMP JUMPDEST SWAP3 SWAP2 POP POP JUMP JUMPDEST PUSH1 0x0 DUP3 PUSH1 0x1F DUP4 ADD SLT PUSH2 0x8FF JUMPI PUSH1 0x0 DUP1 REVERT JUMPDEST DUP2 CALLDATALOAD PUSH2 0x90F DUP5 DUP3 PUSH1 0x20 DUP7 ADD PUSH2 0x89B JUMP JUMPDEST SWAP2 POP POP SWAP3 SWAP2 POP POP JUMP JUMPDEST PUSH1 0x0 DUP2 CALLDATALOAD SWAP1 POP PUSH2 0x927 DUP2 PUSH2 0xFD0 JUMP JUMPDEST SWAP3 SWAP2 POP POP JUMP JUMPDEST PUSH1 0x0 PUSH1 0x20 DUP3 DUP5 SUB SLT ISZERO PUSH2 0x93F JUMPI PUSH1 0x0 DUP1 REVERT JUMPDEST PUSH1 0x0 PUSH2 0x94D DUP5 DUP3 DUP6 ADD PUSH2 0x8D9 JUMP JUMPDEST SWAP2 POP POP SWAP3 SWAP2 POP POP JUMP JUMPDEST PUSH1 0x0 PUSH1 0x20 DUP3 DUP5 SUB SLT ISZERO PUSH2 0x968 JUMPI PUSH1 0x0 DUP1 REVERT JUMPDEST PUSH1 0x0 DUP3 ADD CALLDATALOAD PUSH8 0xFFFFFFFFFFFFFFFF DUP2 GT ISZERO PUSH2 0x982 JUMPI PUSH1 0x0 DUP1 REVERT JUMPDEST PUSH2 0x98E DUP5 DUP3 DUP6 ADD PUSH2 0x8EE JUMP JUMPDEST SWAP2 POP POP SWAP3 SWAP2 POP POP JUMP JUMPDEST PUSH1 0x0 DUP1 PUSH1 0x0 PUSH1 0x60 DUP5 DUP7 SUB SLT ISZERO PUSH2 0x9AC JUMPI PUSH1 0x0 DUP1 REVERT JUMPDEST PUSH1 0x0 DUP5 ADD CALLDATALOAD PUSH8 0xFFFFFFFFFFFFFFFF DUP2 GT ISZERO PUSH2 0x9C6 JUMPI PUSH1 0x0 DUP1 REVERT JUMPDEST PUSH2 0x9D2 DUP7 DUP3 DUP8 ADD PUSH2 0x8EE JUMP JUMPDEST SWAP4 POP POP PUSH1 0x20 DUP5 ADD CALLDATALOAD PUSH8 0xFFFFFFFFFFFFFFFF DUP2 GT ISZERO PUSH2 0x9EF JUMPI PUSH1 0x0 DUP1 REVERT JUMPDEST PUSH2 0x9FB DUP7 DUP3 DUP8 ADD PUSH2 0x8EE JUMP JUMPDEST SWAP3 POP POP PUSH1 0x40 DUP5 ADD CALLDATALOAD PUSH8 0xFFFFFFFFFFFFFFFF DUP2 GT ISZERO PUSH2 0xA18 JUMPI PUSH1 0x0 DUP1 REVERT JUMPDEST PUSH2 0xA24 DUP7 DUP3 DUP8 ADD PUSH2 0x8EE JUMP JUMPDEST SWAP2 POP POP SWAP3 POP SWAP3 POP SWAP3 JUMP JUMPDEST PUSH1 0x0 DUP1 PUSH1 0x40 DUP4 DUP6 SUB SLT ISZERO PUSH2 0xA41 JUMPI PUSH1 0x0 DUP1 REVERT JUMPDEST PUSH1 0x0 DUP4 ADD CALLDATALOAD PUSH8 0xFFFFFFFFFFFFFFFF DUP2 GT ISZERO PUSH2 0xA5B JUMPI PUSH1 0x0 DUP1 REVERT JUMPDEST PUSH2 0xA67 DUP6 DUP3 DUP7 ADD PUSH2 0x8EE JUMP JUMPDEST SWAP3 POP POP PUSH1 0x20 PUSH2 0xA78 DUP6 DUP3 DUP7 ADD PUSH2 0x918 JUMP JUMPDEST SWAP2 POP POP SWAP3 POP SWAP3 SWAP1 POP JUMP JUMPDEST PUSH2 0xA8B DUP2 PUSH2 0xE8E JUMP JUMPDEST DUP3 MSTORE POP POP JUMP JUMPDEST PUSH2 0xA9A DUP2 PUSH2 0xEA0 JUMP JUMPDEST DUP3 MSTORE POP POP JUMP JUMPDEST PUSH1 0x0 PUSH2 0xAAB DUP3 PUSH2 0xE67 JUMP JUMPDEST PUSH2 0xAB5 DUP2 DUP6 PUSH2 0xE72 JUMP JUMPDEST SWAP4 POP PUSH2 0xAC5 DUP2 DUP6 PUSH1 0x20 DUP7 ADD PUSH2 0xEE5 JUMP JUMPDEST PUSH2 0xACE DUP2 PUSH2 0xFA8 JUMP JUMPDEST DUP5 ADD SWAP2 POP POP SWAP3 SWAP2 POP POP JUMP JUMPDEST PUSH1 0x0 PUSH2 0xAE4 DUP3 PUSH2 0xE67 JUMP JUMPDEST PUSH2 0xAEE DUP2 DUP6 PUSH2 0xE83 JUMP JUMPDEST SWAP4 POP PUSH2 0xAFE DUP2 DUP6 PUSH1 0x20 DUP7 ADD PUSH2 0xEE5 JUMP JUMPDEST DUP1 DUP5 ADD SWAP2 POP POP SWAP3 SWAP2 POP POP JUMP JUMPDEST PUSH1 0x0 PUSH2 0xB17 PUSH1 0xC DUP4 PUSH2 0xE72 JUMP JUMPDEST SWAP2 POP PUSH32 0x556E617574686F72697A65640000000000000000000000000000000000000000 PUSH1 0x0 DUP4 ADD MSTORE PUSH1 0x20 DUP3 ADD SWAP1 POP SWAP2 SWAP1 POP JUMP JUMPDEST PUSH1 0x0 PUSH2 0xB57 PUSH1 0x10 DUP4 PUSH2 0xE72 JUMP JUMPDEST SWAP2 POP PUSH32 0x496E76616C696420646174615479706500000000000000000000000000000000 PUSH1 0x0 DUP4 ADD MSTORE PUSH1 0x20 DUP3 ADD SWAP1 POP SWAP2 SWAP1 POP JUMP JUMPDEST PUSH1 0x0 PUSH2 0xB97 PUSH1 0xD DUP4 PUSH2 0xE72 JUMP JUMPDEST SWAP2 POP PUSH32 0x496E76616C69642076616C756500000000000000000000000000000000000000 PUSH1 0x0 DUP4 ADD MSTORE PUSH1 0x20 DUP3 ADD SWAP1 POP SWAP2 SWAP1 POP JUMP JUMPDEST PUSH1 0x0 PUSH2 0xBD7 PUSH1 0x10 DUP4 PUSH2 0xE72 JUMP JUMPDEST SWAP2 POP PUSH32 0x496E76616C696420646576696365494400000000000000000000000000000000 PUSH1 0x0 DUP4 ADD MSTORE PUSH1 0x20 DUP3 ADD SWAP1 POP SWAP2 SWAP1 POP JUMP JUMPDEST PUSH1 0x0 PUSH2 0xC17 PUSH1 0x12 DUP4 PUSH2 0xE72 JUMP JUMPDEST SWAP2 POP PUSH32 0x4E6F7420636F6E7472616374206F776E65720000000000000000000000000000 PUSH1 0x0 DUP4 ADD MSTORE PUSH1 0x20 DUP3 ADD SWAP1 POP SWAP2 SWAP1 POP JUMP JUMPDEST PUSH1 0x0 PUSH2 0xC57 PUSH1 0x13 DUP4 PUSH2 0xE72 JUMP JUMPDEST SWAP2 POP PUSH32 0x496E646578206F7574206F6620626F756E647300000000000000000000000000 PUSH1 0x0 DUP4 ADD MSTORE PUSH1 0x20 DUP3 ADD SWAP1 POP SWAP2 SWAP1 POP JUMP JUMPDEST PUSH2 0xC93 DUP2 PUSH2 0xECC JUMP JUMPDEST DUP3 MSTORE POP POP JUMP JUMPDEST PUSH1 0x0 PUSH2 0xCA5 DUP3 DUP5 PUSH2 0xAD9 JUMP JUMPDEST SWAP2 POP DUP2 SWAP1 POP SWAP3 SWAP2 POP POP JUMP JUMPDEST PUSH1 0x0 PUSH1 0x20 DUP3 ADD SWAP1 POP PUSH2 0xCC5 PUSH1 0x0 DUP4 ADD DUP5 PUSH2 0xA82 JUMP JUMPDEST SWAP3 SWAP2 POP POP JUMP JUMPDEST PUSH1 0x0 PUSH1 0x20 DUP3 ADD SWAP1 POP PUSH2 0xCE0 PUSH1 0x0 DUP4 ADD DUP5 PUSH2 0xA91 JUMP JUMPDEST SWAP3 SWAP2 POP POP JUMP JUMPDEST PUSH1 0x0 PUSH1 0x60 DUP3 ADD SWAP1 POP DUP2 DUP2 SUB PUSH1 0x0 DUP4 ADD MSTORE PUSH2 0xD00 DUP2 DUP7 PUSH2 0xAA0 JUMP JUMPDEST SWAP1 POP DUP2 DUP2 SUB PUSH1 0x20 DUP4 ADD MSTORE PUSH2 0xD14 DUP2 DUP6 PUSH2 0xAA0 JUMP JUMPDEST SWAP1 POP PUSH2 0xD23 PUSH1 0x40 DUP4 ADD DUP5 PUSH2 0xC8A JUMP JUMPDEST SWAP5 SWAP4 POP POP POP POP JUMP JUMPDEST PUSH1 0x0 PUSH1 0x20 DUP3 ADD SWAP1 POP DUP2 DUP2 SUB PUSH1 0x0 DUP4 ADD MSTORE PUSH2 0xD44 DUP2 PUSH2 0xB0A JUMP JUMPDEST SWAP1 POP SWAP2 SWAP1 POP JUMP JUMPDEST PUSH1 0x0 PUSH1 0x20 DUP3 ADD SWAP1 POP DUP2 DUP2 SUB PUSH1 0x0 DUP4 ADD MSTORE PUSH2 0xD64 DUP2 PUSH2 0xB4A JUMP JUMPDEST SWAP1 POP SWAP2 SWAP1 POP JUMP JUMPDEST PUSH1 0x0 PUSH1 0x20 DUP3 ADD SWAP1 POP DUP2 DUP2 SUB PUSH1 0x0 DUP4 ADD MSTORE PUSH2 0xD84 DUP2 PUSH2 0xB8A JUMP JUMPDEST SWAP1 POP SWAP2 SWAP1 POP JUMP JUMPDEST PUSH1 0x0 PUSH1 0x20 DUP3 ADD SWAP1 POP DUP2 DUP2 SUB PUSH1 0x0 DUP4 ADD MSTORE PUSH2 0xDA4 DUP2 PUSH2 0xBCA JUMP JUMPDEST SWAP1 POP SWAP2 SWAP1 POP JUMP JUMPDEST PUSH1 0x0 PUSH1 0x20 DUP3 ADD SWAP1 POP DUP2 DUP2 SUB PUSH1 0x0 DUP4 ADD MSTORE PUSH2 0xDC4 DUP2 PUSH2 0xC0A JUMP JUMPDEST SWAP1 POP SWAP2 SWAP1 POP JUMP JUMPDEST PUSH1 0x0 PUSH1 0x20 DUP3 ADD SWAP1 POP DUP2 DUP2 SUB PUSH1 0x0 DUP4 ADD MSTORE PUSH2 0xDE4 DUP2 PUSH2 0xC4A JUMP JUMPDEST SWAP1 POP SWAP2 SWAP1 POP JUMP JUMPDEST PUSH1 0x0 PUSH1 0x20 DUP3 ADD SWAP1 POP PUSH2 0xE00 PUSH1 0x0 DUP4 ADD DUP5 PUSH2 0xC8A JUMP JUMPDEST SWAP3 SWAP2 POP POP JUMP JUMPDEST PUSH1 0x0 PUSH1 0x40 MLOAD SWAP1 POP DUP2 DUP2 ADD DUP2 DUP2 LT PUSH8 0xFFFFFFFFFFFFFFFF DUP3 GT OR ISZERO PUSH2 0xE2D JUMPI PUSH2 0xE2C PUSH2 0xF79 JUMP JUMPDEST JUMPDEST DUP1 PUSH1 0x40 MSTORE POP SWAP2 SWAP1 POP JUMP JUMPDEST PUSH1 0x0 PUSH8 0xFFFFFFFFFFFFFFFF DUP3 GT ISZERO PUSH2 0xE52 JUMPI PUSH2 0xE51 PUSH2 0xF79 JUMP JUMPDEST JUMPDEST PUSH1 0x1F NOT PUSH1 0x1F DUP4 ADD AND SWAP1 POP PUSH1 0x20 DUP2 ADD SWAP1 POP SWAP2 SWAP1 POP JUMP JUMPDEST PUSH1 0x0 DUP2 MLOAD SWAP1 POP SWAP2 SWAP1 POP JUMP JUMPDEST PUSH1 0x0 DUP3 DUP3 MSTORE PUSH1 0x20 DUP3 ADD SWAP1 POP SWAP3 SWAP2 POP POP JUMP JUMPDEST PUSH1 0x0 DUP2 SWAP1 POP SWAP3 SWAP2 POP POP JUMP JUMPDEST PUSH1 0x0 PUSH2 0xE99 DUP3 PUSH2 0xEAC JUMP JUMPDEST SWAP1 POP SWAP2 SWAP1 POP JUMP JUMPDEST PUSH1 0x0 DUP2 ISZERO ISZERO SWAP1 POP SWAP2 SWAP1 POP JUMP JUMPDEST PUSH1 0x0 PUSH20 0xFFFFFFFFFFFFFFFFFFFFFFFFFFFFFFFFFFFFFFFF DUP3 AND SWAP1 POP SWAP2 SWAP1 POP JUMP JUMPDEST PUSH1 0x0 DUP2 SWAP1 POP SWAP2 SWAP1 POP JUMP JUMPDEST DUP3 DUP2 DUP4 CALLDATACOPY PUSH1 0x0 DUP4 DUP4 ADD MSTORE POP POP POP JUMP JUMPDEST PUSH1 0x0 JUMPDEST DUP4 DUP2 LT ISZERO PUSH2 0xF03 JUMPI DUP1 DUP3 ADD MLOAD DUP2 DUP5 ADD MSTORE PUSH1 0x20 DUP2 ADD SWAP1 POP PUSH2 0xEE8 JUMP JUMPDEST DUP4 DUP2 GT ISZERO PUSH2 0xF12 JUMPI PUSH1 0x0 DUP5 DUP5 ADD MSTORE JUMPDEST POP POP POP POP JUMP JUMPDEST PUSH1 0x0 PUSH1 0x2 DUP3 DIV SWAP1 POP PUSH1 0x1 DUP3 AND DUP1 PUSH2 0xF30 JUMPI PUSH1 0x7F DUP3 AND SWAP2 POP JUMPDEST PUSH1 0x20 DUP3 LT DUP2 EQ ISZERO PUSH2 0xF44 JUMPI PUSH2 0xF43 PUSH2 0xF4A JUMP JUMPDEST JUMPDEST POP SWAP2 SWAP1 POP JUMP JUMPDEST PUSH32 0x4E487B7100000000000000000000000000000000000000000000000000000000 PUSH1 0x0 MSTORE PUSH1 0x22 PUSH1 0x4 MSTORE PUSH1 0x24 PUSH1 0x0 REVERT JUMPDEST PUSH32 0x4E487B7100000000000000000000000000000000000000000000000000000000 PUSH1 0x0 MSTORE PUSH1 0x41 PUSH1 0x4 MSTORE PUSH1 0x24 PUSH1 0x0 REVERT JUMPDEST PUSH1 0x0 PUSH1 0x1F NOT PUSH1 0x1F DUP4 ADD AND SWAP1 POP SWAP2 SWAP1 POP JUMP JUMPDEST PUSH2 0xFC2 DUP2 PUSH2 0xE8E JUMP JUMPDEST DUP2 EQ PUSH2 0xFCD JUMPI PUSH1 0x0 DUP1 REVERT JUMPDEST POP JUMP JUMPDEST PUSH2 0xFD9 DUP2 PUSH2 0xECC JUMP JUMPDEST DUP2 EQ PUSH2 0xFE4 JUMPI PUSH1 0x0 DUP1 REVERT JUMPDEST POP JUMP INVALID LOG2 PUSH5 0x6970667358 0x22 SLT KECCAK256 PUSH12 0x157383F942AFFE3E24A9264F 0x29 TIMESTAMP EXTCODECOPY PUSH29 0xA830E2ABF8779F7F9237884E200BDA64736F6C63430008000033000000 "
	},
	"Assembly": ".code\n  PUSH 80\t\t\tcontract IoTDataStorage {\\r\\n ...\n  PUSH 40\t\t\tcontract IoTDataStorage {\\r\\n ...\n  MSTORE \t\t\tcontract IoTDataStorage {\\r\\n ...\n  CALLVALUE \t\t\tconstructor() {\\r\\n        own...\n  DUP1 \t\t\tconstructor() {\\r\\n        own...\n  ISZERO \t\t\tconstructor() {\\r\\n        own...\n  PUSH [tag] 1\t\t\tconstructor() {\\r\\n        own...\n  JUMPI \t\t\tconstructor() {\\r\\n        own...\n  PUSH 0\t\t\tconstructor() {\\r\\n        own...\n  DUP1 \t\t\tconstructor() {\\r\\n        own...\n  REVERT \t\t\tconstructor() {\\r\\n        own...\ntag 1\t\t\tconstructor() {\\r\\n        own...\n  JUMPDEST \t\t\tconstructor() {\\r\\n        own...\n  POP \t\t\tconstructor() {\\r\\n        own...\n  CALLER \t\t\tmsg.sender\n  PUSH 0\t\t\towner\n  DUP1 \t\t\towner\n  PUSH 100\t\t\towner = msg.sender\n  EXP \t\t\towner = msg.sender\n  DUP2 \t\t\towner = msg.sender\n  SLOAD \t\t\towner = msg.sender\n  DUP2 \t\t\towner = msg.sender\n  PUSH FFFFFFFFFFFFFFFFFFFFFFFFFFFFFFFFFFFFFFFF\t\t\towner = msg.sender\n  MUL \t\t\towner = msg.sender\n  NOT \t\t\towner = msg.sender\n  AND \t\t\towner = msg.sender\n  SWAP1 \t\t\towner = msg.sender\n  DUP4 \t\t\towner = msg.sender\n  PUSH FFFFFFFFFFFFFFFFFFFFFFFFFFFFFFFFFFFFFFFF\t\t\towner = msg.sender\n  AND \t\t\towner = msg.sender\n  MUL \t\t\towner = msg.sender\n  OR \t\t\towner = msg.sender\n  SWAP1 \t\t\towner = msg.sender\n  SSTORE \t\t\towner = msg.sender\n  POP \t\t\towner = msg.sender\n  PUSH #[$] 0000000000000000000000000000000000000000000000000000000000000000\t\t\tcontract IoTDataStorage {\\r\\n ...\n  DUP1 \t\t\tcontract IoTDataStorage {\\r\\n ...\n  PUSH [$] 0000000000000000000000000000000000000000000000000000000000000000\t\t\tcontract IoTDataStorage {\\r\\n ...\n  PUSH 0\t\t\tcontract IoTDataStorage {\\r\\n ...\n  CODECOPY \t\t\tcontract IoTDataStorage {\\r\\n ...\n  PUSH 0\t\t\tcontract IoTDataStorage {\\r\\n ...\n  RETURN \t\t\tcontract IoTDataStorage {\\r\\n ...\n.data\n  0:\n    .code\n      PUSH 80\t\t\tcontract IoTDataStorage {\\r\\n ...\n      PUSH 40\t\t\tcontract IoTDataStorage {\\r\\n ...\n      MSTORE \t\t\tcontract IoTDataStorage {\\r\\n ...\n      CALLVALUE \t\t\tcontract IoTDataStorage {\\r\\n ...\n      DUP1 \t\t\tcontract IoTDataStorage {\\r\\n ...\n      ISZERO \t\t\tcontract IoTDataStorage {\\r\\n ...\n      PUSH [tag] 1\t\t\tcontract IoTDataStorage {\\r\\n ...\n      JUMPI \t\t\tcontract IoTDataStorage {\\r\\n ...\n      PUSH 0\t\t\tcontract IoTDataStorage {\\r\\n ...\n      DUP1 \t\t\tcontract IoTDataStorage {\\r\\n ...\n      REVERT \t\t\tcontract IoTDataStorage {\\r\\n ...\n    tag 1\t\t\tcontract IoTDataStorage {\\r\\n ...\n      JUMPDEST \t\t\tcontract IoTDataStorage {\\r\\n ...\n      POP \t\t\tcontract IoTDataStorage {\\r\\n ...\n      PUSH 4\t\t\tcontract IoTDataStorage {\\r\\n ...\n      CALLDATASIZE \t\t\tcontract IoTDataStorage {\\r\\n ...\n      LT \t\t\tcontract IoTDataStorage {\\r\\n ...\n      PUSH [tag] 2\t\t\tcontract IoTDataStorage {\\r\\n ...\n      JUMPI \t\t\tcontract IoTDataStorage {\\r\\n ...\n      PUSH 0\t\t\tcontract IoTDataStorage {\\r\\n ...\n      CALLDATALOAD \t\t\tcontract IoTDataStorage {\\r\\n ...\n      PUSH E0\t\t\tcontract IoTDataStorage {\\r\\n ...\n      SHR \t\t\tcontract IoTDataStorage {\\r\\n ...\n      DUP1 \t\t\tcontract IoTDataStorage {\\r\\n ...\n      PUSH 6FE3C2B2\t\t\tcontract IoTDataStorage {\\r\\n ...\n      GT \t\t\tcontract IoTDataStorage {\\r\\n ...\n      PUSH [tag] 10\t\t\tcontract IoTDataStorage {\\r\\n ...\n      JUMPI \t\t\tcontract IoTDataStorage {\\r\\n ...\n      DUP1 \t\t\tcontract IoTDataStorage {\\r\\n ...\n      PUSH 6FE3C2B2\t\t\tcontract IoTDataStorage {\\r\\n ...\n      EQ \t\t\tcontract IoTDataStorage {\\r\\n ...\n      PUSH [tag] 6\t\t\tcontract IoTDataStorage {\\r\\n ...\n      JUMPI \t\t\tcontract IoTDataStorage {\\r\\n ...\n      DUP1 \t\t\tcontract IoTDataStorage {\\r\\n ...\n      PUSH 8DA5CB5B\t\t\tcontract IoTDataStorage {\\r\\n ...\n      EQ \t\t\tcontract IoTDataStorage {\\r\\n ...\n      PUSH [tag] 7\t\t\tcontract IoTDataStorage {\\r\\n ...\n      JUMPI \t\t\tcontract IoTDataStorage {\\r\\n ...\n      DUP1 \t\t\tcontract IoTDataStorage {\\r\\n ...\n      PUSH 933EB9CA\t\t\tcontract IoTDataStorage {\\r\\n ...\n      EQ \t\t\tcontract IoTDataStorage {\\r\\n ...\n      PUSH [tag] 8\t\t\tcontract IoTDataStorage {\\r\\n ...\n      JUMPI \t\t\tcontract IoTDataStorage {\\r\\n ...\n      DUP1 \t\t\tcontract IoTDataStorage {\\r\\n ...\n      PUSH D4001EF2\t\t\tcontract IoTDataStorage {\\r\\n ...\n      EQ \t\t\tcontract IoTDataStorage {\\r\\n ...\n      PUSH [tag] 9\t\t\tcontract IoTDataStorage {\\r\\n ...\n      JUMPI \t\t\tcontract IoTDataStorage {\\r\\n ...\n      PUSH [tag] 2\t\t\tcontract IoTDataStorage {\\r\\n ...\n      JUMP \t\t\tcontract IoTDataStorage {\\r\\n ...\n    tag 10\t\t\tcontract IoTDataStorage {\\r\\n ...\n      JUMPDEST \t\t\tcontract IoTDataStorage {\\r\\n ...\n      DUP1 \t\t\tcontract IoTDataStorage {\\r\\n ...\n      PUSH 1B11092D\t\t\tcontract IoTDataStorage {\\r\\n ...\n      EQ \t\t\tcontract IoTDataStorage {\\r\\n ...\n      PUSH [tag] 3\t\t\tcontract IoTDataStorage {\\r\\n ...\n      JUMPI \t\t\tcontract IoTDataStorage {\\r\\n ...\n      DUP1 \t\t\tcontract IoTDataStorage {\\r\\n ...\n      PUSH 23DFC578\t\t\tcontract IoTDataStorage {\\r\\n ...\n      EQ \t\t\tcontract IoTDataStorage {\\r\\n ...\n      PUSH [tag] 4\t\t\tcontract IoTDataStorage {\\r\\n ...\n      JUMPI \t\t\tcontract IoTDataStorage {\\r\\n ...\n      DUP1 \t\t\tcontract IoTDataStorage {\\r\\n ...\n      PUSH 30A76B38\t\t\tcontract IoTDataStorage {\\r\\n ...\n      EQ \t\t\tcontract IoTDataStorage {\\r\\n ...\n      PUSH [tag] 5\t\t\tcontract IoTDataStorage {\\r\\n ...\n      JUMPI \t\t\tcontract IoTDataStorage {\\r\\n ...\n    tag 2\t\t\tcontract IoTDataStorage {\\r\\n ...\n      JUMPDEST \t\t\tcontract IoTDataStorage {\\r\\n ...\n      PUSH 0\t\t\tcontract IoTDataStorage {\\r\\n ...\n      DUP1 \t\t\tcontract IoTDataStorage {\\r\\n ...\n      REVERT \t\t\tcontract IoTDataStorage {\\r\\n ...\n    tag 3\t\t\tmapping(address => bool) publi...\n      JUMPDEST \t\t\tmapping(address => bool) publi...\n      PUSH [tag] 11\t\t\tmapping(address => bool) publi...\n      PUSH 4\t\t\tmapping(address => bool) publi...\n      DUP1 \t\t\tmapping(address => bool) publi...\n      CALLDATASIZE \t\t\tmapping(address => bool) publi...\n      SUB \t\t\tmapping(address => bool) publi...\n      DUP2 \t\t\tmapping(address => bool) publi...\n      ADD \t\t\tmapping(address => bool) publi...\n      SWAP1 \t\t\tmapping(address => bool) publi...\n      PUSH [tag] 12\t\t\tmapping(address => bool) publi...\n      SWAP2 \t\t\tmapping(address => bool) publi...\n      SWAP1 \t\t\tmapping(address => bool) publi...\n      PUSH [tag] 13\t\t\tmapping(address => bool) publi...\n      JUMP [in]\t\t\tmapping(address => bool) publi...\n    tag 12\t\t\tmapping(address => bool) publi...\n      JUMPDEST \t\t\tmapping(address => bool) publi...\n      PUSH [tag] 14\t\t\tmapping(address => bool) publi...\n      JUMP [in]\t\t\tmapping(address => bool) publi...\n    tag 11\t\t\tmapping(address => bool) publi...\n      JUMPDEST \t\t\tmapping(address => bool) publi...\n      PUSH 40\t\t\tmapping(address => bool) publi...\n      MLOAD \t\t\tmapping(address => bool) publi...\n      PUSH [tag] 15\t\t\tmapping(address => bool) publi...\n      SWAP2 \t\t\tmapping(address => bool) publi...\n      SWAP1 \t\t\tmapping(address => bool) publi...\n      PUSH [tag] 16\t\t\tmapping(address => bool) publi...\n      JUMP [in]\t\t\tmapping(address => bool) publi...\n    tag 15\t\t\tmapping(address => bool) publi...\n      JUMPDEST \t\t\tmapping(address => bool) publi...\n      PUSH 40\t\t\tmapping(address => bool) publi...\n      MLOAD \t\t\tmapping(address => bool) publi...\n      DUP1 \t\t\tmapping(address => bool) publi...\n      SWAP2 \t\t\tmapping(address => bool) publi...\n      SUB \t\t\tmapping(address => bool) publi...\n      SWAP1 \t\t\tmapping(address => bool) publi...\n      RETURN \t\t\tmapping(address => bool) publi...\n    tag 4\t\t\tfunction getDataByIndex(string...\n      JUMPDEST \t\t\tfunction getDataByIndex(string...\n      PUSH [tag] 17\t\t\tfunction getDataByIndex(string...\n      PUSH 4\t\t\tfunction getDataByIndex(string...\n      DUP1 \t\t\tfunction getDataByIndex(string...\n      CALLDATASIZE \t\t\tfunction getDataByIndex(string...\n      SUB \t\t\tfunction getDataByIndex(string...\n      DUP2 \t\t\tfunction getDataByIndex(string...\n      ADD \t\t\tfunction getDataByIndex(string...\n      SWAP1 \t\t\tfunction getDataByIndex(string...\n      PUSH [tag] 18\t\t\tfunction getDataByIndex(string...\n      SWAP2 \t\t\tfunction getDataByIndex(string...\n      SWAP1 \t\t\tfunction getDataByIndex(string...\n      PUSH [tag] 19\t\t\tfunction getDataByIndex(string...\n      JUMP [in]\t\t\tfunction getDataByIndex(string...\n    tag 18\t\t\tfunction getDataByIndex(string...\n      JUMPDEST \t\t\tfunction getDataByIndex(string...\n      PUSH [tag] 20\t\t\tfunction getDataByIndex(string...\n      JUMP [in]\t\t\tfunction getDataByIndex(string...\n    tag 17\t\t\tfunction getDataByIndex(string...\n      JUMPDEST \t\t\tfunction getDataByIndex(string...\n      PUSH 40\t\t\tfunction getDataByIndex(string...\n      MLOAD \t\t\tfunction getDataByIndex(string...\n      PUSH [tag] 21\t\t\tfunction getDataByIndex(string...\n      SWAP4 \t\t\tfunction getDataByIndex(string...\n      SWAP3 \t\t\tfunction getDataByIndex(string...\n      SWAP2 \t\t\tfunction getDataByIndex(string...\n      SWAP1 \t\t\tfunction getDataByIndex(string...\n      PUSH [tag] 22\t\t\tfunction getDataByIndex(string...\n      JUMP [in]\t\t\tfunction getDataByIndex(string...\n    tag 21\t\t\tfunction getDataByIndex(string...\n      JUMPDEST \t\t\tfunction getDataByIndex(string...\n      PUSH 40\t\t\tfunction getDataByIndex(string...\n      MLOAD \t\t\tfunction getDataByIndex(string...\n      DUP1 \t\t\tfunction getDataByIndex(string...\n      SWAP2 \t\t\tfunction getDataByIndex(string...\n      SUB \t\t\tfunction getDataByIndex(string...\n      SWAP1 \t\t\tfunction getDataByIndex(string...\n      RETURN \t\t\tfunction getDataByIndex(string...\n    tag 5\t\t\tfunction getDataCount(string m...\n      JUMPDEST \t\t\tfunction getDataCount(string m...\n      PUSH [tag] 23\t\t\tfunction getDataCount(string m...\n      PUSH 4\t\t\tfunction getDataCount(string m...\n      DUP1 \t\t\tfunction getDataCount(string m...\n      CALLDATASIZE \t\t\tfunction getDataCount(string m...\n      SUB \t\t\tfunction getDataCount(string m...\n      DUP2 \t\t\tfunction getDataCount(string m...\n      ADD \t\t\tfunction getDataCount(string m...\n      SWAP1 \t\t\tfunction getDataCount(string m...\n      PUSH [tag] 24\t\t\tfunction getDataCount(string m...\n      SWAP2 \t\t\tfunction getDataCount(string m...\n      SWAP1 \t\t\tfunction getDataCount(string m...\n      PUSH [tag] 25\t\t\tfunction getDataCount(string m...\n      JUMP [in]\t\t\tfunction getDataCount(string m...\n    tag 24\t\t\tfunction getDataCount(string m...\n      JUMPDEST \t\t\tfunction getDataCount(string m...\n      PUSH [tag] 26\t\t\tfunction getDataCount(string m...\n      JUMP [in]\t\t\tfunction getDataCount(string m...\n    tag 23\t\t\tfunction getDataCount(string m...\n      JUMPDEST \t\t\tfunction getDataCount(string m...\n      PUSH 40\t\t\tfunction getDataCount(string m...\n      MLOAD \t\t\tfunction getDataCount(string m...\n      PUSH [tag] 27\t\t\tfunction getDataCount(string m...\n      SWAP2 \t\t\tfunction getDataCount(string m...\n      SWAP1 \t\t\tfunction getDataCount(string m...\n      PUSH [tag] 28\t\t\tfunction getDataCount(string m...\n      JUMP [in]\t\t\tfunction getDataCount(string m...\n    tag 27\t\t\tfunction getDataCount(string m...\n      JUMPDEST \t\t\tfunction getDataCount(string m...\n      PUSH 40\t\t\tfunction getDataCount(string m...\n      MLOAD \t\t\tfunction getDataCount(string m...\n      DUP1 \t\t\tfunction getDataCount(string m...\n      SWAP2 \t\t\tfunction getDataCount(string m...\n      SUB \t\t\tfunction getDataCount(string m...\n      SWAP1 \t\t\tfunction getDataCount(string m...\n      RETURN \t\t\tfunction getDataCount(string m...\n    tag 6\t\t\tfunction revokeDevice(address ...\n      JUMPDEST \t\t\tfunction revokeDevice(address ...\n      PUSH [tag] 29\t\t\tfunction revokeDevice(address ...\n      PUSH 4\t\t\tfunction revokeDevice(address ...\n      DUP1 \t\t\tfunction revokeDevice(address ...\n      CALLDATASIZE \t\t\tfunction revokeDevice(address ...\n      SUB \t\t\tfunction revokeDevice(address ...\n      DUP2 \t\t\tfunction revokeDevice(address ...\n      ADD \t\t\tfunction revokeDevice(address ...\n      SWAP1 \t\t\tfunction revokeDevice(address ...\n      PUSH [tag] 30\t\t\tfunction revokeDevice(address ...\n      SWAP2 \t\t\tfunction revokeDevice(address ...\n      SWAP1 \t\t\tfunction revokeDevice(address ...\n      PUSH [tag] 13\t\t\tfunction revokeDevice(address ...\n      JUMP [in]\t\t\tfunction revokeDevice(address ...\n    tag 30\t\t\tfunction revokeDevice(address ...\n      JUMPDEST \t\t\tfunction revokeDevice(address ...\n      PUSH [tag] 31\t\t\tfunction revokeDevice(address ...\n      JUMP [in]\t\t\tfunction revokeDevice(address ...\n    tag 29\t\t\tfunction revokeDevice(address ...\n      JUMPDEST \t\t\tfunction revokeDevice(address ...\n      STOP \t\t\tfunction revokeDevice(address ...\n    tag 7\t\t\taddress public owner\n      JUMPDEST \t\t\taddress public owner\n      PUSH [tag] 32\t\t\taddress public owner\n      PUSH [tag] 33\t\t\taddress public owner\n      JUMP [in]\t\t\taddress public owner\n    tag 32\t\t\taddress public owner\n      JUMPDEST \t\t\taddress public owner\n      PUSH 40\t\t\taddress public owner\n      MLOAD \t\t\taddress public owner\n      PUSH [tag] 34\t\t\taddress public owner\n      SWAP2 \t\t\taddress public owner\n      SWAP1 \t\t\taddress public owner\n      PUSH [tag] 35\t\t\taddress public owner\n      JUMP [in]\t\t\taddress public owner\n    tag 34\t\t\taddress public owner\n      JUMPDEST \t\t\taddress public owner\n      PUSH 40\t\t\taddress public owner\n      MLOAD \t\t\taddress public owner\n      DUP1 \t\t\taddress public owner\n      SWAP2 \t\t\taddress public owner\n      SUB \t\t\taddress public owner\n      SWAP1 \t\t\taddress public owner\n      RETURN \t\t\taddress public owner\n    tag 8\t\t\tfunction authorizeDevice(addre...\n      JUMPDEST \t\t\tfunction authorizeDevice(addre...\n      PUSH [tag] 36\t\t\tfunction authorizeDevice(addre...\n      PUSH 4\t\t\tfunction authorizeDevice(addre...\n      DUP1 \t\t\tfunction authorizeDevice(addre...\n      CALLDATASIZE \t\t\tfunction authorizeDevice(addre...\n      SUB \t\t\tfunction authorizeDevice(addre...\n      DUP2 \t\t\tfunction authorizeDevice(addre...\n      ADD \t\t\tfunction authorizeDevice(addre...\n      SWAP1 \t\t\tfunction authorizeDevice(addre...\n      PUSH [tag] 37\t\t\tfunction authorizeDevice(addre...\n      SWAP2 \t\t\tfunction authorizeDevice(addre...\n      SWAP1 \t\t\tfunction authorizeDevice(addre...\n      PUSH [tag] 13\t\t\tfunction authorizeDevice(addre...\n      JUMP [in]\t\t\tfunction authorizeDevice(addre...\n    tag 37\t\t\tfunction authorizeDevice(addre...\n      JUMPDEST \t\t\tfunction authorizeDevice(addre...\n      PUSH [tag] 38\t\t\tfunction authorizeDevice(addre...\n      JUMP [in]\t\t\tfunction authorizeDevice(addre...\n    tag 36\t\t\tfunction authorizeDevice(addre...\n      JUMPDEST \t\t\tfunction authorizeDevice(addre...\n      STOP \t\t\tfunction authorizeDevice(addre...\n    tag 9\t\t\tfunction storeData(string memo...\n      JUMPDEST \t\t\tfunction storeData(string memo...\n      PUSH [tag] 39\t\t\tfunction storeData(string memo...\n      PUSH 4\t\t\tfunction storeData(string memo...\n      DUP1 \t\t\tfunction storeData(string memo...\n      CALLDATASIZE \t\t\tfunction storeData(string memo...\n      SUB \t\t\tfunction storeData(string memo...\n      DUP2 \t\t\tfunction storeData(string memo...\n      ADD \t\t\tfunction storeData(string memo...\n      SWAP1 \t\t\tfunction storeData(string memo...\n      PUSH [tag] 40\t\t\tfunction storeData(string memo...\n      SWAP2 \t\t\tfunction storeData(string memo...\n      SWAP1 \t\t\tfunction storeData(string memo...\n      PUSH [tag] 41\t\t\tfunction storeData(string memo...\n      JUMP [in]\t\t\tfunction storeData(string memo...\n    tag 40\t\t\tfunction storeData(string memo...\n      JUMPDEST \t\t\tfunction storeData(string memo...\n      PUSH [tag] 42\t\t\tfunction storeData(string memo...\n      JUMP [in]\t\t\tfunction storeData(string memo...\n    tag 39\t\t\tfunction storeData(string memo...\n      JUMPDEST \t\t\tfunction storeData(string memo...\n      STOP \t\t\tfunction storeData(string memo...\n    tag 14\t\t\tmapping(address => bool) publi...\n      JUMPDEST \t\t\tmapping(address => bool) publi...\n      PUSH 2\t\t\tmapping(address => bool) publi...\n      PUSH 20\t\t\tmapping(address => bool) publi...\n      MSTORE \t\t\tmapping(address => bool) publi...\n      DUP1 \t\t\tmapping(address => bool) publi...\n      PUSH 0\t\t\tmapping(address => bool) publi...\n      MSTORE \t\t\tmapping(address => bool) publi...\n      PUSH 40\t\t\tmapping(address => bool) publi...\n      PUSH 0\t\t\tmapping(address => bool) publi...\n      KECCAK256 \t\t\tmapping(address => bool) publi...\n      PUSH 0\t\t\tmapping(address => bool) publi...\n      SWAP2 \t\t\tmapping(address => bool) publi...\n      POP \t\t\tmapping(address => bool) publi...\n      SLOAD \t\t\tmapping(address => bool) publi...\n      SWAP1 \t\t\tmapping(address => bool) publi...\n      PUSH 100\t\t\tmapping(address => bool) publi...\n      EXP \t\t\tmapping(address => bool) publi...\n      SWAP1 \t\t\tmapping(address => bool) publi...\n      DIV \t\t\tmapping(address => bool) publi...\n      PUSH FF\t\t\tmapping(address => bool) publi...\n      AND \t\t\tmapping(address => bool) publi...\n      DUP2 \t\t\tmapping(address => bool) publi...\n      JUMP [out]\t\t\tmapping(address => bool) publi...\n    tag 20\t\t\tfunction getDataByIndex(string...\n      JUMPDEST \t\t\tfunction getDataByIndex(string...\n      PUSH 60\t\t\tstring memory\n      DUP1 \t\t\tstring memory\n      PUSH 0\t\t\tuint256\n      PUSH 1\t\t\tdeviceData\n      DUP6 \t\t\tdeviceID\n      PUSH 40\t\t\tdeviceData[deviceID]\n      MLOAD \t\t\tdeviceData[deviceID]\n      PUSH [tag] 44\t\t\tdeviceData[deviceID]\n      SWAP2 \t\t\tdeviceData[deviceID]\n      SWAP1 \t\t\tdeviceData[deviceID]\n      PUSH [tag] 45\t\t\tdeviceData[deviceID]\n      JUMP [in]\t\t\tdeviceData[deviceID]\n    tag 44\t\t\tdeviceData[deviceID]\n      JUMPDEST \t\t\tdeviceData[deviceID]\n      SWAP1 \t\t\tdeviceData[deviceID]\n      DUP2 \t\t\tdeviceData[deviceID]\n      MSTORE \t\t\tdeviceData[deviceID]\n      PUSH 20\t\t\tdeviceData[deviceID]\n      ADD \t\t\tdeviceData[deviceID]\n      PUSH 40\t\t\tdeviceData[deviceID]\n      MLOAD \t\t\tdeviceData[deviceID]\n      DUP1 \t\t\tdeviceData[deviceID]\n      SWAP2 \t\t\tdeviceData[deviceID]\n      SUB \t\t\tdeviceData[deviceID]\n      SWAP1 \t\t\tdeviceData[deviceID]\n      KECCAK256 \t\t\tdeviceData[deviceID]\n      DUP1 \t\t\tdeviceData[deviceID].length\n      SLOAD \t\t\tdeviceData[deviceID].length\n      SWAP1 \t\t\tdeviceData[deviceID].length\n      POP \t\t\tdeviceData[deviceID].length\n      DUP5 \t\t\tindex\n      LT \t\t\tindex < deviceData[deviceID].l...\n      PUSH [tag] 46\t\t\trequire(index < deviceData[dev...\n      JUMPI \t\t\trequire(index < deviceData[dev...\n      PUSH 40\t\t\trequire(index < deviceData[dev...\n      MLOAD \t\t\trequire(index < deviceData[dev...\n      PUSH 8C379A000000000000000000000000000000000000000000000000000000000\t\t\trequire(index < deviceData[dev...\n      DUP2 \t\t\trequire(index < deviceData[dev...\n      MSTORE \t\t\trequire(index < deviceData[dev...\n      PUSH 4\t\t\trequire(index < deviceData[dev...\n      ADD \t\t\trequire(index < deviceData[dev...\n      PUSH [tag] 47\t\t\trequire(index < deviceData[dev...\n      SWAP1 \t\t\trequire(index < deviceData[dev...\n      PUSH [tag] 48\t\t\trequire(index < deviceData[dev...\n      JUMP [in]\t\t\trequire(index < deviceData[dev...\n    tag 47\t\t\trequire(index < deviceData[dev...\n      JUMPDEST \t\t\trequire(index < deviceData[dev...\n      PUSH 40\t\t\trequire(index < deviceData[dev...\n      MLOAD \t\t\trequire(index < deviceData[dev...\n      DUP1 \t\t\trequire(index < deviceData[dev...\n      SWAP2 \t\t\trequire(index < deviceData[dev...\n      SUB \t\t\trequire(index < deviceData[dev...\n      SWAP1 \t\t\trequire(index < deviceData[dev...\n      REVERT \t\t\trequire(index < deviceData[dev...\n    tag 46\t\t\trequire(index < deviceData[dev...\n      JUMPDEST \t\t\trequire(index < deviceData[dev...\n      PUSH 0\t\t\tDataEntry memory entry\n      PUSH 1\t\t\tdeviceData\n      DUP7 \t\t\tdeviceID\n      PUSH 40\t\t\tdeviceData[deviceID]\n      MLOAD \t\t\tdeviceData[deviceID]\n      PUSH [tag] 49\t\t\tdeviceData[deviceID]\n      SWAP2 \t\t\tdeviceData[deviceID]\n      SWAP1 \t\t\tdeviceData[deviceID]\n      PUSH [tag] 45\t\t\tdeviceData[deviceID]\n      JUMP [in]\t\t\tdeviceData[deviceID]\n    tag 49\t\t\tdeviceData[deviceID]\n      JUMPDEST \t\t\tdeviceData[deviceID]\n      SWAP1 \t\t\tdeviceData[deviceID]\n      DUP2 \t\t\tdeviceData[deviceID]\n      MSTORE \t\t\tdeviceData[deviceID]\n      PUSH 20\t\t\tdeviceData[deviceID]\n      ADD \t\t\tdeviceData[deviceID]\n      PUSH 40\t\t\tdeviceData[deviceID]\n      MLOAD \t\t\tdeviceData[deviceID]\n      DUP1 \t\t\tdeviceData[deviceID]\n      SWAP2 \t\t\tdeviceData[deviceID]\n      SUB \t\t\tdeviceData[deviceID]\n      SWAP1 \t\t\tdeviceData[deviceID]\n      KECCAK256 \t\t\tdeviceData[deviceID]\n      DUP6 \t\t\tindex\n      DUP2 \t\t\tdeviceData[deviceID][index]\n      SLOAD \t\t\tdeviceData[deviceID][index]\n      DUP2 \t\t\tdeviceData[deviceID][index]\n      LT \t\t\tdeviceData[deviceID][index]\n      PUSH [tag] 50\t\t\tdeviceData[deviceID][index]\n      JUMPI \t\t\tdeviceData[deviceID][index]\n      PUSH 4E487B7100000000000000000000000000000000000000000000000000000000\t\t\tdeviceData[deviceID][index]\n      PUSH 0\t\t\tdeviceData[deviceID][index]\n      MSTORE \t\t\tdeviceData[deviceID][index]\n      PUSH 32\t\t\tdeviceData[deviceID][index]\n      PUSH 4\t\t\tdeviceData[deviceID][index]\n      MSTORE \t\t\tdeviceData[deviceID][index]\n      PUSH 24\t\t\tdeviceData[deviceID][index]\n      PUSH 0\t\t\tdeviceData[deviceID][index]\n      REVERT \t\t\tdeviceData[deviceID][index]\n    tag 50\t\t\tdeviceData[deviceID][index]\n      JUMPDEST \t\t\tdeviceData[deviceID][index]\n      SWAP1 \t\t\tdeviceData[deviceID][index]\n      PUSH 0\t\t\tdeviceData[deviceID][index]\n      MSTORE \t\t\tdeviceData[deviceID][index]\n      PUSH 20\t\t\tdeviceData[deviceID][index]\n      PUSH 0\t\t\tdeviceData[deviceID][index]\n      KECCAK256 \t\t\tdeviceData[deviceID][index]\n      SWAP1 \t\t\tdeviceData[deviceID][index]\n      PUSH 3\t\t\tdeviceData[deviceID][index]\n      MUL \t\t\tdeviceData[deviceID][index]\n      ADD \t\t\tdeviceData[deviceID][index]\n      PUSH 40\t\t\tDataEntry memory entry = devic...\n      MLOAD \t\t\tDataEntry memory entry = devic...\n      DUP1 \t\t\tDataEntry memory entry = devic...\n      PUSH 60\t\t\tDataEntry memory entry = devic...\n      ADD \t\t\tDataEntry memory entry = devic...\n      PUSH 40\t\t\tDataEntry memory entry = devic...\n      MSTORE \t\t\tDataEntry memory entry = devic...\n      SWAP1 \t\t\tDataEntry memory entry = devic...\n      DUP2 \t\t\tDataEntry memory entry = devic...\n      PUSH 0\t\t\tDataEntry memory entry = devic...\n      DUP3 \t\t\tDataEntry memory entry = devic...\n      ADD \t\t\tDataEntry memory entry = devic...\n      DUP1 \t\t\tDataEntry memory entry = devic...\n      SLOAD \t\t\tDataEntry memory entry = devic...\n      PUSH [tag] 52\t\t\tDataEntry memory entry = devic...\n      SWAP1 \t\t\tDataEntry memory entry = devic...\n      PUSH [tag] 53\t\t\tDataEntry memory entry = devic...\n      JUMP [in]\t\t\tDataEntry memory entry = devic...\n    tag 52\t\t\tDataEntry memory entry = devic...\n      JUMPDEST \t\t\tDataEntry memory entry = devic...\n      DUP1 \t\t\tDataEntry memory entry = devic...\n      PUSH 1F\t\t\tDataEntry memory entry = devic...\n      ADD \t\t\tDataEntry memory entry = devic...\n      PUSH 20\t\t\tDataEntry memory entry = devic...\n      DUP1 \t\t\tDataEntry memory entry = devic...\n      SWAP2 \t\t\tDataEntry memory entry = devic...\n      DIV \t\t\tDataEntry memory entry = devic...\n      MUL \t\t\tDataEntry memory entry = devic...\n      PUSH 20\t\t\tDataEntry memory entry = devic...\n      ADD \t\t\tDataEntry memory entry = devic...\n      PUSH 40\t\t\tDataEntry memory entry = devic...\n      MLOAD \t\t\tDataEntry memory entry = devic...\n      SWAP1 \t\t\tDataEntry memory entry = devic...\n      DUP2 \t\t\tDataEntry memory entry = devic...\n      ADD \t\t\tDataEntry memory entry = devic...\n      PUSH 40\t\t\tDataEntry memory entry = devic...\n      MSTORE \t\t\tDataEntry memory entry = devic...\n      DUP1 \t\t\tDataEntry memory entry = devic...\n      SWAP3 \t\t\tDataEntry memory entry = devic...\n      SWAP2 \t\t\tDataEntry memory entry = devic...\n      SWAP1 \t\t\tDataEntry memory entry = devic...\n      DUP2 \t\t\tDataEntry memory entry = devic...\n      DUP2 \t\t\tDataEntry memory entry = devic...\n      MSTORE \t\t\tDataEntry memory entry = devic...\n      PUSH 20\t\t\tDataEntry memory entry = devic...\n      ADD \t\t\tDataEntry memory entry = devic...\n      DUP3 \t\t\tDataEntry memory entry = devic...\n      DUP1 \t\t\tDataEntry memory entry = devic...\n      SLOAD \t\t\tDataEntry memory entry = devic...\n      PUSH [tag] 54\t\t\tDataEntry memory entry = devic...\n      SWAP1 \t\t\tDataEntry memory entry = devic...\n      PUSH [tag] 53\t\t\tDataEntry memory entry = devic...\n      JUMP [in]\t\t\tDataEntry memory entry = devic...\n    tag 54\t\t\tDataEntry memory entry = devic...\n      JUMPDEST \t\t\tDataEntry memory entry = devic...\n      DUP1 \t\t\tDataEntry memory entry = devic...\n      ISZERO \t\t\tDataEntry memory entry = devic...\n      PUSH [tag] 55\t\t\tDataEntry memory entry = devic...\n      JUMPI \t\t\tDataEntry memory entry = devic...\n      DUP1 \t\t\tDataEntry memory entry = devic...\n      PUSH 1F\t\t\tDataEntry memory entry = devic...\n      LT \t\t\tDataEntry memory entry = devic...\n      PUSH [tag] 56\t\t\tDataEntry memory entry = devic...\n      JUMPI \t\t\tDataEntry memory entry = devic...\n      PUSH 100\t\t\tDataEntry memory entry = devic...\n      DUP1 \t\t\tDataEntry memory entry = devic...\n      DUP4 \t\t\tDataEntry memory entry = devic...\n      SLOAD \t\t\tDataEntry memory entry = devic...\n      DIV \t\t\tDataEntry memory entry = devic...\n      MUL \t\t\tDataEntry memory entry = devic...\n      DUP4 \t\t\tDataEntry memory entry = devic...\n      MSTORE \t\t\tDataEntry memory entry = devic...\n      SWAP2 \t\t\tDataEntry memory entry = devic...\n      PUSH 20\t\t\tDataEntry memory entry = devic...\n      ADD \t\t\tDataEntry memory entry = devic...\n      SWAP2 \t\t\tDataEntry memory entry = devic...\n      PUSH [tag] 55\t\t\tDataEntry memory entry = devic...\n      JUMP \t\t\tDataEntry memory entry = devic...\n    tag 56\t\t\tDataEntry memory entry = devic...\n      JUMPDEST \t\t\tDataEntry memory entry = devic...\n      DUP3 \t\t\tDataEntry memory entry = devic...\n      ADD \t\t\tDataEntry memory entry = devic...\n      SWAP2 \t\t\tDataEntry memory entry = devic...\n      SWAP1 \t\t\tDataEntry memory entry = devic...\n      PUSH 0\t\t\tDataEntry memory entry = devic...\n      MSTORE \t\t\tDataEntry memory entry = devic...\n      PUSH 20\t\t\tDataEntry memory entry = devic...\n      PUSH 0\t\t\tDataEntry memory entry = devic...\n      KECCAK256 \t\t\tDataEntry memory entry = devic...\n      SWAP1 \t\t\tDataEntry memory entry = devic...\n    tag 57\t\t\tDataEntry memory entry = devic...\n      JUMPDEST \t\t\tDataEntry memory entry = devic...\n      DUP2 \t\t\tDataEntry memory entry = devic...\n      SLOAD \t\t\tDataEntry memory entry = devic...\n      DUP2 \t\t\tDataEntry memory entry = devic...\n      MSTORE \t\t\tDataEntry memory entry = devic...\n      SWAP1 \t\t\tDataEntry memory entry = devic...\n      PUSH 1\t\t\tDataEntry memory entry = devic...\n      ADD \t\t\tDataEntry memory entry = devic...\n      SWAP1 \t\t\tDataEntry memory entry = devic...\n      PUSH 20\t\t\tDataEntry memory entry = devic...\n      ADD \t\t\tDataEntry memory entry = devic...\n      DUP1 \t\t\tDataEntry memory entry = devic...\n      DUP4 \t\t\tDataEntry memory entry = devic...\n      GT \t\t\tDataEntry memory entry = devic...\n      PUSH [tag] 57\t\t\tDataEntry memory entry = devic...\n      JUMPI \t\t\tDataEntry memory entry = devic...\n      DUP3 \t\t\tDataEntry memory entry = devic...\n      SWAP1 \t\t\tDataEntry memory entry = devic...\n      SUB \t\t\tDataEntry memory entry = devic...\n      PUSH 1F\t\t\tDataEntry memory entry = devic...\n      AND \t\t\tDataEntry memory entry = devic...\n      DUP3 \t\t\tDataEntry memory entry = devic...\n      ADD \t\t\tDataEntry memory entry = devic...\n      SWAP2 \t\t\tDataEntry memory entry = devic...\n    tag 55\t\t\tDataEntry memory entry = devic...\n      JUMPDEST \t\t\tDataEntry memory entry = devic...\n      POP \t\t\tDataEntry memory entry = devic...\n      POP \t\t\tDataEntry memory entry = devic...\n      POP \t\t\tDataEntry memory entry = devic...\n      POP \t\t\tDataEntry memory entry = devic...\n      POP \t\t\tDataEntry memory entry = devic...\n      DUP2 \t\t\tDataEntry memory entry = devic...\n      MSTORE \t\t\tDataEntry memory entry = devic...\n      PUSH 20\t\t\tDataEntry memory entry = devic...\n      ADD \t\t\tDataEntry memory entry = devic...\n      PUSH 1\t\t\tDataEntry memory entry = devic...\n      DUP3 \t\t\tDataEntry memory entry = devic...\n      ADD \t\t\tDataEntry memory entry = devic...\n      DUP1 \t\t\tDataEntry memory entry = devic...\n      SLOAD \t\t\tDataEntry memory entry = devic...\n      PUSH [tag] 58\t\t\tDataEntry memory entry = devic...\n      SWAP1 \t\t\tDataEntry memory entry = devic...\n      PUSH [tag] 53\t\t\tDataEntry memory entry = devic...\n      JUMP [in]\t\t\tDataEntry memory entry = devic...\n    tag 58\t\t\tDataEntry memory entry = devic...\n      JUMPDEST \t\t\tDataEntry memory entry = devic...\n      DUP1 \t\t\tDataEntry memory entry = devic...\n      PUSH 1F\t\t\tDataEntry memory entry = devic...\n      ADD \t\t\tDataEntry memory entry = devic...\n      PUSH 20\t\t\tDataEntry memory entry = devic...\n      DUP1 \t\t\tDataEntry memory entry = devic...\n      SWAP2 \t\t\tDataEntry memory entry = devic...\n      DIV \t\t\tDataEntry memory entry = devic...\n      MUL \t\t\tDataEntry memory entry = devic...\n      PUSH 20\t\t\tDataEntry memory entry = devic...\n      ADD \t\t\tDataEntry memory entry = devic...\n      PUSH 40\t\t\tDataEntry memory entry = devic...\n      MLOAD \t\t\tDataEntry memory entry = devic...\n      SWAP1 \t\t\tDataEntry memory entry = devic...\n      DUP2 \t\t\tDataEntry memory entry = devic...\n      ADD \t\t\tDataEntry memory entry = devic...\n      PUSH 40\t\t\tDataEntry memory entry = devic...\n      MSTORE \t\t\tDataEntry memory entry = devic...\n      DUP1 \t\t\tDataEntry memory entry = devic...\n      SWAP3 \t\t\tDataEntry memory entry = devic...\n      SWAP2 \t\t\tDataEntry memory entry = devic...\n      SWAP1 \t\t\tDataEntry memory entry = devic...\n      DUP2 \t\t\tDataEntry memory entry = devic...\n      DUP2 \t\t\tDataEntry memory entry = devic...\n      MSTORE \t\t\tDataEntry memory entry = devic...\n      PUSH 20\t\t\tDataEntry memory entry = devic...\n      ADD \t\t\tDataEntry memory entry = devic...\n      DUP3 \t\t\tDataEntry memory entry = devic...\n      DUP1 \t\t\tDataEntry memory entry = devic...\n      SLOAD \t\t\tDataEntry memory entry = devic...\n      PUSH [tag] 59\t\t\tDataEntry memory entry = devic...\n      SWAP1 \t\t\tDataEntry memory entry = devic...\n      PUSH [tag] 53\t\t\tDataEntry memory entry = devic...\n      JUMP [in]\t\t\tDataEntry memory entry = devic...\n    tag 59\t\t\tDataEntry memory entry = devic...\n      JUMPDEST \t\t\tDataEntry memory entry = devic...\n      DUP1 \t\t\tDataEntry memory entry = devic...\n      ISZERO \t\t\tDataEntry memory entry = devic...\n      PUSH [tag] 60\t\t\tDataEntry memory entry = devic...\n      JUMPI \t\t\tDataEntry memory entry = devic...\n      DUP1 \t\t\tDataEntry memory entry = devic...\n      PUSH 1F\t\t\tDataEntry memory entry = devic...\n      LT \t\t\tDataEntry memory entry = devic...\n      PUSH [tag] 61\t\t\tDataEntry memory entry = devic...\n      JUMPI \t\t\tDataEntry memory entry = devic...\n      PUSH 100\t\t\tDataEntry memory entry = devic...\n      DUP1 \t\t\tDataEntry memory entry = devic...\n      DUP4 \t\t\tDataEntry memory entry = devic...\n      SLOAD \t\t\tDataEntry memory entry = devic...\n      DIV \t\t\tDataEntry memory entry = devic...\n      MUL \t\t\tDataEntry memory entry = devic...\n      DUP4 \t\t\tDataEntry memory entry = devic...\n      MSTORE \t\t\tDataEntry memory entry = devic...\n      SWAP2 \t\t\tDataEntry memory entry = devic...\n      PUSH 20\t\t\tDataEntry memory entry = devic...\n      ADD \t\t\tDataEntry memory entry = devic...\n      SWAP2 \t\t\tDataEntry memory entry = devic...\n      PUSH [tag] 60\t\t\tDataEntry memory entry = devic...\n      JUMP \t\t\tDataEntry memory entry = devic...\n    tag 61\t\t\tDataEntry memory entry = devic...\n      JUMPDEST \t\t\tDataEntry memory entry = devic...\n      DUP3 \t\t\tDataEntry memory entry = devic...\n      ADD \t\t\tDataEntry memory entry = devic...\n      SWAP2 \t\t\tDataEntry memory entry = devic...\n      SWAP1 \t\t\tDataEntry memory entry = devic...\n      PUSH 0\t\t\tDataEntry memory entry = devic...\n      MSTORE \t\t\tDataEntry memory entry = devic...\n      PUSH 20\t\t\tDataEntry memory entry = devic...\n      PUSH 0\t\t\tDataEntry memory entry = devic...\n      KECCAK256 \t\t\tDataEntry memory entry = devic...\n      SWAP1 \t\t\tDataEntry memory entry = devic...\n    tag 62\t\t\tDataEntry memory entry = devic...\n      JUMPDEST \t\t\tDataEntry memory entry = devic...\n      DUP2 \t\t\tDataEntry memory entry = devic...\n      SLOAD \t\t\tDataEntry memory entry = devic...\n      DUP2 \t\t\tDataEntry memory entry = devic...\n      MSTORE \t\t\tDataEntry memory entry = devic...\n      SWAP1 \t\t\tDataEntry memory entry = devic...\n      PUSH 1\t\t\tDataEntry memory entry = devic...\n      ADD \t\t\tDataEntry memory entry = devic...\n      SWAP1 \t\t\tDataEntry memory entry = devic...\n      PUSH 20\t\t\tDataEntry memory entry = devic...\n      ADD \t\t\tDataEntry memory entry = devic...\n      DUP1 \t\t\tDataEntry memory entry = devic...\n      DUP4 \t\t\tDataEntry memory entry = devic...\n      GT \t\t\tDataEntry memory entry = devic...\n      PUSH [tag] 62\t\t\tDataEntry memory entry = devic...\n      JUMPI \t\t\tDataEntry memory entry = devic...\n      DUP3 \t\t\tDataEntry memory entry = devic...\n      SWAP1 \t\t\tDataEntry memory entry = devic...\n      SUB \t\t\tDataEntry memory entry = devic...\n      PUSH 1F\t\t\tDataEntry memory entry = devic...\n      AND \t\t\tDataEntry memory entry = devic...\n      DUP3 \t\t\tDataEntry memory entry = devic...\n      ADD \t\t\tDataEntry memory entry = devic...\n      SWAP2 \t\t\tDataEntry memory entry = devic...\n    tag 60\t\t\tDataEntry memory entry = devic...\n      JUMPDEST \t\t\tDataEntry memory entry = devic...\n      POP \t\t\tDataEntry memory entry = devic...\n      POP \t\t\tDataEntry memory entry = devic...\n      POP \t\t\tDataEntry memory entry = devic...\n      POP \t\t\tDataEntry memory entry = devic...\n      POP \t\t\tDataEntry memory entry = devic...\n      DUP2 \t\t\tDataEntry memory entry = devic...\n      MSTORE \t\t\tDataEntry memory entry = devic...\n      PUSH 20\t\t\tDataEntry memory entry = devic...\n      ADD \t\t\tDataEntry memory entry = devic...\n      PUSH 2\t\t\tDataEntry memory entry = devic...\n      DUP3 \t\t\tDataEntry memory entry = devic...\n      ADD \t\t\tDataEntry memory entry = devic...\n      SLOAD \t\t\tDataEntry memory entry = devic...\n      DUP2 \t\t\tDataEntry memory entry = devic...\n      MSTORE \t\t\tDataEntry memory entry = devic...\n      POP \t\t\tDataEntry memory entry = devic...\n      POP \t\t\tDataEntry memory entry = devic...\n      SWAP1 \t\t\tDataEntry memory entry = devic...\n      POP \t\t\tDataEntry memory entry = devic...\n      DUP1 \t\t\tentry\n      PUSH 0\t\t\tentry.dataType\n      ADD \t\t\tentry.dataType\n      MLOAD \t\t\tentry.dataType\n      DUP2 \t\t\tentry\n      PUSH 20\t\t\tentry.value\n      ADD \t\t\tentry.value\n      MLOAD \t\t\tentry.value\n      DUP3 \t\t\tentry\n      PUSH 40\t\t\tentry.timestamp\n      ADD \t\t\tentry.timestamp\n      MLOAD \t\t\tentry.timestamp\n      SWAP4 \t\t\treturn (entry.dataType, entry....\n      POP \t\t\treturn (entry.dataType, entry....\n      SWAP4 \t\t\treturn (entry.dataType, entry....\n      POP \t\t\treturn (entry.dataType, entry....\n      SWAP4 \t\t\treturn (entry.dataType, entry....\n      POP \t\t\treturn (entry.dataType, entry....\n      POP \t\t\treturn (entry.dataType, entry....\n      SWAP3 \t\t\tfunction getDataByIndex(string...\n      POP \t\t\tfunction getDataByIndex(string...\n      SWAP3 \t\t\tfunction getDataByIndex(string...\n      POP \t\t\tfunction getDataByIndex(string...\n      SWAP3 \t\t\tfunction getDataByIndex(string...\n      JUMP [out]\t\t\tfunction getDataByIndex(string...\n    tag 26\t\t\tfunction getDataCount(string m...\n      JUMPDEST \t\t\tfunction getDataCount(string m...\n      PUSH 0\t\t\tuint256\n      PUSH 1\t\t\tdeviceData\n      DUP3 \t\t\tdeviceID\n      PUSH 40\t\t\tdeviceData[deviceID]\n      MLOAD \t\t\tdeviceData[deviceID]\n      PUSH [tag] 64\t\t\tdeviceData[deviceID]\n      SWAP2 \t\t\tdeviceData[deviceID]\n      SWAP1 \t\t\tdeviceData[deviceID]\n      PUSH [tag] 45\t\t\tdeviceData[deviceID]\n      JUMP [in]\t\t\tdeviceData[deviceID]\n    tag 64\t\t\tdeviceData[deviceID]\n      JUMPDEST \t\t\tdeviceData[deviceID]\n      SWAP1 \t\t\tdeviceData[deviceID]\n      DUP2 \t\t\tdeviceData[deviceID]\n      MSTORE \t\t\tdeviceData[deviceID]\n      PUSH 20\t\t\tdeviceData[deviceID]\n      ADD \t\t\tdeviceData[deviceID]\n      PUSH 40\t\t\tdeviceData[deviceID]\n      MLOAD \t\t\tdeviceData[deviceID]\n      DUP1 \t\t\tdeviceData[deviceID]\n      SWAP2 \t\t\tdeviceData[deviceID]\n      SUB \t\t\tdeviceData[deviceID]\n      SWAP1 \t\t\tdeviceData[deviceID]\n      KECCAK256 \t\t\tdeviceData[deviceID]\n      DUP1 \t\t\tdeviceData[deviceID].length\n      SLOAD \t\t\tdeviceData[deviceID].length\n      SWAP1 \t\t\tdeviceData[deviceID].length\n      POP \t\t\tdeviceData[deviceID].length\n      SWAP1 \t\t\treturn deviceData[deviceID].le...\n      POP \t\t\treturn deviceData[deviceID].le...\n      SWAP2 \t\t\tfunction getDataCount(string m...\n      SWAP1 \t\t\tfunction getDataCount(string m...\n      POP \t\t\tfunction getDataCount(string m...\n      JUMP [out]\t\t\tfunction getDataCount(string m...\n    tag 31\t\t\tfunction revokeDevice(address ...\n      JUMPDEST \t\t\tfunction revokeDevice(address ...\n      PUSH 0\t\t\towner\n      DUP1 \t\t\towner\n      SLOAD \t\t\towner\n      SWAP1 \t\t\towner\n      PUSH 100\t\t\towner\n      EXP \t\t\towner\n      SWAP1 \t\t\towner\n      DIV \t\t\towner\n      PUSH FFFFFFFFFFFFFFFFFFFFFFFFFFFFFFFFFFFFFFFF\t\t\towner\n      AND \t\t\towner\n      PUSH FFFFFFFFFFFFFFFFFFFFFFFFFFFFFFFFFFFFFFFF\t\t\tmsg.sender == owner\n      AND \t\t\tmsg.sender == owner\n      CALLER \t\t\tmsg.sender\n      PUSH FFFFFFFFFFFFFFFFFFFFFFFFFFFFFFFFFFFFFFFF\t\t\tmsg.sender == owner\n      AND \t\t\tmsg.sender == owner\n      EQ \t\t\tmsg.sender == owner\n      PUSH [tag] 66\t\t\trequire(msg.sender == owner, \"...\n      JUMPI \t\t\trequire(msg.sender == owner, \"...\n      PUSH 40\t\t\trequire(msg.sender == owner, \"...\n      MLOAD \t\t\trequire(msg.sender == owner, \"...\n      PUSH 8C379A000000000000000000000000000000000000000000000000000000000\t\t\trequire(msg.sender == owner, \"...\n      DUP2 \t\t\trequire(msg.sender == owner, \"...\n      MSTORE \t\t\trequire(msg.sender == owner, \"...\n      PUSH 4\t\t\trequire(msg.sender == owner, \"...\n      ADD \t\t\trequire(msg.sender == owner, \"...\n      PUSH [tag] 67\t\t\trequire(msg.sender == owner, \"...\n      SWAP1 \t\t\trequire(msg.sender == owner, \"...\n      PUSH [tag] 68\t\t\trequire(msg.sender == owner, \"...\n      JUMP [in]\t\t\trequire(msg.sender == owner, \"...\n    tag 67\t\t\trequire(msg.sender == owner, \"...\n      JUMPDEST \t\t\trequire(msg.sender == owner, \"...\n      PUSH 40\t\t\trequire(msg.sender == owner, \"...\n      MLOAD \t\t\trequire(msg.sender == owner, \"...\n      DUP1 \t\t\trequire(msg.sender == owner, \"...\n      SWAP2 \t\t\trequire(msg.sender == owner, \"...\n      SUB \t\t\trequire(msg.sender == owner, \"...\n      SWAP1 \t\t\trequire(msg.sender == owner, \"...\n      REVERT \t\t\trequire(msg.sender == owner, \"...\n    tag 66\t\t\trequire(msg.sender == owner, \"...\n      JUMPDEST \t\t\trequire(msg.sender == owner, \"...\n      PUSH 0\t\t\tfalse\n      PUSH 2\t\t\tauthorizedDevices\n      PUSH 0\t\t\tauthorizedDevices[device]\n      DUP4 \t\t\tdevice\n      PUSH FFFFFFFFFFFFFFFFFFFFFFFFFFFFFFFFFFFFFFFF\t\t\tauthorizedDevices[device]\n      AND \t\t\tauthorizedDevices[device]\n      PUSH FFFFFFFFFFFFFFFFFFFFFFFFFFFFFFFFFFFFFFFF\t\t\tauthorizedDevices[device]\n      AND \t\t\tauthorizedDevices[device]\n      DUP2 \t\t\tauthorizedDevices[device]\n      MSTORE \t\t\tauthorizedDevices[device]\n      PUSH 20\t\t\tauthorizedDevices[device]\n      ADD \t\t\tauthorizedDevices[device]\n      SWAP1 \t\t\tauthorizedDevices[device]\n      DUP2 \t\t\tauthorizedDevices[device]\n      MSTORE \t\t\tauthorizedDevices[device]\n      PUSH 20\t\t\tauthorizedDevices[device]\n      ADD \t\t\tauthorizedDevices[device]\n      PUSH 0\t\t\tauthorizedDevices[device]\n      KECCAK256 \t\t\tauthorizedDevices[device]\n      PUSH 0\t\t\tauthorizedDevices[device]\n      PUSH 100\t\t\tauthorizedDevices[device] = fa...\n      EXP \t\t\tauthorizedDevices[device] = fa...\n      DUP2 \t\t\tauthorizedDevices[device] = fa...\n      SLOAD \t\t\tauthorizedDevices[device] = fa...\n      DUP2 \t\t\tauthorizedDevices[device] = fa...\n      PUSH FF\t\t\tauthorizedDevices[device] = fa...\n      MUL \t\t\tauthorizedDevices[device] = fa...\n      NOT \t\t\tauthorizedDevices[device] = fa...\n      AND \t\t\tauthorizedDevices[device] = fa...\n      SWAP1 \t\t\tauthorizedDevices[device] = fa...\n      DUP4 \t\t\tauthorizedDevices[device] = fa...\n      ISZERO \t\t\tauthorizedDevices[device] = fa...\n      ISZERO \t\t\tauthorizedDevices[device] = fa...\n      MUL \t\t\tauthorizedDevices[device] = fa...\n      OR \t\t\tauthorizedDevices[device] = fa...\n      SWAP1 \t\t\tauthorizedDevices[device] = fa...\n      SSTORE \t\t\tauthorizedDevices[device] = fa...\n      POP \t\t\tauthorizedDevices[device] = fa...\n      POP \t\t\tfunction revokeDevice(address ...\n      JUMP [out]\t\t\tfunction revokeDevice(address ...\n    tag 33\t\t\taddress public owner\n      JUMPDEST \t\t\taddress public owner\n      PUSH 0\t\t\taddress public owner\n      DUP1 \t\t\taddress public owner\n      SLOAD \t\t\taddress public owner\n      SWAP1 \t\t\taddress public owner\n      PUSH 100\t\t\taddress public owner\n      EXP \t\t\taddress public owner\n      SWAP1 \t\t\taddress public owner\n      DIV \t\t\taddress public owner\n      PUSH FFFFFFFFFFFFFFFFFFFFFFFFFFFFFFFFFFFFFFFF\t\t\taddress public owner\n      AND \t\t\taddress public owner\n      DUP2 \t\t\taddress public owner\n      JUMP [out]\t\t\taddress public owner\n    tag 38\t\t\tfunction authorizeDevice(addre...\n      JUMPDEST \t\t\tfunction authorizeDevice(addre...\n      PUSH 0\t\t\towner\n      DUP1 \t\t\towner\n      SLOAD \t\t\towner\n      SWAP1 \t\t\towner\n      PUSH 100\t\t\towner\n      EXP \t\t\towner\n      SWAP1 \t\t\towner\n      DIV \t\t\towner\n      PUSH FFFFFFFFFFFFFFFFFFFFFFFFFFFFFFFFFFFFFFFF\t\t\towner\n      AND \t\t\towner\n      PUSH FFFFFFFFFFFFFFFFFFFFFFFFFFFFFFFFFFFFFFFF\t\t\tmsg.sender == owner\n      AND \t\t\tmsg.sender == owner\n      CALLER \t\t\tmsg.sender\n      PUSH FFFFFFFFFFFFFFFFFFFFFFFFFFFFFFFFFFFFFFFF\t\t\tmsg.sender == owner\n      AND \t\t\tmsg.sender == owner\n      EQ \t\t\tmsg.sender == owner\n      PUSH [tag] 71\t\t\trequire(msg.sender == owner, \"...\n      JUMPI \t\t\trequire(msg.sender == owner, \"...\n      PUSH 40\t\t\trequire(msg.sender == owner, \"...\n      MLOAD \t\t\trequire(msg.sender == owner, \"...\n      PUSH 8C379A000000000000000000000000000000000000000000000000000000000\t\t\trequire(msg.sender == owner, \"...\n      DUP2 \t\t\trequire(msg.sender == owner, \"...\n      MSTORE \t\t\trequire(msg.sender == owner, \"...\n      PUSH 4\t\t\trequire(msg.sender == owner, \"...\n      ADD \t\t\trequire(msg.sender == owner, \"...\n      PUSH [tag] 72\t\t\trequire(msg.sender == owner, \"...\n      SWAP1 \t\t\trequire(msg.sender == owner, \"...\n      PUSH [tag] 68\t\t\trequire(msg.sender == owner, \"...\n      JUMP [in]\t\t\trequire(msg.sender == owner, \"...\n    tag 72\t\t\trequire(msg.sender == owner, \"...\n      JUMPDEST \t\t\trequire(msg.sender == owner, \"...\n      PUSH 40\t\t\trequire(msg.sender == owner, \"...\n      MLOAD \t\t\trequire(msg.sender == owner, \"...\n      DUP1 \t\t\trequire(msg.sender == owner, \"...\n      SWAP2 \t\t\trequire(msg.sender == owner, \"...\n      SUB \t\t\trequire(msg.sender == owner, \"...\n      SWAP1 \t\t\trequire(msg.sender == owner, \"...\n      REVERT \t\t\trequire(msg.sender == owner, \"...\n    tag 71\t\t\trequire(msg.sender == owner, \"...\n      JUMPDEST \t\t\trequire(msg.sender == owner, \"...\n      PUSH 1\t\t\ttrue\n      PUSH 2\t\t\tauthorizedDevices\n      PUSH 0\t\t\tauthorizedDevices[device]\n      DUP4 \t\t\tdevice\n      PUSH FFFFFFFFFFFFFFFFFFFFFFFFFFFFFFFFFFFFFFFF\t\t\tauthorizedDevices[device]\n      AND \t\t\tauthorizedDevices[device]\n      PUSH FFFFFFFFFFFFFFFFFFFFFFFFFFFFFFFFFFFFFFFF\t\t\tauthorizedDevices[device]\n      AND \t\t\tauthorizedDevices[device]\n      DUP2 \t\t\tauthorizedDevices[device]\n      MSTORE \t\t\tauthorizedDevices[device]\n      PUSH 20\t\t\tauthorizedDevices[device]\n      ADD \t\t\tauthorizedDevices[device]\n      SWAP1 \t\t\tauthorizedDevices[device]\n      DUP2 \t\t\tauthorizedDevices[device]\n      MSTORE \t\t\tauthorizedDevices[device]\n      PUSH 20\t\t\tauthorizedDevices[device]\n      ADD \t\t\tauthorizedDevices[device]\n      PUSH 0\t\t\tauthorizedDevices[device]\n      KECCAK256 \t\t\tauthorizedDevices[device]\n      PUSH 0\t\t\tauthorizedDevices[device]\n      PUSH 100\t\t\tauthorizedDevices[device] = tr...\n      EXP \t\t\tauthorizedDevices[device] = tr...\n      DUP2 \t\t\tauthorizedDevices[device] = tr...\n      SLOAD \t\t\tauthorizedDevices[device] = tr...\n      DUP2 \t\t\tauthorizedDevices[device] = tr...\n      PUSH FF\t\t\tauthorizedDevices[device] = tr...\n      MUL \t\t\tauthorizedDevices[device] = tr...\n      NOT \t\t\tauthorizedDevices[device] = tr...\n      AND \t\t\tauthorizedDevices[device] = tr...\n      SWAP1 \t\t\tauthorizedDevices[device] = tr...\n      DUP4 \t\t\tauthorizedDevices[device] = tr...\n      ISZERO \t\t\tauthorizedDevices[device] = tr...\n      ISZERO \t\t\tauthorizedDevices[device] = tr...\n      MUL \t\t\tauthorizedDevices[device] = tr...\n      OR \t\t\tauthorizedDevices[device] = tr...\n      SWAP1 \t\t\tauthorizedDevices[device] = tr...\n      SSTORE \t\t\tauthorizedDevices[device] = tr...\n      POP \t\t\tauthorizedDevices[device] = tr...\n      POP \t\t\tfunction authorizeDevice(addre...\n      JUMP [out]\t\t\tfunction authorizeDevice(addre...\n    tag 42\t\t\tfunction storeData(string memo...\n      JUMPDEST \t\t\tfunction storeData(string memo...\n      PUSH 2\t\t\tauthorizedDevices\n      PUSH 0\t\t\tauthorizedDevices[msg.sender]\n      CALLER \t\t\tmsg.sender\n      PUSH FFFFFFFFFFFFFFFFFFFFFFFFFFFFFFFFFFFFFFFF\t\t\tauthorizedDevices[msg.sender]\n      AND \t\t\tauthorizedDevices[msg.sender]\n      PUSH FFFFFFFFFFFFFFFFFFFFFFFFFFFFFFFFFFFFFFFF\t\t\tauthorizedDevices[msg.sender]\n      AND \t\t\tauthorizedDevices[msg.sender]\n      DUP2 \t\t\tauthorizedDevices[msg.sender]\n      MSTORE \t\t\tauthorizedDevices[msg.sender]\n      PUSH 20\t\t\tauthorizedDevices[msg.sender]\n      ADD \t\t\tauthorizedDevices[msg.sender]\n      SWAP1 \t\t\tauthorizedDevices[msg.sender]\n      DUP2 \t\t\tauthorizedDevices[msg.sender]\n      MSTORE \t\t\tauthorizedDevices[msg.sender]\n      PUSH 20\t\t\tauthorizedDevices[msg.sender]\n      ADD \t\t\tauthorizedDevices[msg.sender]\n      PUSH 0\t\t\tauthorizedDevices[msg.sender]\n      KECCAK256 \t\t\tauthorizedDevices[msg.sender]\n      PUSH 0\t\t\tauthorizedDevices[msg.sender]\n      SWAP1 \t\t\tauthorizedDevices[msg.sender]\n      SLOAD \t\t\tauthorizedDevices[msg.sender]\n      SWAP1 \t\t\tauthorizedDevices[msg.sender]\n      PUSH 100\t\t\tauthorizedDevices[msg.sender]\n      EXP \t\t\tauthorizedDevices[msg.sender]\n      SWAP1 \t\t\tauthorizedDevices[msg.sender]\n      DIV \t\t\tauthorizedDevices[msg.sender]\n      PUSH FF\t\t\tauthorizedDevices[msg.sender]\n      AND \t\t\tauthorizedDevices[msg.sender]\n      PUSH [tag] 75\t\t\trequire(authorizedDevices[msg....\n      JUMPI \t\t\trequire(authorizedDevices[msg....\n      PUSH 40\t\t\trequire(authorizedDevices[msg....\n      MLOAD \t\t\trequire(authorizedDevices[msg....\n      PUSH 8C379A000000000000000000000000000000000000000000000000000000000\t\t\trequire(authorizedDevices[msg....\n      DUP2 \t\t\trequire(authorizedDevices[msg....\n      MSTORE \t\t\trequire(authorizedDevices[msg....\n      PUSH 4\t\t\trequire(authorizedDevices[msg....\n      ADD \t\t\trequire(authorizedDevices[msg....\n      PUSH [tag] 76\t\t\trequire(authorizedDevices[msg....\n      SWAP1 \t\t\trequire(authorizedDevices[msg....\n      PUSH [tag] 77\t\t\trequire(authorizedDevices[msg....\n      JUMP [in]\t\t\trequire(authorizedDevices[msg....\n    tag 76\t\t\trequire(authorizedDevices[msg....\n      JUMPDEST \t\t\trequire(authorizedDevices[msg....\n      PUSH 40\t\t\trequire(authorizedDevices[msg....\n      MLOAD \t\t\trequire(authorizedDevices[msg....\n      DUP1 \t\t\trequire(authorizedDevices[msg....\n      SWAP2 \t\t\trequire(authorizedDevices[msg....\n      SUB \t\t\trequire(authorizedDevices[msg....\n      SWAP1 \t\t\trequire(authorizedDevices[msg....\n      REVERT \t\t\trequire(authorizedDevices[msg....\n    tag 75\t\t\trequire(authorizedDevices[msg....\n      JUMPDEST \t\t\trequire(authorizedDevices[msg....\n      PUSH 0\t\t\t0\n      DUP4 \t\t\tdeviceID\n      MLOAD \t\t\tbytes(deviceID).length\n      GT \t\t\tbytes(deviceID).length > 0\n      PUSH [tag] 79\t\t\trequire(bytes(deviceID).length...\n      JUMPI \t\t\trequire(bytes(deviceID).length...\n      PUSH 40\t\t\trequire(bytes(deviceID).length...\n      MLOAD \t\t\trequire(bytes(deviceID).length...\n      PUSH 8C379A000000000000000000000000000000000000000000000000000000000\t\t\trequire(bytes(deviceID).length...\n      DUP2 \t\t\trequire(bytes(deviceID).length...\n      MSTORE \t\t\trequire(bytes(deviceID).length...\n      PUSH 4\t\t\trequire(bytes(deviceID).length...\n      ADD \t\t\trequire(bytes(deviceID).length...\n      PUSH [tag] 80\t\t\trequire(bytes(deviceID).length...\n      SWAP1 \t\t\trequire(bytes(deviceID).length...\n      PUSH [tag] 81\t\t\trequire(bytes(deviceID).length...\n      JUMP [in]\t\t\trequire(bytes(deviceID).length...\n    tag 80\t\t\trequire(bytes(deviceID).length...\n      JUMPDEST \t\t\trequire(bytes(deviceID).length...\n      PUSH 40\t\t\trequire(bytes(deviceID).length...\n      MLOAD \t\t\trequire(bytes(deviceID).length...\n      DUP1 \t\t\trequire(bytes(deviceID).length...\n      SWAP2 \t\t\trequire(bytes(deviceID).length...\n      SUB \t\t\trequire(bytes(deviceID).length...\n      SWAP1 \t\t\trequire(bytes(deviceID).length...\n      REVERT \t\t\trequire(bytes(deviceID).length...\n    tag 79\t\t\trequire(bytes(deviceID).length...\n      JUMPDEST \t\t\trequire(bytes(deviceID).length...\n      PUSH 0\t\t\t0\n      DUP3 \t\t\tdataType\n      MLOAD \t\t\tbytes(dataType).length\n      GT \t\t\tbytes(dataType).length > 0\n      PUSH [tag] 82\t\t\trequire(bytes(dataType).length...\n      JUMPI \t\t\trequire(bytes(dataType).length...\n      PUSH 40\t\t\trequire(bytes(dataType).length...\n      MLOAD \t\t\trequire(bytes(dataType).length...\n      PUSH 8C379A000000000000000000000000000000000000000000000000000000000\t\t\trequire(bytes(dataType).length...\n      DUP2 \t\t\trequire(bytes(dataType).length...\n      MSTORE \t\t\trequire(bytes(dataType).length...\n      PUSH 4\t\t\trequire(bytes(dataType).length...\n      ADD \t\t\trequire(bytes(dataType).length...\n      PUSH [tag] 83\t\t\trequire(bytes(dataType).length...\n      SWAP1 \t\t\trequire(bytes(dataType).length...\n      PUSH [tag] 84\t\t\trequire(bytes(dataType).length...\n      JUMP [in]\t\t\trequire(bytes(dataType).length...\n    tag 83\t\t\trequire(bytes(dataType).length...\n      JUMPDEST \t\t\trequire(bytes(dataType).length...\n      PUSH 40\t\t\trequire(bytes(dataType).length...\n      MLOAD \t\t\trequire(bytes(dataType).length...\n      DUP1 \t\t\trequire(bytes(dataType).length...\n      SWAP2 \t\t\trequire(bytes(dataType).length...\n      SUB \t\t\trequire(bytes(dataType).length...\n      SWAP1 \t\t\trequire(bytes(dataType).length...\n      REVERT \t\t\trequire(bytes(dataType).length...\n    tag 82\t\t\trequire(bytes(dataType).length...\n      JUMPDEST \t\t\trequire(bytes(dataType).length...\n      PUSH 0\t\t\t0\n      DUP2 \t\t\tvalue\n      MLOAD \t\t\tbytes(value).length\n      GT \t\t\tbytes(value).length > 0\n      PUSH [tag] 85\t\t\trequire(bytes(value).length > ...\n      JUMPI \t\t\trequire(bytes(value).length > ...\n      PUSH 40\t\t\trequire(bytes(value).length > ...\n      MLOAD \t\t\trequire(bytes(value).length > ...\n      PUSH 8C379A000000000000000000000000000000000000000000000000000000000\t\t\trequire(bytes(value).length > ...\n      DUP2 \t\t\trequire(bytes(value).length > ...\n      MSTORE \t\t\trequire(bytes(value).length > ...\n      PUSH 4\t\t\trequire(bytes(value).length > ...\n      ADD \t\t\trequire(bytes(value).length > ...\n      PUSH [tag] 86\t\t\trequire(bytes(value).length > ...\n      SWAP1 \t\t\trequire(bytes(value).length > ...\n      PUSH [tag] 87\t\t\trequire(bytes(value).length > ...\n      JUMP [in]\t\t\trequire(bytes(value).length > ...\n    tag 86\t\t\trequire(bytes(value).length > ...\n      JUMPDEST \t\t\trequire(bytes(value).length > ...\n      PUSH 40\t\t\trequire(bytes(value).length > ...\n      MLOAD \t\t\trequire(bytes(value).length > ...\n      DUP1 \t\t\trequire(bytes(value).length > ...\n      SWAP2 \t\t\trequire(bytes(value).length > ...\n      SUB \t\t\trequire(bytes(value).length > ...\n      SWAP1 \t\t\trequire(bytes(value).length > ...\n      REVERT \t\t\trequire(bytes(value).length > ...\n    tag 85\t\t\trequire(bytes(value).length > ...\n      JUMPDEST \t\t\trequire(bytes(value).length > ...\n      PUSH 0\t\t\tDataEntry memory entry\n      PUSH 40\t\t\tDataEntry(dataType, value, blo...\n      MLOAD \t\t\tDataEntry(dataType, value, blo...\n      DUP1 \t\t\tDataEntry(dataType, value, blo...\n      PUSH 60\t\t\tDataEntry(dataType, value, blo...\n      ADD \t\t\tDataEntry(dataType, value, blo...\n      PUSH 40\t\t\tDataEntry(dataType, value, blo...\n      MSTORE \t\t\tDataEntry(dataType, value, blo...\n      DUP1 \t\t\tDataEntry(dataType, value, blo...\n      DUP5 \t\t\tdataType\n      DUP2 \t\t\tDataEntry(dataType, value, blo...\n      MSTORE \t\t\tDataEntry(dataType, value, blo...\n      PUSH 20\t\t\tDataEntry(dataType, value, blo...\n      ADD \t\t\tDataEntry(dataType, value, blo...\n      DUP4 \t\t\tvalue\n      DUP2 \t\t\tDataEntry(dataType, value, blo...\n      MSTORE \t\t\tDataEntry(dataType, value, blo...\n      PUSH 20\t\t\tDataEntry(dataType, value, blo...\n      ADD \t\t\tDataEntry(dataType, value, blo...\n      TIMESTAMP \t\t\tblock.timestamp\n      DUP2 \t\t\tDataEntry(dataType, value, blo...\n      MSTORE \t\t\tDataEntry(dataType, value, blo...\n      POP \t\t\tDataEntry(dataType, value, blo...\n      SWAP1 \t\t\tDataEntry memory entry = DataE...\n      POP \t\t\tDataEntry memory entry = DataE...\n      PUSH 1\t\t\tdeviceData\n      DUP5 \t\t\tdeviceID\n      PUSH 40\t\t\tdeviceData[deviceID]\n      MLOAD \t\t\tdeviceData[deviceID]\n      PUSH [tag] 88\t\t\tdeviceData[deviceID]\n      SWAP2 \t\t\tdeviceData[deviceID]\n      SWAP1 \t\t\tdeviceData[deviceID]\n      PUSH [tag] 45\t\t\tdeviceData[deviceID]\n      JUMP [in]\t\t\tdeviceData[deviceID]\n    tag 88\t\t\tdeviceData[deviceID]\n      JUMPDEST \t\t\tdeviceData[deviceID]\n      SWAP1 \t\t\tdeviceData[deviceID]\n      DUP2 \t\t\tdeviceData[deviceID]\n      MSTORE \t\t\tdeviceData[deviceID]\n      PUSH 20\t\t\tdeviceData[deviceID]\n      ADD \t\t\tdeviceData[deviceID]\n      PUSH 40\t\t\tdeviceData[deviceID]\n      MLOAD \t\t\tdeviceData[deviceID]\n      DUP1 \t\t\tdeviceData[deviceID]\n      SWAP2 \t\t\tdeviceData[deviceID]\n      SUB \t\t\tdeviceData[deviceID]\n      SWAP1 \t\t\tdeviceData[deviceID]\n      KECCAK256 \t\t\tdeviceData[deviceID]\n      DUP2 \t\t\tentry\n      SWAP1 \t\t\tdeviceData[deviceID].push(entr...\n      DUP1 \t\t\tdeviceData[deviceID].push(entr...\n      PUSH 1\t\t\tdeviceData[deviceID].push(entr...\n      DUP2 \t\t\tdeviceData[deviceID].push(entr...\n      SLOAD \t\t\tdeviceData[deviceID].push(entr...\n      ADD \t\t\tdeviceData[deviceID].push(entr...\n      DUP1 \t\t\tdeviceData[deviceID].push(entr...\n      DUP3 \t\t\tdeviceData[deviceID].push(entr...\n      SSTORE \t\t\tdeviceData[deviceID].push(entr...\n      DUP1 \t\t\tdeviceData[deviceID].push(entr...\n      SWAP2 \t\t\tdeviceData[deviceID].push(entr...\n      POP \t\t\tdeviceData[deviceID].push(entr...\n      POP \t\t\tdeviceData[deviceID].push(entr...\n      PUSH 1\t\t\tdeviceData[deviceID].push(entr...\n      SWAP1 \t\t\tdeviceData[deviceID].push(entr...\n      SUB \t\t\tdeviceData[deviceID].push(entr...\n      SWAP1 \t\t\tdeviceData[deviceID].push(entr...\n      PUSH 0\t\t\tdeviceData[deviceID].push(entr...\n      MSTORE \t\t\tdeviceData[deviceID].push(entr...\n      PUSH 20\t\t\tdeviceData[deviceID].push(entr...\n      PUSH 0\t\t\tdeviceData[deviceID].push(entr...\n      KECCAK256 \t\t\tdeviceData[deviceID].push(entr...\n      SWAP1 \t\t\tdeviceData[deviceID].push(entr...\n      PUSH 3\t\t\tdeviceData[deviceID].push(entr...\n      MUL \t\t\tdeviceData[deviceID].push(entr...\n      ADD \t\t\tdeviceData[deviceID].push(entr...\n      PUSH 0\t\t\tdeviceData[deviceID].push(entr...\n      SWAP1 \t\t\tdeviceData[deviceID].push(entr...\n      SWAP2 \t\t\tdeviceData[deviceID].push(entr...\n      SWAP1 \t\t\tdeviceData[deviceID].push(entr...\n      SWAP2 \t\t\tdeviceData[deviceID].push(entr...\n      SWAP1 \t\t\tdeviceData[deviceID].push(entr...\n      SWAP2 \t\t\tdeviceData[deviceID].push(entr...\n      POP \t\t\tdeviceData[deviceID].push(entr...\n      PUSH 0\t\t\tdeviceData[deviceID].push(entr...\n      DUP3 \t\t\tdeviceData[deviceID].push(entr...\n      ADD \t\t\tdeviceData[deviceID].push(entr...\n      MLOAD \t\t\tdeviceData[deviceID].push(entr...\n      DUP2 \t\t\tdeviceData[deviceID].push(entr...\n      PUSH 0\t\t\tdeviceData[deviceID].push(entr...\n      ADD \t\t\tdeviceData[deviceID].push(entr...\n      SWAP1 \t\t\tdeviceData[deviceID].push(entr...\n      DUP1 \t\t\tdeviceData[deviceID].push(entr...\n      MLOAD \t\t\tdeviceData[deviceID].push(entr...\n      SWAP1 \t\t\tdeviceData[deviceID].push(entr...\n      PUSH 20\t\t\tdeviceData[deviceID].push(entr...\n      ADD \t\t\tdeviceData[deviceID].push(entr...\n      SWAP1 \t\t\tdeviceData[deviceID].push(entr...\n      PUSH [tag] 90\t\t\tdeviceData[deviceID].push(entr...\n      SWAP3 \t\t\tdeviceData[deviceID].push(entr...\n      SWAP2 \t\t\tdeviceData[deviceID].push(entr...\n      SWAP1 \t\t\tdeviceData[deviceID].push(entr...\n      PUSH [tag] 91\t\t\tdeviceData[deviceID].push(entr...\n      JUMP [in]\t\t\tdeviceData[deviceID].push(entr...\n    tag 90\t\t\tdeviceData[deviceID].push(entr...\n      JUMPDEST \t\t\tdeviceData[deviceID].push(entr...\n      POP \t\t\tdeviceData[deviceID].push(entr...\n      PUSH 20\t\t\tdeviceData[deviceID].push(entr...\n      DUP3 \t\t\tdeviceData[deviceID].push(entr...\n      ADD \t\t\tdeviceData[deviceID].push(entr...\n      MLOAD \t\t\tdeviceData[deviceID].push(entr...\n      DUP2 \t\t\tdeviceData[deviceID].push(entr...\n      PUSH 1\t\t\tdeviceData[deviceID].push(entr...\n      ADD \t\t\tdeviceData[deviceID].push(entr...\n      SWAP1 \t\t\tdeviceData[deviceID].push(entr...\n      DUP1 \t\t\tdeviceData[deviceID].push(entr...\n      MLOAD \t\t\tdeviceData[deviceID].push(entr...\n      SWAP1 \t\t\tdeviceData[deviceID].push(entr...\n      PUSH 20\t\t\tdeviceData[deviceID].push(entr...\n      ADD \t\t\tdeviceData[deviceID].push(entr...\n      SWAP1 \t\t\tdeviceData[deviceID].push(entr...\n      PUSH [tag] 92\t\t\tdeviceData[deviceID].push(entr...\n      SWAP3 \t\t\tdeviceData[deviceID].push(entr...\n      SWAP2 \t\t\tdeviceData[deviceID].push(entr...\n      SWAP1 \t\t\tdeviceData[deviceID].push(entr...\n      PUSH [tag] 91\t\t\tdeviceData[deviceID].push(entr...\n      JUMP [in]\t\t\tdeviceData[deviceID].push(entr...\n    tag 92\t\t\tdeviceData[deviceID].push(entr...\n      JUMPDEST \t\t\tdeviceData[deviceID].push(entr...\n      POP \t\t\tdeviceData[deviceID].push(entr...\n      PUSH 40\t\t\tdeviceData[deviceID].push(entr...\n      DUP3 \t\t\tdeviceData[deviceID].push(entr...\n      ADD \t\t\tdeviceData[deviceID].push(entr...\n      MLOAD \t\t\tdeviceData[deviceID].push(entr...\n      DUP2 \t\t\tdeviceData[deviceID].push(entr...\n      PUSH 2\t\t\tdeviceData[deviceID].push(entr...\n      ADD \t\t\tdeviceData[deviceID].push(entr...\n      SSTORE \t\t\tdeviceData[deviceID].push(entr...\n      POP \t\t\tdeviceData[deviceID].push(entr...\n      POP \t\t\tdeviceData[deviceID].push(entr...\n      POP \t\t\t_\n      POP \t\t\tfunction storeData(string memo...\n      POP \t\t\tfunction storeData(string memo...\n      POP \t\t\tfunction storeData(string memo...\n      JUMP [out]\t\t\tfunction storeData(string memo...\n    tag 91\t\t\t\n      JUMPDEST \t\t\t\n      DUP3 \t\t\t\n      DUP1 \t\t\t\n      SLOAD \t\t\t\n      PUSH [tag] 93\t\t\t\n      SWAP1 \t\t\t\n      PUSH [tag] 53\t\t\t\n      JUMP [in]\t\t\t\n    tag 93\t\t\t\n      JUMPDEST \t\t\t\n      SWAP1 \t\t\t\n      PUSH 0\t\t\t\n      MSTORE \t\t\t\n      PUSH 20\t\t\t\n      PUSH 0\t\t\t\n      KECCAK256 \t\t\t\n      SWAP1 \t\t\t\n      PUSH 1F\t\t\t\n      ADD \t\t\t\n      PUSH 20\t\t\t\n      SWAP1 \t\t\t\n      DIV \t\t\t\n      DUP2 \t\t\t\n      ADD \t\t\t\n      SWAP3 \t\t\t\n      DUP3 \t\t\t\n      PUSH [tag] 95\t\t\t\n      JUMPI \t\t\t\n      PUSH 0\t\t\t\n      DUP6 \t\t\t\n      SSTORE \t\t\t\n      PUSH [tag] 94\t\t\t\n      JUMP \t\t\t\n    tag 95\t\t\t\n      JUMPDEST \t\t\t\n      DUP3 \t\t\t\n      PUSH 1F\t\t\t\n      LT \t\t\t\n      PUSH [tag] 96\t\t\t\n      JUMPI \t\t\t\n      DUP1 \t\t\t\n      MLOAD \t\t\t\n      PUSH FF\t\t\t\n      NOT \t\t\t\n      AND \t\t\t\n      DUP4 \t\t\t\n      DUP1 \t\t\t\n      ADD \t\t\t\n      OR \t\t\t\n      DUP6 \t\t\t\n      SSTORE \t\t\t\n      PUSH [tag] 94\t\t\t\n      JUMP \t\t\t\n    tag 96\t\t\t\n      JUMPDEST \t\t\t\n      DUP3 \t\t\t\n      DUP1 \t\t\t\n      ADD \t\t\t\n      PUSH 1\t\t\t\n      ADD \t\t\t\n      DUP6 \t\t\t\n      SSTORE \t\t\t\n      DUP3 \t\t\t\n      ISZERO \t\t\t\n      PUSH [tag] 94\t\t\t\n      JUMPI \t\t\t\n      SWAP2 \t\t\t\n      DUP3 \t\t\t\n      ADD \t\t\t\n    tag 97\t\t\t\n      JUMPDEST \t\t\t\n      DUP3 \t\t\t\n      DUP2 \t\t\t\n      GT \t\t\t\n      ISZERO \t\t\t\n      PUSH [tag] 98\t\t\t\n      JUMPI \t\t\t\n      DUP3 \t\t\t\n      MLOAD \t\t\t\n      DUP3 \t\t\t\n      SSTORE \t\t\t\n      SWAP2 \t\t\t\n      PUSH 20\t\t\t\n      ADD \t\t\t\n      SWAP2 \t\t\t\n      SWAP1 \t\t\t\n      PUSH 1\t\t\t\n      ADD \t\t\t\n      SWAP1 \t\t\t\n      PUSH [tag] 97\t\t\t\n      JUMP \t\t\t\n    tag 98\t\t\t\n      JUMPDEST \t\t\t\n    tag 94\t\t\t\n      JUMPDEST \t\t\t\n      POP \t\t\t\n      SWAP1 \t\t\t\n      POP \t\t\t\n      PUSH [tag] 99\t\t\t\n      SWAP2 \t\t\t\n      SWAP1 \t\t\t\n      PUSH [tag] 100\t\t\t\n      JUMP [in]\t\t\t\n    tag 99\t\t\t\n      JUMPDEST \t\t\t\n      POP \t\t\t\n      SWAP1 \t\t\t\n      JUMP [out]\t\t\t\n    tag 100\t\t\t\n      JUMPDEST \t\t\t\n    tag 101\t\t\t\n      JUMPDEST \t\t\t\n      DUP1 \t\t\t\n      DUP3 \t\t\t\n      GT \t\t\t\n      ISZERO \t\t\t\n      PUSH [tag] 102\t\t\t\n      JUMPI \t\t\t\n      PUSH 0\t\t\t\n      DUP2 \t\t\t\n      PUSH 0\t\t\t\n      SWAP1 \t\t\t\n      SSTORE \t\t\t\n      POP \t\t\t\n      PUSH 1\t\t\t\n      ADD \t\t\t\n      PUSH [tag] 101\t\t\t\n      JUMP \t\t\t\n    tag 102\t\t\t\n      JUMPDEST \t\t\t\n      POP \t\t\t\n      SWAP1 \t\t\t\n      JUMP [out]\t\t\t\n    tag 104\t\t\t-License-Identifier: MIT\\r\\npr...\n      JUMPDEST \t\t\t-License-Identifier: MIT\\r\\npr...\n      PUSH 0\t\t\t-License-Identifier: MIT\\r\\npr...\n      PUSH [tag] 106\t\t\t\\n        string dataType;\\r\\n...\n      PUSH [tag] 107\t\t\t dataType;\\r\\n        string v...\n      DUP5 \t\t\t uint2\n      PUSH [tag] 108\t\t\t dataType;\\r\\n        string v...\n      JUMP [in]\t\t\t dataType;\\r\\n        string v...\n    tag 107\t\t\t dataType;\\r\\n        string v...\n      JUMPDEST \t\t\t dataType;\\r\\n        string v...\n      PUSH [tag] 109\t\t\t\\n        string dataType;\\r\\n...\n      JUMP [in]\t\t\t\\n        string dataType;\\r\\n...\n    tag 106\t\t\t\\n        string dataType;\\r\\n...\n      JUMPDEST \t\t\t\\n        string dataType;\\r\\n...\n      SWAP1 \t\t\taEntry {\\r\\n        string dat...\n      POP \t\t\taEntry {\\r\\n        string dat...\n      DUP3 \t\t\t   add\n      DUP2 \t\t\t }\\r\\n\\r\n      MSTORE \t\t\tp;\\r\\n    }\\r\\n\\r\\n    addr\n      PUSH 20\t\t\tstri\n      DUP2 \t\t\tappin\n      ADD \t\t\t   mapping(strin\n      DUP5 \t\t\tata\n      DUP5 \t\t\te devi\n      DUP5 \t\t\triv\n      ADD \t\t\t]) private devic\n      GT \t\t\try[]) private deviceData;\n      ISZERO \t\t\tEn\n      PUSH [tag] 110\t\t\tEn\n      JUMPI \t\t\tEn\n      PUSH 0\t\t\t(\n      DUP1 \t\t\ti\n      REVERT \t\t\t   mapping(a\n    tag 110\t\t\tEn\n      JUMPDEST \t\t\tEn\n      PUSH [tag] 111\t\t\tool) public authorizedDevices;...\n      DUP5 \t\t\t    co\n      DUP3 \t\t\t;\\r\\n\n      DUP6 \t\t\tvic\n      PUSH [tag] 112\t\t\tool) public authorizedDevices;...\n      JUMP [in]\t\t\tool) public authorizedDevices;...\n    tag 111\t\t\tool) public authorizedDevices;...\n      JUMPDEST \t\t\tool) public authorizedDevices;...\n      POP \t\t\tstruct DataEntry {\\r\\n        ...\n      SWAP4 \t\t\tstruct DataEntry {\\r\\n        ...\n      SWAP3 \t\t\tstruct DataEntry {\\r\\n        ...\n      POP \t\t\tstruct DataEntry {\\r\\n        ...\n      POP \t\t\tstruct DataEntry {\\r\\n        ...\n      POP \t\t\tstruct DataEntry {\\r\\n        ...\n      JUMP [out]\t\t\tstruct DataEntry {\\r\\n        ...\n    tag 113\t\t\t\\r\\n        owner = msg.sender...\n      JUMPDEST \t\t\t\\r\\n        owner = msg.sender...\n      PUSH 0\t\t\t\\r\\n        owner = msg.sender...\n      DUP2 \t\t\tmsg.se\n      CALLDATALOAD \t\t\t     require(msg.sen\n      SWAP1 \t\t\t() {\\r\\n        require(msg.se...\n      POP \t\t\t() {\\r\\n        require(msg.se...\n      PUSH [tag] 115\t\t\tner, \"Not contract owner\");\\r\\...\n      DUP2 \t\t\t\\r\\n   \n      PUSH [tag] 116\t\t\tner, \"Not contract owner\");\\r\\...\n      JUMP [in]\t\t\tner, \"Not contract owner\");\\r\\...\n    tag 115\t\t\tner, \"Not contract owner\");\\r\\...\n      JUMPDEST \t\t\tner, \"Not contract owner\");\\r\\...\n      SWAP3 \t\t\t onlyOwner() {\\r\\n        requ...\n      SWAP2 \t\t\t onlyOwner() {\\r\\n        requ...\n      POP \t\t\t onlyOwner() {\\r\\n        requ...\n      POP \t\t\t onlyOwner() {\\r\\n        requ...\n      JUMP [out]\t\t\t onlyOwner() {\\r\\n        requ...\n    tag 117\t\t\tier onlyAuthorized() {\\r\\n    ...\n      JUMPDEST \t\t\tier onlyAuthorized() {\\r\\n    ...\n      PUSH 0\t\t\tier onlyAuthorized() {\\r\\n    ...\n      DUP3 \t\t\t}\\r\\n\n      PUSH 1F\t\t\t;\\r\\n \n      DUP4 \t\t\t      \n      ADD \t\t\t;\\r\\n        _;\\r\\n  \n      SLT \t\t\ted\");\\r\\n        _;\\r\\n    }\\r...\n      PUSH [tag] 119\t\t\tUn\n      JUMPI \t\t\tUn\n      PUSH 0\t\t\ta\n      DUP1 \t\t\to\n      REVERT \t\t\t function au\n    tag 119\t\t\tUn\n      JUMPDEST \t\t\tUn\n      DUP2 \t\t\tnlyOwn\n      CALLDATALOAD \t\t\tice) public onlyOwne\n      PUSH [tag] 120\t\t\trizedDevices[device] = true;\\r...\n      DUP5 \t\t\tvic\n      DUP3 \t\t\tdress \n      PUSH 20\t\t\tvice\n      DUP7 \t\t\trevoke\n      ADD \t\t\tion revokeDevice(\n      PUSH [tag] 104\t\t\trizedDevices[device] = true;\\r...\n      JUMP [in]\t\t\trizedDevices[device] = true;\\r...\n    tag 120\t\t\trizedDevices[device] = true;\\r...\n      JUMPDEST \t\t\trizedDevices[device] = true;\\r...\n      SWAP2 \t\t\t    authorizedDevices[device] ...\n      POP \t\t\t    authorizedDevices[device] ...\n      POP \t\t\tsender], \"Unauthorized\");\\r\\n ...\n      SWAP3 \t\t\tsender], \"Unauthorized\");\\r\\n ...\n      SWAP2 \t\t\tsender], \"Unauthorized\");\\r\\n ...\n      POP \t\t\tsender], \"Unauthorized\");\\r\\n ...\n      POP \t\t\tsender], \"Unauthorized\");\\r\\n ...\n      JUMP [out]\t\t\tsender], \"Unauthorized\");\\r\\n ...\n    tag 121\t\t\tyOwner {\\r\\n        authorized...\n      JUMPDEST \t\t\tyOwner {\\r\\n        authorized...\n      PUSH 0\t\t\tyOwner {\\r\\n        authorized...\n      DUP2 \t\t\ta(stri\n      CALLDATALOAD \t\t\ttion storeData(strin\n      SWAP1 \t\t\t\\n    function storeData(strin\n      POP \t\t\t\\n    function storeData(strin\n      PUSH [tag] 123\t\t\tdeviceID, string memory dataTy...\n      DUP2 \t\t\taType\n      PUSH [tag] 124\t\t\tdeviceID, string memory dataTy...\n      JUMP [in]\t\t\tdeviceID, string memory dataTy...\n    tag 123\t\t\tdeviceID, string memory dataTy...\n      JUMPDEST \t\t\tdeviceID, string memory dataTy...\n      SWAP3 \t\t\t\\r\\n    }\\r\\n\\r\\n    function ...\n      SWAP2 \t\t\t\\r\\n    }\\r\\n\\r\\n    function ...\n      POP \t\t\t\\r\\n    }\\r\\n\\r\\n    function ...\n      POP \t\t\t\\r\\n    }\\r\\n\\r\\n    function ...\n      JUMP [out]\t\t\t\\r\\n    }\\r\\n\\r\\n    function ...\n    tag 13\t\t\try value) public onlyAuthorize...\n      JUMPDEST \t\t\try value) public onlyAuthorize...\n      PUSH 0\t\t\try value) public onlyAuthorize...\n      PUSH 20\t\t\t r\n      DUP3 \t\t\t\");\\r\\n    \n      DUP5 \t\t\t device\n      SUB \t\t\talid deviceID\");\\r\\n     \n      SLT \t\t\t\"Invalid deviceID\");\\r\\n      ...\n      ISZERO \t\t\t0,\n      PUSH [tag] 126\t\t\t0,\n      JUMPI \t\t\t0,\n      PUSH 0\t\t\ta\n      DUP1 \t\t\ts\n      REVERT \t\t\tre(bytes(dat\n    tag 126\t\t\t0,\n      JUMPDEST \t\t\t0,\n      PUSH 0\t\t\t \n      PUSH [tag] 127\t\t\tue).length > 0, \"Invalid value...\n      DUP5 \t\t\tDataEnt\n      DUP3 \t\t\t\\n     \n      DUP6 \t\t\tvalue\");\\r\n      ADD \t\t\tlid value\");\\r\\n\\r\\n      \n      PUSH [tag] 113\t\t\tue).length > 0, \"Invalid value...\n      JUMP [in]\t\t\tue).length > 0, \"Invalid value...\n    tag 127\t\t\tue).length > 0, \"Invalid value...\n      JUMPDEST \t\t\tue).length > 0, \"Invalid value...\n      SWAP2 \t\t\t(bytes(value).length > 0, \"Inv...\n      POP \t\t\t(bytes(value).length > 0, \"Inv...\n      POP \t\t\th > 0, \"Invalid dataType\");\\r\\...\n      SWAP3 \t\t\t.length > 0, \"Invalid deviceID...\n      SWAP2 \t\t\t.length > 0, \"Invalid deviceID...\n      POP \t\t\t.length > 0, \"Invalid deviceID...\n      POP \t\t\t.length > 0, \"Invalid deviceID...\n      JUMP [out]\t\t\t.length > 0, \"Invalid deviceID...\n    tag 25\t\t\ttry(dataType, value, block.tim...\n      JUMPDEST \t\t\ttry(dataType, value, block.tim...\n      PUSH 0\t\t\ttry(dataType, value, block.tim...\n      PUSH 20\t\t\tst\n      DUP3 \t\t\tetDataCou\n      DUP5 \t\t\tunction\n      SUB \t\t\t   function getDataCoun\n      SLT \t\t\t\\n\\r\\n    function getDataCoun...\n      ISZERO \t\t\t }\n      PUSH [tag] 129\t\t\t }\n      JUMPI \t\t\t }\n      PUSH 0\t\t\tv\n      DUP1 \t\t\t \n      REVERT \t\t\t memory devi\n    tag 129\t\t\t }\n      JUMPDEST \t\t\t }\n      PUSH 0\t\t\tc\n      DUP3 \t\t\tceData[de\n      ADD \t\t\tdeviceData[device\n      CALLDATALOAD \t\t\t      return deviceData[device...\n      PUSH FFFFFFFFFFFFFFFF\t\t\tnction getDataByIn\n      DUP2 \t\t\t\\r\\n    \n      GT \t\t\t}\\r\\n\\r\\n    function getDataB...\n      ISZERO \t\t\t  \n      PUSH [tag] 130\t\t\t  \n      JUMPI \t\t\t  \n      PUSH 0\t\t\to\n      DUP1 \t\t\tm\n      REVERT \t\t\tstring memor\n    tag 130\t\t\t  \n      JUMPDEST \t\t\t  \n      PUSH [tag] 131\t\t\t public view returns (string m...\n      DUP5 \t\t\tt256) {\n      DUP3 \t\t\tmory, \n      DUP6 \t\t\t, string \n      ADD \t\t\tmory, string memory, u\n      PUSH [tag] 117\t\t\t public view returns (string m...\n      JUMP [in]\t\t\t public view returns (string m...\n    tag 131\t\t\t public view returns (string m...\n      JUMPDEST \t\t\t public view returns (string m...\n      SWAP2 \t\t\t256 index) public view returns...\n      POP \t\t\t256 index) public view returns...\n      POP \t\t\t view returns (uint256) {\\r\\n ...\n      SWAP3 \t\t\ttry);\\r\\n    }\\r\\n\\r\\n    func...\n      SWAP2 \t\t\ttry);\\r\\n    }\\r\\n\\r\\n    func...\n      POP \t\t\ttry);\\r\\n    }\\r\\n\\r\\n    func...\n      POP \t\t\ttry);\\r\\n    }\\r\\n\\r\\n    func...\n      JUMP [out]\t\t\ttry);\\r\\n    }\\r\\n\\r\\n    func...\n    tag 41\t\t\t< deviceData[deviceID].length,...\n      JUMPDEST \t\t\t< deviceData[deviceID].length,...\n      PUSH 0\t\t\t< deviceData[deviceID].length,...\n      DUP1 \t\t\t< deviceData[deviceID].length,...\n      PUSH 0\t\t\t< deviceData[deviceID].length,...\n      PUSH 60\t\t\tme\n      DUP5 \t\t\tue, entry\n      DUP7 \t\t\tentry.v\n      SUB \t\t\tpe, entry.value, entry.\n      SLT \t\t\ttaType, entry.value, entry.tim...\n      ISZERO \t\t\t.d\n      PUSH [tag] 133\t\t\t.d\n      JUMPI \t\t\t.d\n      PUSH 0\t\t\t\\r\n      DUP1 \t\t\t \n      REVERT \t\t\tp);\\r\\n    }\\r\\n\n    tag 133\t\t\t.d\n      JUMPDEST \t\t\t.d\n      PUSH 0\t\t\t\n      DUP5 \t\t\t\n      ADD \t\t\t\n      CALLDATALOAD \t\t\t\n      PUSH FFFFFFFFFFFFFFFF\t\t\t\n      DUP2 \t\t\t\n      GT \t\t\t\n      ISZERO \t\t\t\n      PUSH [tag] 134\t\t\t\n      JUMPI \t\t\t\n      PUSH 0\t\t\t\n      DUP1 \t\t\t\n      REVERT \t\t\t\n    tag 134\t\t\t\n      JUMPDEST \t\t\t\n      PUSH [tag] 135\t\t\t\n      DUP7 \t\t\t\n      DUP3 \t\t\t\n      DUP8 \t\t\t\n      ADD \t\t\t\n      PUSH [tag] 117\t\t\t\n      JUMP [in]\t\t\t\n    tag 135\t\t\t\n      JUMPDEST \t\t\t\n      SWAP4 \t\t\t\n      POP \t\t\t\n      POP \t\t\t\n      PUSH 20\t\t\t\n      DUP5 \t\t\t\n      ADD \t\t\t\n      CALLDATALOAD \t\t\t\n      PUSH FFFFFFFFFFFFFFFF\t\t\t\n      DUP2 \t\t\t\n      GT \t\t\t\n      ISZERO \t\t\t\n      PUSH [tag] 136\t\t\t\n      JUMPI \t\t\t\n      PUSH 0\t\t\t\n      DUP1 \t\t\t\n      REVERT \t\t\t\n    tag 136\t\t\t\n      JUMPDEST \t\t\t\n      PUSH [tag] 137\t\t\t\n      DUP7 \t\t\t\n      DUP3 \t\t\t\n      DUP8 \t\t\t\n      ADD \t\t\t\n      PUSH [tag] 117\t\t\t\n      JUMP [in]\t\t\t\n    tag 137\t\t\t\n      JUMPDEST \t\t\t\n      SWAP3 \t\t\t\n      POP \t\t\t\n      POP \t\t\t\n      PUSH 40\t\t\t\n      DUP5 \t\t\t\n      ADD \t\t\t\n      CALLDATALOAD \t\t\t\n      PUSH FFFFFFFFFFFFFFFF\t\t\t\n      DUP2 \t\t\t\n      GT \t\t\t\n      ISZERO \t\t\t\n      PUSH [tag] 138\t\t\t\n      JUMPI \t\t\t\n      PUSH 0\t\t\t\n      DUP1 \t\t\t\n      REVERT \t\t\t\n    tag 138\t\t\t\n      JUMPDEST \t\t\t\n      PUSH [tag] 139\t\t\t\n      DUP7 \t\t\t\n      DUP3 \t\t\t\n      DUP8 \t\t\t\n      ADD \t\t\t\n      PUSH [tag] 117\t\t\t\n      JUMP [in]\t\t\t\n    tag 139\t\t\t\n      JUMPDEST \t\t\t\n      SWAP2 \t\t\t\n      POP \t\t\t\n      POP \t\t\t\n      SWAP3 \t\t\turn (entry.dataType, entry.val...\n      POP \t\t\turn (entry.dataType, entry.val...\n      SWAP3 \t\t\turn (entry.dataType, entry.val...\n      POP \t\t\turn (entry.dataType, entry.val...\n      SWAP3 \t\t\turn (entry.dataType, entry.val...\n      JUMP [out]\t\t\turn (entry.dataType, entry.val...\n    tag 19\t\t\t\n      JUMPDEST \t\t\t\n      PUSH 0\t\t\t\n      DUP1 \t\t\t\n      PUSH 40\t\t\t\n      DUP4 \t\t\t\n      DUP6 \t\t\t\n      SUB \t\t\t\n      SLT \t\t\t\n      ISZERO \t\t\t\n      PUSH [tag] 141\t\t\t\n      JUMPI \t\t\t\n      PUSH 0\t\t\t\n      DUP1 \t\t\t\n      REVERT \t\t\t\n    tag 141\t\t\t\n      JUMPDEST \t\t\t\n      PUSH 0\t\t\t\n      DUP4 \t\t\t\n      ADD \t\t\t\n      CALLDATALOAD \t\t\t\n      PUSH FFFFFFFFFFFFFFFF\t\t\t\n      DUP2 \t\t\t\n      GT \t\t\t\n      ISZERO \t\t\t\n      PUSH [tag] 142\t\t\t\n      JUMPI \t\t\t\n      PUSH 0\t\t\t\n      DUP1 \t\t\t\n      REVERT \t\t\t\n    tag 142\t\t\t\n      JUMPDEST \t\t\t\n      PUSH [tag] 143\t\t\t\n      DUP6 \t\t\t\n      DUP3 \t\t\t\n      DUP7 \t\t\t\n      ADD \t\t\t\n      PUSH [tag] 117\t\t\t\n      JUMP [in]\t\t\t\n    tag 143\t\t\t\n      JUMPDEST \t\t\t\n      SWAP3 \t\t\t\n      POP \t\t\t\n      POP \t\t\t\n      PUSH 20\t\t\t\n      PUSH [tag] 144\t\t\t\n      DUP6 \t\t\t\n      DUP3 \t\t\t\n      DUP7 \t\t\t\n      ADD \t\t\t\n      PUSH [tag] 121\t\t\t\n      JUMP [in]\t\t\t\n    tag 144\t\t\t\n      JUMPDEST \t\t\t\n      SWAP2 \t\t\t\n      POP \t\t\t\n      POP \t\t\t\n      SWAP3 \t\t\t\n      POP \t\t\t\n      SWAP3 \t\t\t\n      SWAP1 \t\t\t\n      POP \t\t\t\n      JUMP [out]\t\t\t\n    tag 145\t\t\t\n      JUMPDEST \t\t\t\n      PUSH [tag] 147\t\t\t\n      DUP2 \t\t\t\n      PUSH [tag] 148\t\t\t\n      JUMP [in]\t\t\t\n    tag 147\t\t\t\n      JUMPDEST \t\t\t\n      DUP3 \t\t\t\n      MSTORE \t\t\t\n      POP \t\t\t\n      POP \t\t\t\n      JUMP [out]\t\t\t\n    tag 149\t\t\t\n      JUMPDEST \t\t\t\n      PUSH [tag] 151\t\t\t\n      DUP2 \t\t\t\n      PUSH [tag] 152\t\t\t\n      JUMP [in]\t\t\t\n    tag 151\t\t\t\n      JUMPDEST \t\t\t\n      DUP3 \t\t\t\n      MSTORE \t\t\t\n      POP \t\t\t\n      POP \t\t\t\n      JUMP [out]\t\t\t\n    tag 153\t\t\t\n      JUMPDEST \t\t\t\n      PUSH 0\t\t\t\n      PUSH [tag] 155\t\t\t\n      DUP3 \t\t\t\n      PUSH [tag] 156\t\t\t\n      JUMP [in]\t\t\t\n    tag 155\t\t\t\n      JUMPDEST \t\t\t\n      PUSH [tag] 157\t\t\t\n      DUP2 \t\t\t\n      DUP6 \t\t\t\n      PUSH [tag] 158\t\t\t\n      JUMP [in]\t\t\t\n    tag 157\t\t\t\n      JUMPDEST \t\t\t\n      SWAP4 \t\t\t\n      POP \t\t\t\n      PUSH [tag] 159\t\t\t\n      DUP2 \t\t\t\n      DUP6 \t\t\t\n      PUSH 20\t\t\t\n      DUP7 \t\t\t\n      ADD \t\t\t\n      PUSH [tag] 160\t\t\t\n      JUMP [in]\t\t\t\n    tag 159\t\t\t\n      JUMPDEST \t\t\t\n      PUSH [tag] 161\t\t\t\n      DUP2 \t\t\t\n      PUSH [tag] 162\t\t\t\n      JUMP [in]\t\t\t\n    tag 161\t\t\t\n      JUMPDEST \t\t\t\n      DUP5 \t\t\t\n      ADD \t\t\t\n      SWAP2 \t\t\t\n      POP \t\t\t\n      POP \t\t\t\n      SWAP3 \t\t\t\n      SWAP2 \t\t\t\n      POP \t\t\t\n      POP \t\t\t\n      JUMP [out]\t\t\t\n    tag 163\t\t\t\n      JUMPDEST \t\t\t\n      PUSH 0\t\t\t\n      PUSH [tag] 165\t\t\t\n      DUP3 \t\t\t\n      PUSH [tag] 156\t\t\t\n      JUMP [in]\t\t\t\n    tag 165\t\t\t\n      JUMPDEST \t\t\t\n      PUSH [tag] 166\t\t\t\n      DUP2 \t\t\t\n      DUP6 \t\t\t\n      PUSH [tag] 167\t\t\t\n      JUMP [in]\t\t\t\n    tag 166\t\t\t\n      JUMPDEST \t\t\t\n      SWAP4 \t\t\t\n      POP \t\t\t\n      PUSH [tag] 168\t\t\t\n      DUP2 \t\t\t\n      DUP6 \t\t\t\n      PUSH 20\t\t\t\n      DUP7 \t\t\t\n      ADD \t\t\t\n      PUSH [tag] 160\t\t\t\n      JUMP [in]\t\t\t\n    tag 168\t\t\t\n      JUMPDEST \t\t\t\n      DUP1 \t\t\t\n      DUP5 \t\t\t\n      ADD \t\t\t\n      SWAP2 \t\t\t\n      POP \t\t\t\n      POP \t\t\t\n      SWAP3 \t\t\t\n      SWAP2 \t\t\t\n      POP \t\t\t\n      POP \t\t\t\n      JUMP [out]\t\t\t\n    tag 169\t\t\t\n      JUMPDEST \t\t\t\n      PUSH 0\t\t\t\n      PUSH [tag] 171\t\t\t\n      PUSH C\t\t\t\n      DUP4 \t\t\t\n      PUSH [tag] 158\t\t\t\n      JUMP [in]\t\t\t\n    tag 171\t\t\t\n      JUMPDEST \t\t\t\n      SWAP2 \t\t\t\n      POP \t\t\t\n      PUSH 556E617574686F72697A65640000000000000000000000000000000000000000\t\t\t\n      PUSH 0\t\t\t\n      DUP4 \t\t\t\n      ADD \t\t\t\n      MSTORE \t\t\t\n      PUSH 20\t\t\t\n      DUP3 \t\t\t\n      ADD \t\t\t\n      SWAP1 \t\t\t\n      POP \t\t\t\n      SWAP2 \t\t\t\n      SWAP1 \t\t\t\n      POP \t\t\t\n      JUMP [out]\t\t\t\n    tag 172\t\t\t\n      JUMPDEST \t\t\t\n      PUSH 0\t\t\t\n      PUSH [tag] 174\t\t\t\n      PUSH 10\t\t\t\n      DUP4 \t\t\t\n      PUSH [tag] 158\t\t\t\n      JUMP [in]\t\t\t\n    tag 174\t\t\t\n      JUMPDEST \t\t\t\n      SWAP2 \t\t\t\n      POP \t\t\t\n      PUSH 496E76616C696420646174615479706500000000000000000000000000000000\t\t\t\n      PUSH 0\t\t\t\n      DUP4 \t\t\t\n      ADD \t\t\t\n      MSTORE \t\t\t\n      PUSH 20\t\t\t\n      DUP3 \t\t\t\n      ADD \t\t\t\n      SWAP1 \t\t\t\n      POP \t\t\t\n      SWAP2 \t\t\t\n      SWAP1 \t\t\t\n      POP \t\t\t\n      JUMP [out]\t\t\t\n    tag 175\t\t\t\n      JUMPDEST \t\t\t\n      PUSH 0\t\t\t\n      PUSH [tag] 177\t\t\t\n      PUSH D\t\t\t\n      DUP4 \t\t\t\n      PUSH [tag] 158\t\t\t\n      JUMP [in]\t\t\t\n    tag 177\t\t\t\n      JUMPDEST \t\t\t\n      SWAP2 \t\t\t\n      POP \t\t\t\n      PUSH 496E76616C69642076616C756500000000000000000000000000000000000000\t\t\t\n      PUSH 0\t\t\t\n      DUP4 \t\t\t\n      ADD \t\t\t\n      MSTORE \t\t\t\n      PUSH 20\t\t\t\n      DUP3 \t\t\t\n      ADD \t\t\t\n      SWAP1 \t\t\t\n      POP \t\t\t\n      SWAP2 \t\t\t\n      SWAP1 \t\t\t\n      POP \t\t\t\n      JUMP [out]\t\t\t\n    tag 178\t\t\t\n      JUMPDEST \t\t\t\n      PUSH 0\t\t\t\n      PUSH [tag] 180\t\t\t\n      PUSH 10\t\t\t\n      DUP4 \t\t\t\n      PUSH [tag] 158\t\t\t\n      JUMP [in]\t\t\t\n    tag 180\t\t\t\n      JUMPDEST \t\t\t\n      SWAP2 \t\t\t\n      POP \t\t\t\n      PUSH 496E76616C696420646576696365494400000000000000000000000000000000\t\t\t\n      PUSH 0\t\t\t\n      DUP4 \t\t\t\n      ADD \t\t\t\n      MSTORE \t\t\t\n      PUSH 20\t\t\t\n      DUP3 \t\t\t\n      ADD \t\t\t\n      SWAP1 \t\t\t\n      POP \t\t\t\n      SWAP2 \t\t\t\n      SWAP1 \t\t\t\n      POP \t\t\t\n      JUMP [out]\t\t\t\n    tag 181\t\t\t\n      JUMPDEST \t\t\t\n      PUSH 0\t\t\t\n      PUSH [tag] 183\t\t\t\n      PUSH 12\t\t\t\n      DUP4 \t\t\t\n      PUSH [tag] 158\t\t\t\n      JUMP [in]\t\t\t\n    tag 183\t\t\t\n      JUMPDEST \t\t\t\n      SWAP2 \t\t\t\n      POP \t\t\t\n      PUSH 4E6F7420636F6E7472616374206F776E65720000000000000000000000000000\t\t\t\n      PUSH 0\t\t\t\n      DUP4 \t\t\t\n      ADD \t\t\t\n      MSTORE \t\t\t\n      PUSH 20\t\t\t\n      DUP3 \t\t\t\n      ADD \t\t\t\n      SWAP1 \t\t\t\n      POP \t\t\t\n      SWAP2 \t\t\t\n      SWAP1 \t\t\t\n      POP \t\t\t\n      JUMP [out]\t\t\t\n    tag 184\t\t\t\n      JUMPDEST \t\t\t\n      PUSH 0\t\t\t\n      PUSH [tag] 186\t\t\t\n      PUSH 13\t\t\t\n      DUP4 \t\t\t\n      PUSH [tag] 158\t\t\t\n      JUMP [in]\t\t\t\n    tag 186\t\t\t\n      JUMPDEST \t\t\t\n      SWAP2 \t\t\t\n      POP \t\t\t\n      PUSH 496E646578206F7574206F6620626F756E647300000000000000000000000000\t\t\t\n      PUSH 0\t\t\t\n      DUP4 \t\t\t\n      ADD \t\t\t\n      MSTORE \t\t\t\n      PUSH 20\t\t\t\n      DUP3 \t\t\t\n      ADD \t\t\t\n      SWAP1 \t\t\t\n      POP \t\t\t\n      SWAP2 \t\t\t\n      SWAP1 \t\t\t\n      POP \t\t\t\n      JUMP [out]\t\t\t\n    tag 187\t\t\t\n      JUMPDEST \t\t\t\n      PUSH [tag] 189\t\t\t\n      DUP2 \t\t\t\n      PUSH [tag] 190\t\t\t\n      JUMP [in]\t\t\t\n    tag 189\t\t\t\n      JUMPDEST \t\t\t\n      DUP3 \t\t\t\n      MSTORE \t\t\t\n      POP \t\t\t\n      POP \t\t\t\n      JUMP [out]\t\t\t\n    tag 45\t\t\t\n      JUMPDEST \t\t\t\n      PUSH 0\t\t\t\n      PUSH [tag] 192\t\t\t\n      DUP3 \t\t\t\n      DUP5 \t\t\t\n      PUSH [tag] 163\t\t\t\n      JUMP [in]\t\t\t\n    tag 192\t\t\t\n      JUMPDEST \t\t\t\n      SWAP2 \t\t\t\n      POP \t\t\t\n      DUP2 \t\t\t\n      SWAP1 \t\t\t\n      POP \t\t\t\n      SWAP3 \t\t\t\n      SWAP2 \t\t\t\n      POP \t\t\t\n      POP \t\t\t\n      JUMP [out]\t\t\t\n    tag 35\t\t\t\n      JUMPDEST \t\t\t\n      PUSH 0\t\t\t\n      PUSH 20\t\t\t\n      DUP3 \t\t\t\n      ADD \t\t\t\n      SWAP1 \t\t\t\n      POP \t\t\t\n      PUSH [tag] 194\t\t\t\n      PUSH 0\t\t\t\n      DUP4 \t\t\t\n      ADD \t\t\t\n      DUP5 \t\t\t\n      PUSH [tag] 145\t\t\t\n      JUMP [in]\t\t\t\n    tag 194\t\t\t\n      JUMPDEST \t\t\t\n      SWAP3 \t\t\t\n      SWAP2 \t\t\t\n      POP \t\t\t\n      POP \t\t\t\n      JUMP [out]\t\t\t\n    tag 16\t\t\t\n      JUMPDEST \t\t\t\n      PUSH 0\t\t\t\n      PUSH 20\t\t\t\n      DUP3 \t\t\t\n      ADD \t\t\t\n      SWAP1 \t\t\t\n      POP \t\t\t\n      PUSH [tag] 196\t\t\t\n      PUSH 0\t\t\t\n      DUP4 \t\t\t\n      ADD \t\t\t\n      DUP5 \t\t\t\n      PUSH [tag] 149\t\t\t\n      JUMP [in]\t\t\t\n    tag 196\t\t\t\n      JUMPDEST \t\t\t\n      SWAP3 \t\t\t\n      SWAP2 \t\t\t\n      POP \t\t\t\n      POP \t\t\t\n      JUMP [out]\t\t\t\n    tag 22\t\t\t\n      JUMPDEST \t\t\t\n      PUSH 0\t\t\t\n      PUSH 60\t\t\t\n      DUP3 \t\t\t\n      ADD \t\t\t\n      SWAP1 \t\t\t\n      POP \t\t\t\n      DUP2 \t\t\t\n      DUP2 \t\t\t\n      SUB \t\t\t\n      PUSH 0\t\t\t\n      DUP4 \t\t\t\n      ADD \t\t\t\n      MSTORE \t\t\t\n      PUSH [tag] 198\t\t\t\n      DUP2 \t\t\t\n      DUP7 \t\t\t\n      PUSH [tag] 153\t\t\t\n      JUMP [in]\t\t\t\n    tag 198\t\t\t\n      JUMPDEST \t\t\t\n      SWAP1 \t\t\t\n      POP \t\t\t\n      DUP2 \t\t\t\n      DUP2 \t\t\t\n      SUB \t\t\t\n      PUSH 20\t\t\t\n      DUP4 \t\t\t\n      ADD \t\t\t\n      MSTORE \t\t\t\n      PUSH [tag] 199\t\t\t\n      DUP2 \t\t\t\n      DUP6 \t\t\t\n      PUSH [tag] 153\t\t\t\n      JUMP [in]\t\t\t\n    tag 199\t\t\t\n      JUMPDEST \t\t\t\n      SWAP1 \t\t\t\n      POP \t\t\t\n      PUSH [tag] 200\t\t\t\n      PUSH 40\t\t\t\n      DUP4 \t\t\t\n      ADD \t\t\t\n      DUP5 \t\t\t\n      PUSH [tag] 187\t\t\t\n      JUMP [in]\t\t\t\n    tag 200\t\t\t\n      JUMPDEST \t\t\t\n      SWAP5 \t\t\t\n      SWAP4 \t\t\t\n      POP \t\t\t\n      POP \t\t\t\n      POP \t\t\t\n      POP \t\t\t\n      JUMP [out]\t\t\t\n    tag 77\t\t\t\n      JUMPDEST \t\t\t\n      PUSH 0\t\t\t\n      PUSH 20\t\t\t\n      DUP3 \t\t\t\n      ADD \t\t\t\n      SWAP1 \t\t\t\n      POP \t\t\t\n      DUP2 \t\t\t\n      DUP2 \t\t\t\n      SUB \t\t\t\n      PUSH 0\t\t\t\n      DUP4 \t\t\t\n      ADD \t\t\t\n      MSTORE \t\t\t\n      PUSH [tag] 202\t\t\t\n      DUP2 \t\t\t\n      PUSH [tag] 169\t\t\t\n      JUMP [in]\t\t\t\n    tag 202\t\t\t\n      JUMPDEST \t\t\t\n      SWAP1 \t\t\t\n      POP \t\t\t\n      SWAP2 \t\t\t\n      SWAP1 \t\t\t\n      POP \t\t\t\n      JUMP [out]\t\t\t\n    tag 84\t\t\t\n      JUMPDEST \t\t\t\n      PUSH 0\t\t\t\n      PUSH 20\t\t\t\n      DUP3 \t\t\t\n      ADD \t\t\t\n      SWAP1 \t\t\t\n      POP \t\t\t\n      DUP2 \t\t\t\n      DUP2 \t\t\t\n      SUB \t\t\t\n      PUSH 0\t\t\t\n      DUP4 \t\t\t\n      ADD \t\t\t\n      MSTORE \t\t\t\n      PUSH [tag] 204\t\t\t\n      DUP2 \t\t\t\n      PUSH [tag] 172\t\t\t\n      JUMP [in]\t\t\t\n    tag 204\t\t\t\n      JUMPDEST \t\t\t\n      SWAP1 \t\t\t\n      POP \t\t\t\n      SWAP2 \t\t\t\n      SWAP1 \t\t\t\n      POP \t\t\t\n      JUMP [out]\t\t\t\n    tag 87\t\t\t\n      JUMPDEST \t\t\t\n      PUSH 0\t\t\t\n      PUSH 20\t\t\t\n      DUP3 \t\t\t\n      ADD \t\t\t\n      SWAP1 \t\t\t\n      POP \t\t\t\n      DUP2 \t\t\t\n      DUP2 \t\t\t\n      SUB \t\t\t\n      PUSH 0\t\t\t\n      DUP4 \t\t\t\n      ADD \t\t\t\n      MSTORE \t\t\t\n      PUSH [tag] 206\t\t\t\n      DUP2 \t\t\t\n      PUSH [tag] 175\t\t\t\n      JUMP [in]\t\t\t\n    tag 206\t\t\t\n      JUMPDEST \t\t\t\n      SWAP1 \t\t\t\n      POP \t\t\t\n      SWAP2 \t\t\t\n      SWAP1 \t\t\t\n      POP \t\t\t\n      JUMP [out]\t\t\t\n    tag 81\t\t\t\n      JUMPDEST \t\t\t\n      PUSH 0\t\t\t\n      PUSH 20\t\t\t\n      DUP3 \t\t\t\n      ADD \t\t\t\n      SWAP1 \t\t\t\n      POP \t\t\t\n      DUP2 \t\t\t\n      DUP2 \t\t\t\n      SUB \t\t\t\n      PUSH 0\t\t\t\n      DUP4 \t\t\t\n      ADD \t\t\t\n      MSTORE \t\t\t\n      PUSH [tag] 208\t\t\t\n      DUP2 \t\t\t\n      PUSH [tag] 178\t\t\t\n      JUMP [in]\t\t\t\n    tag 208\t\t\t\n      JUMPDEST \t\t\t\n      SWAP1 \t\t\t\n      POP \t\t\t\n      SWAP2 \t\t\t\n      SWAP1 \t\t\t\n      POP \t\t\t\n      JUMP [out]\t\t\t\n    tag 68\t\t\t\n      JUMPDEST \t\t\t\n      PUSH 0\t\t\t\n      PUSH 20\t\t\t\n      DUP3 \t\t\t\n      ADD \t\t\t\n      SWAP1 \t\t\t\n      POP \t\t\t\n      DUP2 \t\t\t\n      DUP2 \t\t\t\n      SUB \t\t\t\n      PUSH 0\t\t\t\n      DUP4 \t\t\t\n      ADD \t\t\t\n      MSTORE \t\t\t\n      PUSH [tag] 210\t\t\t\n      DUP2 \t\t\t\n      PUSH [tag] 181\t\t\t\n      JUMP [in]\t\t\t\n    tag 210\t\t\t\n      JUMPDEST \t\t\t\n      SWAP1 \t\t\t\n      POP \t\t\t\n      SWAP2 \t\t\t\n      SWAP1 \t\t\t\n      POP \t\t\t\n      JUMP [out]\t\t\t\n    tag 48\t\t\t\n      JUMPDEST \t\t\t\n      PUSH 0\t\t\t\n      PUSH 20\t\t\t\n      DUP3 \t\t\t\n      ADD \t\t\t\n      SWAP1 \t\t\t\n      POP \t\t\t\n      DUP2 \t\t\t\n      DUP2 \t\t\t\n      SUB \t\t\t\n      PUSH 0\t\t\t\n      DUP4 \t\t\t\n      ADD \t\t\t\n      MSTORE \t\t\t\n      PUSH [tag] 212\t\t\t\n      DUP2 \t\t\t\n      PUSH [tag] 184\t\t\t\n      JUMP [in]\t\t\t\n    tag 212\t\t\t\n      JUMPDEST \t\t\t\n      SWAP1 \t\t\t\n      POP \t\t\t\n      SWAP2 \t\t\t\n      SWAP1 \t\t\t\n      POP \t\t\t\n      JUMP [out]\t\t\t\n    tag 28\t\t\t\n      JUMPDEST \t\t\t\n      PUSH 0\t\t\t\n      PUSH 20\t\t\t\n      DUP3 \t\t\t\n      ADD \t\t\t\n      SWAP1 \t\t\t\n      POP \t\t\t\n      PUSH [tag] 214\t\t\t\n      PUSH 0\t\t\t\n      DUP4 \t\t\t\n      ADD \t\t\t\n      DUP5 \t\t\t\n      PUSH [tag] 187\t\t\t\n      JUMP [in]\t\t\t\n    tag 214\t\t\t\n      JUMPDEST \t\t\t\n      SWAP3 \t\t\t\n      SWAP2 \t\t\t\n      POP \t\t\t\n      POP \t\t\t\n      JUMP [out]\t\t\t\n    tag 109\t\t\t\n      JUMPDEST \t\t\t\n      PUSH 0\t\t\t\n      PUSH 40\t\t\t\n      MLOAD \t\t\t\n      SWAP1 \t\t\t\n      POP \t\t\t\n      DUP2 \t\t\t\n      DUP2 \t\t\t\n      ADD \t\t\t\n      DUP2 \t\t\t\n      DUP2 \t\t\t\n      LT \t\t\t\n      PUSH FFFFFFFFFFFFFFFF\t\t\t\n      DUP3 \t\t\t\n      GT \t\t\t\n      OR \t\t\t\n      ISZERO \t\t\t\n      PUSH [tag] 216\t\t\t\n      JUMPI \t\t\t\n      PUSH [tag] 217\t\t\t\n      PUSH [tag] 218\t\t\t\n      JUMP [in]\t\t\t\n    tag 217\t\t\t\n      JUMPDEST \t\t\t\n    tag 216\t\t\t\n      JUMPDEST \t\t\t\n      DUP1 \t\t\t\n      PUSH 40\t\t\t\n      MSTORE \t\t\t\n      POP \t\t\t\n      SWAP2 \t\t\t\n      SWAP1 \t\t\t\n      POP \t\t\t\n      JUMP [out]\t\t\t\n    tag 108\t\t\t\n      JUMPDEST \t\t\t\n      PUSH 0\t\t\t\n      PUSH FFFFFFFFFFFFFFFF\t\t\t\n      DUP3 \t\t\t\n      GT \t\t\t\n      ISZERO \t\t\t\n      PUSH [tag] 220\t\t\t\n      JUMPI \t\t\t\n      PUSH [tag] 221\t\t\t\n      PUSH [tag] 218\t\t\t\n      JUMP [in]\t\t\t\n    tag 221\t\t\t\n      JUMPDEST \t\t\t\n    tag 220\t\t\t\n      JUMPDEST \t\t\t\n      PUSH 1F\t\t\t\n      NOT \t\t\t\n      PUSH 1F\t\t\t\n      DUP4 \t\t\t\n      ADD \t\t\t\n      AND \t\t\t\n      SWAP1 \t\t\t\n      POP \t\t\t\n      PUSH 20\t\t\t\n      DUP2 \t\t\t\n      ADD \t\t\t\n      SWAP1 \t\t\t\n      POP \t\t\t\n      SWAP2 \t\t\t\n      SWAP1 \t\t\t\n      POP \t\t\t\n      JUMP [out]\t\t\t\n    tag 156\t\t\t\n      JUMPDEST \t\t\t\n      PUSH 0\t\t\t\n      DUP2 \t\t\t\n      MLOAD \t\t\t\n      SWAP1 \t\t\t\n      POP \t\t\t\n      SWAP2 \t\t\t\n      SWAP1 \t\t\t\n      POP \t\t\t\n      JUMP [out]\t\t\t\n    tag 158\t\t\t\n      JUMPDEST \t\t\t\n      PUSH 0\t\t\t\n      DUP3 \t\t\t\n      DUP3 \t\t\t\n      MSTORE \t\t\t\n      PUSH 20\t\t\t\n      DUP3 \t\t\t\n      ADD \t\t\t\n      SWAP1 \t\t\t\n      POP \t\t\t\n      SWAP3 \t\t\t\n      SWAP2 \t\t\t\n      POP \t\t\t\n      POP \t\t\t\n      JUMP [out]\t\t\t\n    tag 167\t\t\t\n      JUMPDEST \t\t\t\n      PUSH 0\t\t\t\n      DUP2 \t\t\t\n      SWAP1 \t\t\t\n      POP \t\t\t\n      SWAP3 \t\t\t\n      SWAP2 \t\t\t\n      POP \t\t\t\n      POP \t\t\t\n      JUMP [out]\t\t\t\n    tag 148\t\t\t\n      JUMPDEST \t\t\t\n      PUSH 0\t\t\t\n      PUSH [tag] 226\t\t\t\n      DUP3 \t\t\t\n      PUSH [tag] 227\t\t\t\n      JUMP [in]\t\t\t\n    tag 226\t\t\t\n      JUMPDEST \t\t\t\n      SWAP1 \t\t\t\n      POP \t\t\t\n      SWAP2 \t\t\t\n      SWAP1 \t\t\t\n      POP \t\t\t\n      JUMP [out]\t\t\t\n    tag 152\t\t\t\n      JUMPDEST \t\t\t\n      PUSH 0\t\t\t\n      DUP2 \t\t\t\n      ISZERO \t\t\t\n      ISZERO \t\t\t\n      SWAP1 \t\t\t\n      POP \t\t\t\n      SWAP2 \t\t\t\n      SWAP1 \t\t\t\n      POP \t\t\t\n      JUMP [out]\t\t\t\n    tag 227\t\t\t\n      JUMPDEST \t\t\t\n      PUSH 0\t\t\t\n      PUSH FFFFFFFFFFFFFFFFFFFFFFFFFFFFFFFFFFFFFFFF\t\t\t\n      DUP3 \t\t\t\n      AND \t\t\t\n      SWAP1 \t\t\t\n      POP \t\t\t\n      SWAP2 \t\t\t\n      SWAP1 \t\t\t\n      POP \t\t\t\n      JUMP [out]\t\t\t\n    tag 190\t\t\t\n      JUMPDEST \t\t\t\n      PUSH 0\t\t\t\n      DUP2 \t\t\t\n      SWAP1 \t\t\t\n      POP \t\t\t\n      SWAP2 \t\t\t\n      SWAP1 \t\t\t\n      POP \t\t\t\n      JUMP [out]\t\t\t\n    tag 112\t\t\t\n      JUMPDEST \t\t\t\n      DUP3 \t\t\t\n      DUP2 \t\t\t\n      DUP4 \t\t\t\n      CALLDATACOPY \t\t\t\n      PUSH 0\t\t\t\n      DUP4 \t\t\t\n      DUP4 \t\t\t\n      ADD \t\t\t\n      MSTORE \t\t\t\n      POP \t\t\t\n      POP \t\t\t\n      POP \t\t\t\n      JUMP [out]\t\t\t\n    tag 160\t\t\t\n      JUMPDEST \t\t\t\n      PUSH 0\t\t\t\n    tag 233\t\t\t\n      JUMPDEST \t\t\t\n      DUP4 \t\t\t\n      DUP2 \t\t\t\n      LT \t\t\t\n      ISZERO \t\t\t\n      PUSH [tag] 235\t\t\t\n      JUMPI \t\t\t\n      DUP1 \t\t\t\n      DUP3 \t\t\t\n      ADD \t\t\t\n      MLOAD \t\t\t\n      DUP2 \t\t\t\n      DUP5 \t\t\t\n      ADD \t\t\t\n      MSTORE \t\t\t\n      PUSH 20\t\t\t\n      DUP2 \t\t\t\n      ADD \t\t\t\n      SWAP1 \t\t\t\n      POP \t\t\t\n      PUSH [tag] 233\t\t\t\n      JUMP \t\t\t\n    tag 235\t\t\t\n      JUMPDEST \t\t\t\n      DUP4 \t\t\t\n      DUP2 \t\t\t\n      GT \t\t\t\n      ISZERO \t\t\t\n      PUSH [tag] 236\t\t\t\n      JUMPI \t\t\t\n      PUSH 0\t\t\t\n      DUP5 \t\t\t\n      DUP5 \t\t\t\n      ADD \t\t\t\n      MSTORE \t\t\t\n    tag 236\t\t\t\n      JUMPDEST \t\t\t\n      POP \t\t\t\n      POP \t\t\t\n      POP \t\t\t\n      POP \t\t\t\n      JUMP [out]\t\t\t\n    tag 53\t\t\t\n      JUMPDEST \t\t\t\n      PUSH 0\t\t\t\n      PUSH 2\t\t\t\n      DUP3 \t\t\t\n      DIV \t\t\t\n      SWAP1 \t\t\t\n      POP \t\t\t\n      PUSH 1\t\t\t\n      DUP3 \t\t\t\n      AND \t\t\t\n      DUP1 \t\t\t\n      PUSH [tag] 238\t\t\t\n      JUMPI \t\t\t\n      PUSH 7F\t\t\t\n      DUP3 \t\t\t\n      AND \t\t\t\n      SWAP2 \t\t\t\n      POP \t\t\t\n    tag 238\t\t\t\n      JUMPDEST \t\t\t\n      PUSH 20\t\t\t\n      DUP3 \t\t\t\n      LT \t\t\t\n      DUP2 \t\t\t\n      EQ \t\t\t\n      ISZERO \t\t\t\n      PUSH [tag] 239\t\t\t\n      JUMPI \t\t\t\n      PUSH [tag] 240\t\t\t\n      PUSH [tag] 241\t\t\t\n      JUMP [in]\t\t\t\n    tag 240\t\t\t\n      JUMPDEST \t\t\t\n    tag 239\t\t\t\n      JUMPDEST \t\t\t\n      POP \t\t\t\n      SWAP2 \t\t\t\n      SWAP1 \t\t\t\n      POP \t\t\t\n      JUMP [out]\t\t\t\n    tag 241\t\t\t\n      JUMPDEST \t\t\t\n      PUSH 4E487B7100000000000000000000000000000000000000000000000000000000\t\t\t\n      PUSH 0\t\t\t\n      MSTORE \t\t\t\n      PUSH 22\t\t\t\n      PUSH 4\t\t\t\n      MSTORE \t\t\t\n      PUSH 24\t\t\t\n      PUSH 0\t\t\t\n      REVERT \t\t\t\n    tag 218\t\t\t\n      JUMPDEST \t\t\t\n      PUSH 4E487B7100000000000000000000000000000000000000000000000000000000\t\t\t\n      PUSH 0\t\t\t\n      MSTORE \t\t\t\n      PUSH 41\t\t\t\n      PUSH 4\t\t\t\n      MSTORE \t\t\t\n      PUSH 24\t\t\t\n      PUSH 0\t\t\t\n      REVERT \t\t\t\n    tag 162\t\t\t\n      JUMPDEST \t\t\t\n      PUSH 0\t\t\t\n      PUSH 1F\t\t\t\n      NOT \t\t\t\n      PUSH 1F\t\t\t\n      DUP4 \t\t\t\n      ADD \t\t\t\n      AND \t\t\t\n      SWAP1 \t\t\t\n      POP \t\t\t\n      SWAP2 \t\t\t\n      SWAP1 \t\t\t\n      POP \t\t\t\n      JUMP [out]\t\t\t\n    tag 116\t\t\t\n      JUMPDEST \t\t\t\n      PUSH [tag] 246\t\t\t\n      DUP2 \t\t\t\n      PUSH [tag] 148\t\t\t\n      JUMP [in]\t\t\t\n    tag 246\t\t\t\n      JUMPDEST \t\t\t\n      DUP2 \t\t\t\n      EQ \t\t\t\n      PUSH [tag] 247\t\t\t\n      JUMPI \t\t\t\n      PUSH 0\t\t\t\n      DUP1 \t\t\t\n      REVERT \t\t\t\n    tag 247\t\t\t\n      JUMPDEST \t\t\t\n      POP \t\t\t\n      JUMP [out]\t\t\t\n    tag 124\t\t\t\n      JUMPDEST \t\t\t\n      PUSH [tag] 249\t\t\t\n      DUP2 \t\t\t\n      PUSH [tag] 190\t\t\t\n      JUMP [in]\t\t\t\n    tag 249\t\t\t\n      JUMPDEST \t\t\t\n      DUP2 \t\t\t\n      EQ \t\t\t\n      PUSH [tag] 250\t\t\t\n      JUMPI \t\t\t\n      PUSH 0\t\t\t\n      DUP1 \t\t\t\n      REVERT \t\t\t\n    tag 250\t\t\t\n      JUMPDEST \t\t\t\n      POP \t\t\t\n      JUMP [out]\t\t\t\n    .data\n"
}